:020000040800F2
:100000000000022059530008BD0F0008BF0F000870
:10001000C10F0008C30F0008C50F00080000000052
:10002000000000000000000000000000C70F0008F2
:10003000C90F000800000000CB0F0008CD0F00081A
:10004000A9530008A9530008A9530008A9530008A0
:10005000A9530008A9530008A9530008A953000890
:10006000A9530008A9530008A9530008A953000880
:10007000A9530008A9530008A9530008A953000870
:10008000A9530008A9530008D50F0008A953000878
:10009000A9530008A9530008A9530008A953000850
:1000A000A9530008ED0F0008A9530008A953000840
:1000B000A9530008A9530008A9530008A953000830
:1000C000A9530008A9530008A9530008A953000820
:1000D000A9530008A9530008FD0F0008A953000800
:1000E000A9530008A9530008A9530008A953000800
:1000F000A9530008A9530008A9530008A9530008F0
:10010000A9530008A9530008A9530008A9530008DF
:10011000A9530008A9530008A9530008A9530008CF
:10012000A9530008A9530008A9530008A9530008BF
:10013000A9530008A9530008A9530008A9530008AF
:10014000A9530008A9530008A9530008A95300089F
:10015000A9530008A9530008A9530008A95300088F
:10016000A9530008A9530008A9530008A95300087F
:10017000A9530008A9530008A9530008A95300086F
:10018000A9530008A9530008A9530008A95300085F
:10019000A953000800000000A9530008A953000853
:1001A000A9530008A9530008A9530008A95300083F
:1001B000A9530008A9530008A9530008A95300082F
:1001C000A9530008A9530008A9530008A95300081F
:0801D000A9530008A95300081F
:1001D8000348044B834202D0034B03B118477047CE
:1001E8000C0000200C000020000000000548064913
:1001F8000B1AD90F01EBA301491002D0034B03B12D
:10020800184770470C0000200C0000200000000078
:1002180010B5064C237843B9FFF7DAFF044B13B146
:100228000448AFF300800123237010BD0C000020A8
:1002380000000000AC53000808B5044B1BB104498A
:100248000448AFF30080BDE80840CFE70000000095
:1002580010000020AC53000870B50D4E0D4D761BF4
:10026800B61006D0002455F8043B01349847A6423E
:10027800F9D1094E094D761B05F094F8B61006D051
:10028800002455F8043B01349847A642F9D170BDC3
:100298008C5500088C550008905500088C550008AE
:1002A800830730B548D0541E002A3FD0CAB203464F
:1002B80001E0013C3AD303F8012B9D07F9D1032C47
:1002C8002DD9CDB245EA05250F2C45EA054536D985
:1002D800A4F1100222F00F0C03F1200EE6444FEABD
:1002E800121C03F1100242E9045542E9025510328A
:1002F8007245F8D10CF1010214F00C0F03EB021255
:1003080004F00F0C13D0ACF1040323F003030433FF
:10031800134442F8045B9342FBD10CF003042CB164
:10032800CAB21C4403F8012B9C42FBD130BD644681
:100338001346002CF4D1F9E703461446BFE71A46E2
:10034800A446E0E753B94AB9002908BF00281CBFF2
:100358004FF0FF314FF0FF3000F074B9ADF1080CE9
:100368006DE904CE00F006F8DDF804E0DDE90223CB
:1003780004B070472DE9F047089D04468E46002BCF
:100388004DD18A42944669D9B2FA82F252B101FA41
:1003980002F3C2F1200120FA01F10CFA02FC41EA51
:1003A800030E94404FEA1C48210CBEFBF8F61FFAD6
:1003B8008CF708FB16E341EA034306FB07F1994271
:1003C8000AD91CEB030306F1FF3080F01F81994224
:1003D80040F21C81023E63445B1AA4B2B3FBF8F0FE
:1003E80008FB103344EA034400FB07F7A7420AD985
:1003F8001CEB040400F1FF3380F00A81A74240F2AD
:1004080007816444023840EA0640E41B00261DB117
:10041800D4400023C5E900433146BDE8F0878B424C
:1004280009D9002D00F0EF800026C5E9000130460B
:100438003146BDE8F087B3FA83F6002E4AD18B42E5
:1004480002D3824200F2F980841A61EB030301208F
:100458009E46002DE0D0C5E9004EDDE702B9FFDE7B
:10046800B2FA82F2002A40F09280A1EB0C014FEA26
:100478001C471FFA8CFE0126200CB1FBF7F307FB83
:10048800131140EA01410EFB03F0884208D91CEB26
:10049800010103F1FF3802D2884200F2CB804346C3
:1004A800091AA4B2B1FBF7F007FB101144EA0144A2
:1004B8000EFB00FEA64508D91CEB040400F1FF3131
:1004C80002D2A64500F2BB800846A4EB0E0440EA1F
:1004D80003409CE7C6F12007B34022FA07FC4CEA28
:1004E800030C20FA07F401FA06F31C43F9404FEA1B
:1004F8001C4900FA06F3B1FBF9F8200C1FFA8CFE30
:1005080009FB181140EA014108FB0EF0884202FA83
:1005180006F20BD91CEB010108F1FF3A80F0888044
:10052800884240F28580A8F102086144091AA4B201
:10053800B1FBF9F009FB101144EA014100FB0EFE82
:100548008E4508D91CEB010100F1FF346CD28E45B1
:100558006AD90238614440EA0840A0FB0294A1EB42
:100568000E01A142C846A64656D353D05DB1B3EB9F
:10057800080261EB0E0101FA07F722FA06F3F140CF
:100588001F43C5E9007100263146BDE8F087C2F176
:100598002003D8400CFA02FC21FA03F391400143EE
:1005A8004FEA1C471FFA8CFEB3FBF7F007FB103627
:1005B8000B0C43EA064300FB0EF69E4204FA02F4D3
:1005C80008D91CEB030300F1FF382FD29E422DD926
:1005D800023863449B1B89B2B3FBF7F607FB16335B
:1005E80041EA034106FB0EF38B4208D91CEB0101DB
:1005F80006F1FF3816D28B4214D9023E6144C91A5B
:1006080046EA004638E72E46284605E70646E3E66A
:100618001846F8E64B45A9D2B9EB020864EB0C0E74
:100628000138A3E74646EAE7204694E74046D1E783
:10063800D0467BE7023B614432E7304609E7644431
:10064800023842E7704700BF4A4BD3ED007AB7EE55
:10065800007AF4EEC77AF1EE10FA7AD4454BD3ED6E
:10066800006AF3EE047A66EEA77A9FED437A66EEA7
:10067800876A9FED427A76EE876A9FED417A67EE48
:10068800877A404B93ED007A77EE877AC3ED007A4C
:100698009FED3D7AF4EEC77AF1EE10FA03DB77EEC0
:1006A800C77AC3ED007A374BD3ED007AFCEEE77AD0
:1006B80017EE901A354BA3FB0102920902EB420296
:1006C80050010A1A02F1400CA3FB0C01890901EB45
:1006D80041014801ACEB000102F1200CA3FB0C0323
:1006E8009B0903EB43035801ACEB0003284800EBDC
:1006F800820292ED007A27EE267AF7EE005A37EE5C
:10070800257A9FED246A27EE067AFCEEC77A17EE63
:10071800902A00EB810191ED007A27EE267A37EED8
:10072800257A27EE067ABCEEC77A00EB8303D3ED71
:10073800007A67EEA67A77EEA57A67EE867AFCEEFF
:10074800E77A154B1B685A6383ED0E7AC3ED0F7A6F
:1007580070479FED127A77EE877AC3ED007AB7EE8D
:10076800007AF4EEC77AF1EE10FA7FF777AF83EDEF
:10077800007A73E7840500203333333FCDCCCC3D7A
:1007880052491D3B800500200000C042ABAAAAAA1E
:10079800C453000800004843A0040020ACC5A73695
:1007A800034B1A680349044801FB020018607047AC
:1007B8003C0000200D6619005FF36E3CF0B58BB06D
:1007C8000024059406940794089409942F4BDA6C36
:1007D80042F00402DA64DA6C02F004020192019A2F
:1007E800DA6C42F02002DA64DA6C02F0200202923B
:1007F800029ADA6C42F00102DA64DA6C02F0010261
:100808000392039ADA6C42F00202DA64DB6C03F0BA
:1008180002030493049B1E4F22464FF400513846AE
:1008280002F045FB1B4D224640F6E421284602F023
:100838003EFB4FF40053059301260696079408944F
:1008480005A9384602F03CFA48F2200305930694BD
:10085800079405A94FF0904002F032FA40F6E423DD
:10086800059306960794089405A9284602F028FAE5
:100878004FF4806305934FF488130693079405A9F2
:10088800284602F01DFA0BB0F0BD00BF0010024070
:10089800000800480004004808B5012280210448E7
:1008A80002F005FB01F034FC5030024B186008BD23
:1008B800000400482C00002030B583B004E0013368
:1008C80003F03F03334A1380334B1A8892B2314BFB
:1008D8001B88D21A12F0380F5AD03049C85C5A1CFB
:1008E80002F03F028A5CAA28E9D1552AE7D1002202
:1008F8000AE0991801F03F012848405C02F108011C
:10090800694401F8080C0132072AF2D99DF802401F
:100918009DF803109DF804E09DF805C084EA0102E3
:100928008EEA02028CEA02029DF8060042409DF817
:100938000750954226D1083303F03F03154A138028
:1009480041EA0E2343EA0C4343EA0063144A12685F
:100958009A42B9D0FFF7A0FF012CB5D101F0D8FB1E
:100968000446FFF71DFF0F4BA3FB0023DB08C3EB77
:100978000313C31A234401330B4A13600B4B0122A0
:100988001A70A1E7013303F03F03024A13809BE783
:1009980003B030BD84000020420000204400002045
:1009A800280000208988888834000020380000202A
:1009B80038B501F0B3FB044601F0B6FB444001F042
:1009C800B9FB4440114D2C6001F0A2FB2B68584044
:1009D80080F0A5300E4B186008B90E4A1A6001F075
:1009E80097FB0446FFF7DCFE0B4BA3FB00239B0998
:1009F8004FF47A7202FB13032344084A136001225E
:100A08000749084804F012FB38BD00BF2800002041
:100A18003C000020EFBEADDED34D62103000002058
:100A280040000020EC04002000B583B0AA238DF814
:100A3800003055238DF801308DF80200104B1B68EB
:100A48005FFA83FC8DF803C0C3F307218DF8041007
:100A5800C3F307428DF805201B0E8DF806308CEA8B
:100A6800000C81EA0C014A4053408DF807301423EA
:100A780008226946034804F065F903B05DF804FBF1
:100A880028000020EC04002008B5FFF715FF1B4BD9
:100A98001B7853B901F03CFB194B1B68C01A00289E
:100AA80011DA184B1B68C3B908BD01F031FB164BAE
:100AB8001B68C01A0028EDDB0220FFF7B5FF0F4BBB
:100AC80000221A70E6E70120FFF7AEFF01F020FBD5
:100AD80000F57A700A4B1860E3E701F019FB094B3F
:100AE8001B68C01A0028DFDB00228021074802F0BB
:100AF800DEF9044B00221A60D6E700BF3800002058
:100B0800300000202C0000203400002000040048A1
:100B180008B50268034B9A4200D008BDFFF794FD60
:100B2800FBE700BF002C014008B502680B4B9A4256
:100B380000D008BD0A4A13889BB20A4991F800C040
:100B4800094800F803C013889BB2013303F03F0340
:100B580013800122054804F069FAEAE700440040DE
:100B6800420000204000002044000020EC04002047
:100B780072B6FEE710B58CB0002409940A940B9461
:100B88002022214601A8FFF78BFB1E484FF0A04307
:100B980003604FF4003343608460C46004614461BF
:100BA80004238361047744770123036280F8244097
:100BB800C462046380F83840C46380F8404000F0A1
:100BC8000DFCC8B90023099309A90E4801F072F970
:100BD800A0B90D4B019306230293002303937F22B0
:100BE80004920422059206930DEB0201054800F0D9
:100BF800B9FE28B90CB010BDFFF7BAFFFFF7B8FF70
:100C0800FFF7B6FF880000200200300410B598B046
:100C180000241594169417940E940F94109411941C
:100C28001294139414943422214601A8FFF738FB38
:100C38002F48304B03604460202383604FF4C8730F
:100C4800C36004614461846102F042FE002842D11D
:100C58002023159300231693179315A9244803F00E
:100C6800ADF8002839D160230E9300220F9210921C
:100C780011921292139214920EA91D4802F0A8FE26
:100C880000282CD104220EA9194802F0A1FE40BB6D
:100C980008220EA9164802F09BFE20BB00230193F0
:100CA800029303930522049205934FF4005206928F
:100CB8000793089309934FF000720A920B930C93D1
:100CC8000D9301A90A4803F0CFF870B9084800F05D
:100CD800C5FA18B010BDFFF74BFFFFF749FFFFF744
:100CE80047FFFFF745FFFFF743FFFFF741FF00BF4F
:100CF800A0040020002C014008B50948094B0360F6
:100D08000823037102234371C371002303724372E2
:100D18008372C37204F085FA00B908BDFFF728FF93
:100D280060010020005C004008B50F480F4B0360CD
:100D38004FF482734360002383604FF44072C260B3
:100D4800036143614FF400728261C36103624362CD
:100D580083620722C26203630823436302F020FA16
:100D680000B908BDFFF704FF3C0400200030014033
:100D780000B589B0202200216846FFF791FA1A4889
:100D88001A4B03604FF40033436000238360C36051
:100D9800036143610422826103774377012202627F
:100DA80080F82430C362036380F83830C36380F866
:100DB800403000F013FB90B90D4B009306230193CC
:100DC800002302937F22039204220492059369462A
:100DD800054800F0C7FD20B909B05DF804FBFFF72E
:100DE800C7FEFFF7C5FE00BFF40000200001005059
:100DF8000000524708B51648164B03604FF4E1331C
:100E0800436000218160C16001610C2343618161FD
:100E1800C1610162416281620B460A4604F052F9DF
:100E280070B900210A4804F0B2F958B900210848FD
:100E380004F0D2F940B9064804F08AF930B908BD7F
:100E4800FFF796FEFFF794FEFFF792FEFFF790FE7E
:100E5800EC0400200044004000B595B03822002181
:100E680006A8FFF71DFA0023019302930393049346
:100E780005934FF4007002F099F8022306934FF49B
:100E88008072099240220A920D930E9301220F92CA
:100E98000C221092119304221292139306A801F0C7
:100EA80079F970B90F23019301230293002103916B
:100EB8000491059101A801F021FC20B915B05DF855
:100EC80004FBFFF755FEFFF753FE000000B587B09F
:100ED80001F002F9FFF7C0FFFFF770FCFFF74AFEC9
:100EE800FFF794FEFFF708FFFFF71EFFFFF740FF2D
:100EF800FFF780FF012220214FF0904001F0D7FF3B
:100F080000240194029403940494059420230193EB
:100F18000123029301A94FF0904001F0D1FE22462F
:100F28004FF40061214801F0C2FF214D21462846B7
:100F380002F0FAFD2146284602F0BEFE04212846AA
:100F480002F0F2FD0421284602F0B6FE08212846E8
:100F580002F0EAFD0821284602F0AEFE284602F01B
:100F6800FFFAFFF725FD0CE0104C01222021204656
:100F780001F09DFF00224021204601F098FFFFF775
:100F880083FD4FF400414FF0904001F089FF0128A4
:100F9800EAD0064C00222021204601F088FF0122D9
:100FA8004021204601F083FFE9E700BF0004004824
:100FB800A0040020FEE7FEE7FEE7FEE7FEE7704735
:100FC8007047704708B501F097F808BD08B50348A1
:100FD80000F056FB024800F053FB08BD88000020D3
:100FE800F400002008B5024802F008FB08BD00BF65
:100FF800A004002008B5024802F0D6FF08BD00BFD3
:10100800EC04002000B583B00B4B1A6E42F00102CD
:101018001A661A6E02F001020092009A9A6D42F066
:1010280080529A659B6D03F080530193019B02F0F7
:1010380043F803B05DF804FB0010024030B5A1B0DE
:10104800044600211B911C911D911E911F91542251
:1010580006A8FFF725F92368B3F1A04F04D0484A42
:10106800934250D021B030BD4FF4004306934FF067
:101078000053179306A801F067FC002835D1414AB0
:10108800136801331360012B32D03F4BDA6C42F006
:101098000102DA64DA6C02F001020292029ADA6C56
:1010A80042F00202DA64DB6C03F002030393039B51
:1010B80001231B9303251C9500241D941BA94FF0A5
:1010C800904001F0FDFD41F203031B931C951D9414
:1010D8001BA92E4801F0F4FD22462146122002F0F9
:1010E80005F8122002F03AF8BCE7FFF741FDC6E721
:1010F800254BDA6C42F40052DA64DB6C03F40053DB
:101108000193019BC1E74FF4004306934FF000534E
:10111800179306A801F018FC18BB1A4A1368013384
:101128001360012B20D0184BDA6C42F00102DA640C
:10113800DB6C03F001030593059B50231B930323EA
:101148001C9300241D941BA94FF0904001F0B8FD9A
:1011580022462146122001F0C9FF122001F0FEFFAD
:1011680080E7FFF705FDD8E7074BDA6C42F4005239
:10117800DA64DB6C03F400530493049BD3E700BFE9
:1011880000010050880500200010024000040048BB
:1011980030B589B00023039304930593069307930E
:1011A80002681C4B9A4201D009B030BD03F5604378
:1011B8001A6E42F480521A661A6E02F48052009235
:1011C800009ADA6C42F00102DA64DA6C02F0010289
:1011D8000192019ADA6C42F00202DA64DB6C03F0E5
:1011E80002030293029B802303930225049505249E
:1011F800079403A94FF0904001F062FD1823039370
:101208000495002305930693079403A9024801F067
:1012180057FDC9E7003001400004004802680E4B42
:101228009A4200D0704700B583B003F564431A6E44
:1012380042F400621A661B6E03F400630193019B7B
:1012480000220521192001F051FF192001F086FF25
:1012580003B05DF804FB00BF002C0140F0B589B075
:1012680000230393049305930693079302681F4B87
:101278009A4201D009B0F0BD03F56443DA6C42F03C
:101288000202DA64DA6C02F002020192019ADA6C64
:1012980042F00102DA64DB6C03F001030293029B63
:1012A8004FF4C04303930225049506260796104F72
:1012B80003A9384601F004FD4FF400430393049555
:1012C8000024059406940423079303A9384601F0E3
:1012D800F7FC4FF4E063039304950594069407968E
:1012E80003A94FF0904001F0EBFCC3E7002C01404C
:1012F8000004004810B59CB00446002117911891CD
:1013080019911A911B91542202A8FEF7C9FF22686D
:101318001B4B9A4201D01CB010BD0223029302A8B5
:1013280001F012FB48BB174B9A6D42F400329A65E4
:101338009A6D02F400320092009ADA6C42F00102CF
:10134800DA64DB6C03F001030193019B0E2317930E
:1013580002231893002419941A9407231B9317A99E
:101368004FF0904001F0ACFC22460621262001F007
:10137800BDFE262001F0F2FECDE7FFF7F9FBD2E72C
:10138800004400400010024010B596B004465422B4
:10139800002101A8FEF784FF22680E4B9A4201D073
:1013A80016B010BD4FF4005301934FF00063109333
:1013B80001A801F0C9FA50B9074B9A6D42F400022E
:1013C8009A659B6D03F400030093009BE8E7FFF721
:1013D800CFFBF1E7005C00400010024030B583B05D
:1013E80000230193002800F032810446C36D13B333
:1013F80023689A6812F0005F05D09A6822F02042AC
:1014080022F03F029A602268936813F0805F1FD130
:10141800936823F0104323F03F0343F08053936015
:101428008C4B1B689B098C4AA2FB03239B09013345
:101438005B00019309E0FFF701FE0023236684F8AF
:101448005830D5E7019B013B0193019B002BF9D153
:101458002268936813F0805F3DD1E36D43F0100379
:10146800E365236E43F0010323660120936813F0BC
:10147800040300D00123E16D11F0100F40F0E0806B
:10148800002B40F0DD80E36D23F4817343F0020309
:10149800E365936813F0010F3ED1B2F1A04F1CD061
:1014A8006E4B9A4219D06E4B996811F0010100D029
:1014B80001216C4B9B6813F0010300D001230B43FF
:1014C8006949896811F0010100D001210B430CBF63
:1014D8000123002312E00020C8E74FF0A0439B68D7
:1014E80013F0010300D001235C49896811F0010160
:1014F80000D001210B430CBF0123002363B1B2F1DB
:10150800A04F6CD0554B9A4267D0584963688A6897
:1015180022F47C1213438B60627FE36B43EA42330D
:10152800E2681343A268134394F8242043EA024371
:10153800012A56D0E26A22B102F47872216B0A437A
:1015480013432168CD684A4A2A401343CB60226876
:10155800136923F04063616B0B431361226893683E
:1015680013F0080300D0012343BB217F94F83830DF
:101578005B0043EA8131D36823F4804323F00203FC
:101588000B43D3602369002B30D02268136943F4DE
:10159800803313612268D2F8C03023F47F5323F0DC
:1015A8003F0321690B43C2F8C03094F84030012B47
:1015B8002BD02268136923F0010313616369012B9F
:1015C80035D02268136B23F00F031363E36D23F008
:1015D800030343F00103E36537E0264996E725490D
:1015E80094E7A26A013A43EA4243A3E722681369EF
:1015F80023F4803313612268D2F8C03023F47F5378
:1016080023F03F03C2F8C030CFE721680B6923F409
:10161800FF6323F00403626CA56C2A43E56C2A433C
:10162800256D2A43134343F001030B61C6E7216884
:101638000B6B23F00F03226A013A13430B63C5E7D0
:10164800E36D43F01003E365012003B030BD0120D2
:10165800FBE700BF08000020632D3E050001005095
:10166800000400500005005000060050000700501C
:101678000740F0FF000300507047704770470000B4
:10168800F8B5044603681E685F68B3F1A04F46D0FA
:10169800974A934241D0974B9D6805F01F0516F075
:1016A800020F10D017F0020F0DD0E36D13F0100FDA
:1016B80003D1E36D43F40063E365204600F0F8FBD3
:1016C800236802221A6016F0040F02D017F0040FE4
:1016D80005D116F0080F55D017F0080F52D0E36D5A
:1016E80013F0100F03D1E36D43F40073E36523682F
:1016F800DA6812F4406F3FD17D4A934214D002F564
:10170800806293420DD01A46934210D07DB1052DC8
:101718000DD0092D0BD0D2680AE0774BBCE7764B89
:10172800BAE7A2F58072EFE74FF0A042ECE7DA687B
:1017380012F4005F20D11A6812F0080F1CD09A68C2
:1017480012F0040F10D15A6822F00C025A60E36DAF
:1017580023F48073E365E36D13F4805F0CD1E36DCC
:1017680043F00103E36507E0E36D43F01003E3652D
:10177800236E43F0010323662046FFF77DFF2368AD
:101788000C221A6016F0200F02D017F0200F05D196
:1017980016F0400F63D017F0400F60D0E36D13F0E0
:1017A800100F03D1E36D43F40053E3652368DA6C4B
:1017B80012F4C07F16D10121DA6812F4406F13D1F8
:1017C80001204B4A934214D002F5806293420DD017
:1017D8001A46934210D07DB1062D0DD0072D0BD09F
:1017E800D2680AE00021E7E70020EAE7A2F5807264
:1017F800EFE74FF0A042ECE7DA6851B312F0007F50
:1018080003D030B312F4005F23D1196811F0400FF0
:101818001FD012F4001F1CD19A6812F0080F10D1C3
:101828005A6822F060025A60E36D23F48053E3653E
:10183800E36D13F4807F0CD1E36D43F00103E3659E
:1018480007E0E36D43F01003E365236E43F0010303
:101858002366204600F028FB236860221A6016F0F1
:10186800800F02D017F0800F36D116F4807F02D097
:1018780017F4807F42D116F4007F02D017F4007F5E
:1018880048D116F0100F20D017F0100F1DD0E36BC1
:101898006BB1002D4ED02368B3F1A04F48D0144A45
:1018A800934243D0134B9B6813F4604F0AD0E36D07
:1018B80043F48063E365236E43F002032366204606
:1018C800FFF7DCFE236810221A6016F4806F02D03E
:1018D80017F4806F34D1F8BDE36D43F48033E365CA
:1018E8002046FFF7CAFE236880221A60BDE700BFC2
:1018F800000100500007005000030050E36D43F45E
:101908000033E365204600F0D1FA23684FF4807273
:101918001A60B0E7E36D43F48023E365204600F0E6
:10192800C6FA23684FF400721A60AAE70C4BBAE7AC
:101938000B4BB8E72368DB6813F0010FC2D0B6E79A
:10194800E36D43F48043E365236E43F008032366A5
:1019580023684FF480621A60204600F0A6FABAE7BE
:1019680000030050F0B583B00022019290F858208F
:10197800012A00F08A820346012280F8582005686F
:10198800A86810F0040F09D0DA6D42F02002DA6579
:101998000120002283F8582003B0F0BD4C68303590
:1019A800220A920002F00C02A85804F01F0E1F240D
:1019B80004FA0EF420EA04000C68C4F3846C0CFAF0
:1019C8000EFC40EA0C00A8501868826812F0040265
:1019D80000D00122846814F0080400D00124002AF1
:1019E80050D1002C4ED18F68B7F1004F00F08B809A
:1019F8000E681430720E920002F004028558C6F385
:101A0800045E4FF0070C0CFA0EFC25EA0C0C07FAE2
:101A18000EF54CEA050585501868426922F0004227
:101A280042614D691868C268C2F3C102520005FAE2
:101A380002F20E69042E7ED0603050F82670AD4D4B
:101A48003D400F6807F0F8473A43154345F0004515
:101A580040F826501A680E698869603252F8265094
:101A680025F08075284342F826001A680D69087F1A
:101A780001285DD0603252F8250020F00070044340
:101A880042F825401868826812F0010F17D10A68D9
:101A9800CD68D0F8B040C2F3120C24EA0C0405F06B
:101AA800180C954D25FA0CF52A40C2F31202224370
:101AB800C0F8B020C868914A904200F0A4800A6833
:101AC8008F490A4200F0D7811968B1F1A04F00F0A0
:101AD8006E818C48814200F067818B48806800F0F5
:101AE800E0748A4DAA4200F06481894DAA4200F050
:101AF8006081884DAA4200F08F81874DAA4200F08C
:101B0800A581002045E70D6814306A0E920002F0A6
:101B180004028658C5F30455072707FA05F526EA8F
:101B2800050585501868426942F00042426178E72D
:101B38004FF000749EE7026E046EC4F384640A6872
:101B4800C2F3120585BBC2F38462944234D01C6888
:101B5800626E606EC0F384600A68C2F3120585BBCA
:101B6800C2F38462904234D01C68A26EA06EC0F3A7
:101B780084600A68C2F3120585BBC2F3846290428E
:101B880034D01C68E26EE06EC0F384600A68C2F369
:101B9800120585BBC2F3846290427FF473AFE26E94
:101BA80022F00042E2666DE792FAA2F212B1B2FAAE
:101BB80082F2CAE72022C8E7026E22F000420266DB
:101BC800C5E792FAA2F212B1B2FA82F2CAE720226B
:101BD800C8E7626E22F000426266C5E792FAA2F296
:101BE80012B1B2FA82F2CAE72022C8E7A26E22F046
:101BF8000042A266C5E792FAA2F212B1B2FA82F2E4
:101C0800CAE72022C8E71C680A68C2F31205002D3B
:101C180038D1900E013000F01F0009288CBF002039
:101C2800012000287AD0002D3BD1900E013080068B
:101C380000F0F840002D40D1960E013606F01F073F
:101C48000126BE403043002D45D1920E013202F0EC
:101C58001F0202EB420212050243886804F11406CF
:101C6800550EAD0005F004057459C2F304524FF047
:101C7800070C0CFA02FC24EA0C0C90404CEA000019
:101C880070511CE792FAA2F048B1B0FA80F0013026
:101C980000F01F0009288CBF00200120C1E7202088
:101CA800F5E792FAA2F030B1B0FA80F00130800680
:101CB80000F0F840BEE72020F8E792FAA2F646B115
:101CC800B6FA86F6013606F01F06012707FA06F669
:101CD800B8E72026F6E792FAA2F242B1B2FA82F207
:101CE800013202F01F0202EB42021205B4E7202281
:101CF800F6E700BF00F0FF03FFFF070000007F408A
:101D0800000008800001005000070050000021C3B7
:101D18001000C090000052C7000084CBCDB9900ECF
:101D28000130800600F0F840FDB9960E013606F045
:101D38001F070126BE4030432DBB920E013202F030
:101D48001F0202EB42021E3A120542F000720243E1
:101D580083E792FAA2F030B1B0FA80F00130800641
:101D680000F0F840E0E72020F8E792FAA2F646B142
:101D7800B6FA86F6013606F01F06012707FA06F6B8
:101D8800D9E72026F6E792FAA2F25AB1B2FA82F21D
:101D9800013202F01F0202EB42021E3A120542F023
:101DA8000072D4E72022F3E700F5007096E6384881
:101DB80094E610F4000F7FF49CAEB1F1A04F04D06C
:101DC800344A914201D00020E3E5B1F1A04F19D087
:101DD800314A914214D0314944F400048A6822F00F
:101DE800E07214438C602E4A126892092D49A1FBB7
:101DF80002129209013202EB42029200019206E0BD
:101E08002349E9E72249E7E7019A013A0192019A51
:101E1800002AF9D10020BCE510F0807F7FF46DAE78
:101E28001D4A914229D002F58062914227D0B1F132
:101E3800A04F09D0194844F08072816821F0E07100
:101E48000A4382600020A4E51148F4E710F4800FEB
:101E580017D1114A914216D0B1F1A04F09D00F48BD
:101E680044F48002816821F0E0710A438260002016
:101E78008FE50748F4E700208BE5002089E500207E
:101E880087E5002085E5002083E5022084E500BF82
:101E980000030050000600500001005000070050E9
:101EA80008000020632D3E05704770477047704753
:101EB8007047000090F85820012A00F0D68010B42E
:101EC8009DB00346012280F85820002218921992EA
:101ED8000068B0F1A04F47D0654A904247D0002231
:101EE8000192019A002A46D0926812F0040200D0AA
:101EF8000122846814F0040F40F0A780002A40F003
:101F0800A480B0F1A04F42D05A4A90423CD05A4ADD
:101F1800086800285CD0906820F460404C6893F80A
:101F280038C044EA4C34204390601868B0F1A04FA0
:101F38002FD0504CA0422CD04D48846814F0010496
:101F480000D001244D48806810F0010000D0012025
:101F580020434B4CA46814F0010400D00124204312
:101F68000CBF0120002025E0424A0192B9E702F5A2
:101F780080720192B5E7DA6D42F02002DA6500223C
:101F880083F85820012068E002F50072C0E73D4A56
:101F9800BEE74FF0A040806810F0010000D001209B
:101FA800344CA46814F0010400D0012420430CBF71
:101FB80001200020002854D0906820F4716020F09F
:101FC8000F000C688968214308439060002041E0B5
:101FD800916821F4604191601968B1F1A04F1AD05D
:101FE8002448814217D02249886810F0010000D0A7
:101FF80001202249896811F0010100D00121014323
:102008001F48806810F0010000D0012001430CBF78
:102018000121002110E04FF0A041896811F0010171
:1020280000D001211348806810F0010000D0012081
:1020380001430CBF01210021A9B1916821F471610C
:1020480021F00F019160002004E0DA6D42F02002D7
:10205800DA650120002283F858201DB05DF8044B92
:1020680070470020F6E70020F4E70220704700BF21
:102078000004005000010050000700500005005007
:102088000006005000030050104B1B680BB90120DC
:10209800704710B504464FF47A70B0FBF3F30C4A5E
:1020A8001068B0FBF3F001F067F868B90F2C01D99C
:1020B80001200AE0002221464FF0FF3001F016F817
:1020C800044B1C60002000E0012010BD000000202F
:1020D800080000200400002010B5032000F0F4FFE1
:1020E8000F20FFF7D1FF10B10124204610BD044690
:1020F800FEF788FFF9E70000034A136803490968F7
:102108000B441360704700BF8C05002000000020BE
:10211800014B1868704700BF8C050020014BD3F8AD
:10212800900570470070FF1F014BD3F89405704766
:102138000070FF1F014BD3F8980570470070FF1F10
:10214800124BDA6802F00302D868C0F30310431C8C
:10215800032A11D00E48B0FBF3F00C4BDB68C3F335
:10216800062303FB00F0094BDB68C3F3416301332B
:102178005B00B0FBF3F070470548B0FBF3F0034B8E
:10218800DB68C3F3062303FB00F0ECE70010024012
:102198000024F400002800F04F8270B582B0044695
:1021A800036813F0010F37D0A44A936803F00C03B7
:1021B800D26802F003020C2B23D0082B23D06368CB
:1021C800B3F5803F4ED0B3F5A02F51D09B4B1A6882
:1021D80022F480321A601A6822F480221A60636836
:1021E800002B52D0FFF794FF0546944B1B6813F45D
:1021F800003F11D1FFF78CFF401B6428F5D903205D
:1022080023E2032AD9D18D4B1B6813F4003F03D076
:102218006368002B00F01282236813F0020F5DD070
:10222800864A936803F00C03D26802F003020C2B71
:102238003AD0042B3AD0E368002B75D07F4A136854
:1022480043F480731360FFF763FF05467B4B1B68FD
:1022580013F4806F5FD1FFF75BFF401B0228F5D9AD
:102268000320F2E1754A136843F480331360B6E73C
:1022780003F18043A3F53C331A6842F480221A60C4
:102288001A6842F480321A60A9E7FFF741FF054651
:102298006A4B1B6813F4003FBED0FFF739FF401BA1
:1022A8006428F5D90320D0E1022AC2D1634B1B6808
:1022B80013F4806F03D0E368002B00F0C1815F4AFC
:1022C800536823F0FE43216943EA016353605C4B82
:1022D8001868FFF7D9FE002840F0B481236813F08E
:1022E800080F4CD063699BB3544AD2F8943043F03A
:1022F8000103C2F89430FFF70BFF05464F4BD3F8A4
:10230800943013F0020F3AD1FFF702FF401B022866
:10231800F4D9032099E1494A536823F0FE4321691F
:1023280043EA01635360D9E7444A136823F480738E
:102338001360FFF7EDFE0546404B1B6813F4806FF2
:10234800CCD0FFF7E5FE401B0228F5D903207CE13D
:102358003A4AD2F8943023F00103C2F89430FFF7D8
:10236800D7FE0546354BD3F8943013F0020F06D04C
:10237800FFF7CEFE401B0228F4D9032065E123684D
:1023880013F0040F00F081802C4B9B6D13F0805FDD
:1023980036D12A4B9A6D42F080529A659B6D03F0B4
:1023A80080530193019B0125264B1B6813F4807F02
:1023B80028D0A368012B39D0052B45D01F4BD3F863
:1023C800902022F00102C3F89020D3F8902022F048
:1023D8000402C3F89020A368002B43D0FFF798FEAF
:1023E8000646164BD3F8903013F0020F4CD1FFF786
:1023F8008FFE801B41F288339842F2D9032024E1F2
:102408000025D1E70F4A136843F480731360FFF780
:102418007FFE06460B4B1B6813F4807FC9D1FFF77C
:1024280077FE801B0228F5D903200EE1034AD2F873
:10243800903043F00103C2F89030CCE7001002401E
:102448000400002000700040884BD3F8902042F030
:102458000402C3F89020D3F8902042F00102C3F898
:102468009020B8E7FFF754FE0646804BD3F890302B
:1024780013F0020F08D0FFF74BFE801B41F28833A0
:102488009842F2D90320E0E0E5B9236813F0200F61
:1024980035D0A369E3B1754AD2F8983043F0010307
:1024A800C2F89830FFF734FE0546704BD3F89830E1
:1024B80013F0020F23D1FFF72BFE401B0228F4D99B
:1024C8000320C2E0694A936D23F080539365DCE7EB
:1024D800664AD2F8983023F00103C2F89830FFF723
:1024E80017FE0546614BD3F8983013F0020F06D05B
:1024F800FFF70EFE401B0228F4D90320A5E0E3698C
:10250800002B00F0A180594A926802F00C020C2AB4
:1025180064D0022B13D0554A136823F080731360DC
:10252800FFF7F6FD0446514B1B6813F0007F4ED0B1
:10253800FFF7EEFD001B0228F5D9032085E04B4A82
:10254800136823F080731360FFF7E2FD0546474BDD
:102558001B6813F0007F06D0FFF7DAFD401B022846
:10256800F5D9032071E0414AD36841491940236AEB
:10257800606A013843EA0013A06A43EA0023206B2B
:102588004008013843EA4053606B4008013843EA89
:102598004063E06A43EAC0630B43D360136843F0C7
:1025A80080731360D36843F08073D360FFF7B0FD86
:1025B80004462E4B1B6813F0007F06D1FFF7A8FDD9
:1025C800001B0228F5D903203FE000203DE0274A00
:1025D800D168284B0B40D360002036E0012B36D061
:1025E800224BDB6803F00301226A914231D103F0E8
:1025F800F002616A0139B2EB011F2CD103F4FE42EB
:10260800A16AB2EB012F28D103F07842E16AB2EB5C
:10261800C16F24D103F4C001226B5208013AB1EB17
:10262800425F1ED103F0C063626B5208013AB3EBFC
:10263800426F18D1002008E001207047012004E013
:10264800012002E0012000E0002002B070BD01205E
:10265800FBE70120F9E70120F7E70120F5E7012072
:10266800F3E70120F1E70120EFE700BF0010024087
:102678000C809F01FCFFEEFE1E4B9B6803F00C03D1
:10268800042B33D01B4B9B6803F00C03082B2FD073
:10269800184B9B6803F00C030C2B01D000207047EB
:1026A800144BDA6802F00302D868C0F30310431C25
:1026B800032A11D01048B0FBF3F00E4BDB68C3F3CC
:1026C800062303FB00F00B4BDB68C3F341630133C4
:1026D8005B00B0FBF3F070470748B0FBF3F0054B25
:1026E800DB68C3F3062303FB00F0ECE702487047FE
:1026F80001487047001002400024F400002800F050
:10270800E680F8B50C460546744B1B6803F00F03CA
:102718008B420BD2714A136823F00F030B431360EB
:10272800136803F00F038B4240F0D3802E6816F035
:1027380001065FD06B68032B2FD0022B4DD0684B5E
:102748001B6813F4806F00F0C680FFF795FF654B98
:1027580098424DD9624A936823F0F00343F080030E
:10276800936080265E4A936823F0030369680B43ED
:102778009360FFF7CDFC0746594B9B6803F00C03A9
:102788006A68B3EB820F35D0FFF7C2FCC01B41F279
:1027980088339842F0D9032078E0514B1B6813F036
:1027A800007F01D1012071E0FFF7CAFC4D4B984230
:1027B8001AD94B4B9B6813F0F00F05D02E6816F012
:1027C8000206CFD0AB688BB9454A936823F0F00373
:1027D80043F0800393608026C4E7414B1B6813F4E1
:1027E800003FB2D1012051E00026BBE70026B9E73F
:1027F8000026B7E72B6813F0020F48D013F0040F38
:1028080004D0374A936843F4E06393602B6813F06D
:10281800080F06D0324A936823F47C5343F4E063EC
:1028280093602F4A936823F0F003A9680B439360E1
:102838002A4B1B6803F00F03A34230D82B6813F010
:10284800040F06D0264A936823F4E063E9680B4333
:1028580093602B6813F0080F07D0214A936823F47C
:102868006053296943EAC1039360FFF705FF1C4BD6
:102878009B68C3F303131C4AD35C03F01F03D840BF
:102888001A4B18601A4B1868FFF7FEFBF8BD802E2C
:10289800CED1134A936823F0F0039360C8E70F4A38
:1028A800136823F00F0323431360FFF731FC064638
:1028B8000A4B1B6803F00F03A342BFD0FFF728FCA5
:1028C800801B41F288339842F2D90320DEE70120C9
:1028D80070470120DAE70120D8E700BF0020024056
:1028E8000010024000B4C4046C5500080800002021
:1028F80004000020014B1868704700BF0800002042
:1029080008B5FFF7F7FF054B9B68C3F30223044A9A
:10291800D35C03F01F03D84008BD00BF001002407D
:102928007C55000808B5FFF7E5FF054B9B68C3F326
:10293800C223044AD35C03F01F03D84008BD00BF7C
:10294800001002407C550008F0B583B004460368C7
:1029580013F4002F6ED0354B9B6D13F0805F1ED1A2
:10296800324B9A6D42F080529A659B6D03F080530A
:102978000193019B01262E4A136843F48073136068
:10298800FFF7C6FB05462A4B1B6813F4807F08D166
:10299800FFF7BEFB401B0228F5D9032502E00026FD
:1029A800E9E7002545BB214BD3F8903013F4407379
:1029B80015D0226D9A4212D01C4AD2F8903023F4D6
:1029C8004073D2F8901041F48031C2F89010D2F8D8
:1029D800901021F48031C2F89010C2F8903013F0B2
:1029E800010F10D145B9114AD2F8903023F4407341
:1029F800216D0B43C2F89030EEB10C4A936D23F071
:102A08008053936517E0FFF783FB0746074BD3F81E
:102A1800903013F0020FE5D1FFF77AFBC01B41F2AB
:102A280088339842F2D90325DCE700BF0010024042
:102A3800007000400025236813F0010F08D09F4A5A
:102A4800D2F8883023F0030361680B43C2F888305A
:102A5800236813F0020F08D0984AD2F8883023F080
:102A68000C03A1680B43C2F88830236813F0040FE5
:102A780008D0924AD2F8883023F03003E1680B433B
:102A8800C2F88830236813F0080F08D08B4AD2F8B0
:102A9800883023F0C00321690B43C2F888302368CB
:102AA80013F0100F08D0854AD2F8883023F4407309
:102AB80061690B43C2F88830236813F0200F08D0EF
:102AC8007E4AD2F8883023F44063A1690B43C2F8E8
:102AD8008830236813F0400F08D0784AD2F888303D
:102AE80023F44053E1690B43C2F88830236813F09C
:102AF800800F08D0714AD2F8883023F44043216A05
:102B08000B43C2F88830236813F4807F08D06B4ADF
:102B1800D2F8883023F44033616A0B43C2F8883016
:102B2800236813F4003F08D0644AD2F89C3023F09D
:102B38000303A16A0B43C2F89C30236813F4007F97
:102B480008D05E4AD2F8883023F44023E16A0B4368
:102B5800C2F88830236813F4806F0CD0574AD2F833
:102B6800883023F44013216B0B43C2F88830236B61
:102B7800B3F5801F79D0236813F4006F0CD04F4A47
:102B8800D2F8883023F44003616B0B43C2F88830D5
:102B9800636BB3F5800F6DD0236813F4805F0CD09E
:102BA800464AD2F8883023F04073A16B0B43C2F831
:102BB8008830A36BB3F1807F61D0236813F4005F82
:102BC8000CD03E4AD2F8883023F04063E16B0B43C7
:102BD800C2F88830E36BB3F1006F55D0236813F463
:102BE800804F0CD0354AD2F8883023F04063216CEE
:102BF8000B43C2F88830236CB3F1006F49D02368C7
:102C080013F4004F0CD02D4AD2F8883023F04053EB
:102C1800616C0B43C2F88830636CB3F1805F3DD0C0
:102C2800236813F4803F0CD0244AD2F8883023F06C
:102C38004043A16C0B43C2F88830A36CB3F1804FBA
:102C480031D0236813F4802F0CD01C4AD2F89C3062
:102C580023F44013E16C0B43C2F89C30E36CB3F5EA
:102C6800001F25D0284603B0F0BDD36843F4801375
:102C7800D36080E7D36843F48013D3608CE7D368CC
:102C880043F48013D36098E7D36843F48013D36088
:102C9800A4E7D36843F48013D360B0E7D36843F460
:102CA8008033D360BCE7D36843F48033D360C8E78C
:102CB800D36843F48013D360D4E700BF0010024008
:102CC800F0B583B0002366E085685E000324B44055
:102CD80025EA0405CC68B4402C438460446824EA9F
:102CE8000C0C4C68C4F300149C4044EA0C04446087
:102CF80062E08C68012C64D172E0DD08083550F878
:102D0800256003F007044FEA840C0F2404FA0CF43E
:102D180026EA040E0C6904FA0CF444EA0E0440F89E
:102D2800254062E0052400E0002404FA0EF42C4358
:102D38000CF1020C564D45F82C40564CA568D4436E
:102D480025EA02064F6817F4801F01D042EA0506FB
:102D5800504DAE60ED6804EA05064F6817F4001F91
:102D680001D042EA05064B4DEE606D6804EA05069F
:102D78004F6817F4003F01D042EA0506454D6E60E2
:102D88002D682C404E6816F4803F01D042EA0504B5
:102D9800404A146001330A6832FA03F476D04FF0DF
:102DA800010C0CFA03FC1CEA0202F3D04C6804F094
:102DB8000304013C012C87D94C6804F00304032C5C
:102DC80097D0C4684FEA430E4FF0030C0CFA0EFC80
:102DD80024EA0C0C8C6804FA0EF444EA0C04C4606F
:102DE8004C6804F00304022C87D004684FEA430EB1
:102DF8004FF0030C0CFA0EFC24EA0C0C4C6804F09F
:102E0800030404FA0EF444EA0C0404604C6814F455
:102E1800403FBFD0204C256E45F001052566246E45
:102E280004F001040194019C4FEA930C0CF1020593
:102E3800174C54F8255003F003044FEA840E0F246E
:102E480004FA0EF425EA0405B0F1904F3FF46CAF94
:102E5800124CA04212D004F58064A04210D004F5B0
:102E68008064A0420ED004F58064A0420CD004F522
:102E78008064A0423FF456AF062456E7012454E785
:102E8800022452E7032450E704244EE703B0F0BDC0
:102E98000000014000040140001002400004004806
:102EA8000369194201D001207047002070470AB118
:102EB80081617047816270470346002834D090F8DA
:102EC8002520D2B2022A09D00422C263012001229D
:102ED80083F82520002283F82420704701680A68B7
:102EE80022F001020A6001680A6822F00E020A60F4
:102EF800816C0A6822F480720A60426C02F01F0139
:102F0800006C01228A404260DA6C196D51605A6D7A
:102F180042B1116821F4807111609A6DD96D5160C8
:102F28000020D4E70020D2E70120704708B590F8C8
:102F38002530DBB2022B09D00423C363012380F8B8
:102F48002530002280F82420184608BD026813683E
:102F580023F0010313600268136823F00E03136063
:102F6800826C136823F480731360436C03F01F02B0
:102F7800016C012393404B60C36C026D5A60436D32
:102F880033B11A6822F480721A60836DC26D5A6078
:102F9800012380F82530002380F82430836B13B197
:102FA80098470020D1E70020CFE70000002836D15D
:102FB8003E4B1B6803F4C063B3F5806F08D03B4AEF
:102FC800D2F8803023F48073C2F880300020704734
:102FD800364AD2F8803023F48073C2F88030136800
:102FE80023F4C06343F400731360314B1B6832222F
:102FF80002FB03F32F4AA2FB03239B0C013300E0DF
:10300800013B2A4A526912F4806F01D0002BF7D194
:10301800264B5B6913F4806F44D100207047B0F5EC
:10302800007F08D0214A136823F4C06343F4806307
:103038001360002070471D4B1B6803F4C063B3F591
:10304800806F08D0194AD2F8803043F48073C2F8F0
:10305800803000207047154AD2F8803043F48073DE
:10306800C2F88030136823F4C06343F4007313601C
:103078000F4B1B68322202FB03F30E4AA2FB032309
:103088009B0C013300E0013B084A526912F4806F3F
:1030980001D0002BF7D1054B5B6913F4806F03D186
:1030A80000207047032070470320704700700040DD
:1030B8000800002083DE1B43024A936843F48043E0
:1030C8009360704700700040074AD36823F4E063B8
:1030D8001B041B0C000200F4E060034343F0BF63D1
:1030E80043F40033D360704700ED00E000B5194B9E
:1030F800DB68C3F30223C3F1070CBCF1040F28BF3C
:103108004FF0040C03F1040EBEF1060F18D9033B6F
:103118004FF0FF3E0EFA0CFC21EA0C0199400EFA22
:1031280003F322EA0303194300280BDB0901C9B2A0
:1031380000F1604000F5614080F800135DF804FB81
:103148000023E5E700F00F000901C9B2024B19544A
:10315800F4E700BF00ED00E014ED00E0002807DB15
:1031680000F01F02400901239340024A42F8203030
:10317800704700BF00E100E00138B0F1807F0BD25A
:103188004FF0E0235861054AF02182F8231000200F
:10319800986107221A6170470120704700ED00E02E
:1031A80000286FD010B50446436A33B94368B3F5B5
:1031B800827F05D00023C36102E0002303614361DD
:1031C8000023A36294F85D30002B52D0022384F8C8
:1031D8005D302268136823F040031360E368B3F599
:1031E800E06F4CD90022B3F5706F04D0B3F5E06FEF
:1031F80001D00023A362636803F48273A16801F419
:1032080004410B43216901F002010B43616901F09C
:1032180001010B43A16901F400710B43E16901F05D
:1032280038010B43216A01F080010B43A16A01F4C4
:10323800005120680B430360638B03F00403616A49
:1032480001F010010B43616B01F008010B43E168C9
:1032580001F470610B43216813434B602268D36902
:1032680023F40063D36100202066012384F85D30D5
:1032780010BD84F85C302046FDF78AFFA6E74FF4BE
:103288008052B0E70120704730B4036A026A22F026
:10329800010202624568826922F4803222F07302D8
:1032A8000C68224323F002038C682343224CA0427B
:1032B80013D004F50064A0420FD004F54064A04286
:1032C8000BD004F58064A04207D004F58064A042C6
:1032D80003D004F50064A04207D1046A24F0040472
:1032E800046223F00803CC682343134CA04213D094
:1032F80004F50064A0420FD004F54064A0420BD04E
:1033080004F58064A04207D004F58064A04203D08D
:1033180004F50064A04207D125F4407C4C6944EAD6
:103328000C0C8D6945EA0C05456082614A68426368
:10333800036230BC704700BF002C014030B4036A00
:10334800026A22F4807202624468C26922F48032FE
:1033580022F073020D682A4323F400738D6843EA50
:1033680005231D4DA84207D005F50065A84203D0E6
:1033780005F5E055A84208D1056A25F4806505627F
:1033880023F40063CD6843EA0523134DA84213D004
:1033980005F50065A8420FD005F54065A8420BD099
:1033A80005F58065A84207D005F58065A84203D0D9
:1033B80005F50065A84207D124F440544D6944EA54
:1033C80005148D6944EA05144460C2614A68C26301
:1033D800036230BC704700BF002C014030B4036A60
:1033E800026A22F4805202624468C26922F0807242
:1033F80022F4E6420D6842EA052223F400538D6860
:1034080043EA05331C4DA84207D005F50065A842DC
:1034180003D005F5E055A84208D1056A25F4804592
:10342800056223F40043CD6843EA0533124DA842F0
:1034380013D005F50065A8420FD005F54065A842F0
:103448000BD005F58065A84207D005F58065A84230
:1034580003D005F50065A84207D124F440444D691E
:1034680044EA85148D6944EA85144460C2614A6857
:103478000264036230BC7047002C014030B4036A18
:10348800026A22F4803202624468026D22F48032B9
:1034980022F070020D682A4323F400338D6843EA52
:1034A8000543114DA84213D005F50065A8420FD079
:1034B80005F54065A8420BD005F58065A84207D000
:1034C80005F58065A84203D005F50065A84204D13A
:1034D80024F480344D6944EA0524446002654A684E
:1034E8008264036230BC7047002C014030B4036A28
:1034F800026A22F4801202624468026D22F080722D
:1035080022F4E0420D6842EA052223F400138D6894
:1035180043EA0553114DA84213D005F50065A842AA
:103528000FD005F54065A8420BD005F58065A84287
:1035380007D005F58065A84203D005F50065A842C7
:1035480004D124F480244D6944EA8524446002654A
:103558004A68C264036230BC704700BF002C014057
:1035680090F83D30DBB2012B3AD1022380F83D3090
:103578000268D36843F00103D36003681B4A93428F
:1035880020D0B3F1804F1DD0A2F59432934219D0C8
:1035980002F58062934215D002F58062934211D001
:1035A80002F5943293420DD002F54062934209D05D
:1035B80002F58052934205D01A6842F001021A605F
:1035C8000020704799680A4A0A40062A0AD0B2F5CC
:1035D800803F09D01A6842F001021A600020704743
:1035E800012070470020704700207047002C0140E0
:1035F80007000100704770477047704770B505466F
:103608000368DE681C6914F0020F10D016F0020F70
:103618000DD06FF002021A610123037703689B69DA
:1036280013F0030F7CD0FFF7E6FF00232B7714F08D
:10363800040F12D016F0040F0FD02B686FF004029D
:103648001A6102232B772B689B6913F4407F6DD096
:103658002846FFF7D0FF00232B7714F0080F12D06D
:1036680016F0080F0FD02B686FF008021A610423B8
:103678002B772B68DB6913F0030F5ED02846FFF722
:10368800BAFF00232B7714F0100F12D016F0100F8A
:103698000FD02B686FF010021A6108232B772B6864
:1036A800DB6913F4407F4FD02846FFF7A4FF0023BF
:1036B8002B7714F0010F02D016F0010F4BD114F440
:1036C800025F02D016F0800F4DD114F4807F02D033
:1036D80016F0800F4FD114F0400F02D016F0400FB3
:1036E80051D114F0200F02D016F0200F53D114F44A
:1036F800801F02D016F4801F55D114F4001F02D089
:1037080016F4001F57D114F4800F02D016F4800F5E
:1037180059D114F4000F02D016F4000F5BD170BD1C
:10372800FFF768FF2846FFF767FF7EE72846FFF7A1
:1037380061FF2846FFF760FF8DE72846FFF75AFF2D
:103748002846FFF759FF9CE72846FFF753FF28460E
:10375800FFF752FFABE72B686FF001021A612846AA
:10376800FDF7D6F9ABE72B686FF402521A612846C9
:1037780000F0CFFBA9E72B686FF480721A61284626
:1037880000F0C8FBA7E72B686FF040021A612846D3
:10379800FFF733FFA5E72B686FF020021A61284670
:1037A80000F0B6FBA3E72B686FF480121A61284675
:1037B80000F0B1FBA1E72B686FF400121A612846EC
:1037C80000F0AAFB9FE72B686FF480021A61284675
:1037D80000F0A3FB9DE72B686FF400021A612846EE
:1037E80000F09CFB9BE700000368384A904216D023
:1037F800B0F1804F13D0A2F5943290420FD002F569
:10380800806290420BD002F58062904207D002F5A8
:103818009432904203D002F5E052904203D123F053
:1038280070034A681343294A904222D0B0F1804F6E
:103838001FD0A2F5943290421BD002F580629042CC
:1038480017D002F58062904213D002F5943290426C
:103858000FD002F5406290420BD002F58062904290
:1038680007D002F58062904203D002F500629042D0
:1038780003D123F44073CA68134323F080034A69D1
:1038880013438A68C2620A688262104A904213D05F
:1038980002F5006290420FD002F5406290420BD0D0
:1038A80002F58062904207D002F58062904203D010
:1038B80002F50062904201D10A690263026842F08F
:1038C800040202600122426103607047002C01403B
:1038D80060B310B5044690F83D3013B3022384F862
:1038E8003D30214651F8040BFFF77EFF012384F891
:1038F800483084F83E3084F83F3084F8403084F80B
:10390800413084F8423084F8433084F8443084F8F5
:10391800453084F8463084F8473084F83D3000203C
:1039280010BD80F83C30FDF779FCD7E701207047DF
:1039380030B4036A026A22F01002026244688269A3
:1039480022F0807222F4E6420D6842EA052223F052
:1039580020038D6843EA05131C4DA84207D005F5DE
:103968000065A84203D005F5E055A84208D1056ACC
:1039780025F04005056223F08003CD6843EA05136E
:10398800124DA84213D005F50065A8420FD005F5E1
:103998004065A8420BD005F58065A84207D005F51B
:1039A8008065A84203D005F50065A84207D124F434
:1039B80040644D6944EA85048D6944EA850444609D
:1039C80082614A688263036230BC7047002C014000
:1039D80038B590F83C30012B00F0958004460D4630
:1039E800012380F83C30142A00F28880DFE802F0D6
:1039F8000B8686861F8686863486868648868686D1
:103A08005D86868671000068FFF73EFC2268936930
:103A180043F0080393612268936923F004039361D8
:103A28002268936929690B439361002067E0006865
:103A3800FFF77EFF2268936943F40063936122686D
:103A4800936923F48063936122689369296943EA3F
:103A580001239361002052E00068FFF76FFC2268A1
:103A6800D36943F00803D3612268D36923F00403C0
:103A7800D3612268D36929690B43D36100203EE0F2
:103A88000068FFF7ABFC2268D36943F40063D36195
:103A98002268D36923F48063D3612268D3692969D2
:103AA80043EA0123D361002029E00068FFF7E6FC20
:103AB8002268136D43F0080313652268136D23F021
:103AC800040313652268136D29690B4313650020ED
:103AD80015E00068FFF70AFD2268136D43F40063E0
:103AE80013652268136D23F4806313652268136DD0
:103AF800296943EA01231365002000E0012000231F
:103B080084F83C3038BD0220FCE701F01F01012396
:103B180003FA01FC036A23EA0C030362036A02FA4C
:103B280001F10B430362704710B5044608460029AB
:103B380053D194F83E30DBB2013B18BF0123002B70
:103B480040F0A080002873D1022384F83E3001227F
:103B580001462068FFF7D9FF23684D4A934213D0E6
:103B680002F5006293420FD002F5406293420BD0F7
:103B780002F58062934207D002F58062934203D037
:103B880002F50062934203D15A6C42F400425A642F
:103B980023683F4A934267D0B3F1804F64D0A2F5BF
:103BA8009432934260D002F5806293425CD002F571
:103BB8008062934258D002F59432934254D002F571
:103BC8004062934250D002F5805293424CD01A681A
:103BD80042F001021A60002055E004290CD008299F
:103BE80011D00C2916D010291BD094F84330DBB221
:103BF800013B18BF0123A2E794F83F30DBB2013B39
:103C080018BF01239BE794F84030DBB2013B18BF93
:103C1800012394E794F84130DBB2013B18BF01233C
:103C28008DE794F84230DBB2013B18BF012386E7E9
:103C3800042809D008280BD00C280DD010280FD044
:103C4800022384F8433082E7022384F83F307EE77A
:103C5800022384F840307AE7022384F8413076E77B
:103C6800022384F8423072E799680A4A0A40062A11
:103C78000AD0B2F5803F09D01A6842F001021A60F2
:103C8800002000E0012010BD0020FCE70020FAE73A
:103C9800002C01400700010001F00F01042303FA82
:103CA80001FC036A23EA0C030362036A02FA01F1C6
:103CB8000B4303627047000010B50446084600290C
:103CC8003BD194F84430DBB2013B18BF0123002BF1
:103CD8006AD100284AD1022384F8443004220146DC
:103CE8002068FFF7D9FF2268536C43F400435364FC
:103CF8002368304A934249D0B3F1804F46D0A2F5A9
:103D08009432934242D002F5806293423ED002F54B
:103D1800806293423AD002F59432934236D002F54B
:103D28004062934232D002F5805293422ED01A68F4
:103D380042F001021A60002037E0042908D008295F
:103D48000DD094F84730DBB2013B18BF0123BEE722
:103D580094F84530DBB2013B18BF0123B7E794F86C
:103D68004630DBB2013B18BF0123B0E7042805D079
:103D7800082807D0022384F84730AFE7022384F8E5
:103D88004530ABE7022384F84630A7E799680A4A2A
:103D98000A40062A0AD0B2F5803F09D01A6842F0D4
:103DA80001021A60002000E0012010BD0020FCE79D
:103DB8000020FAE7002C01400700010090F83C3091
:103DC800012B4CD030B4012380F83C30022380F81A
:103DD8003D30026853689468224DAA4207D005F521
:103DE8000065AA4203D005F5E055AA4203D123F4A1
:103DF80070034D682B4323F0007323F070030D68A4
:103E08002B4353600368174A93421AD0B3F1804F8B
:103E180017D0A2F59432934213D002F580629342F0
:103E28000FD002F5806293420BD002F59432934290
:103E380007D002F54062934203D002F580529342C4
:103E480004D124F080048A6814439C60012380F81C
:103E58003D30002380F83C30184630BC70470220C3
:103E6800704700BF002C014090F83C30012B4AD02D
:103E780010B4012380F83C30CB6823F440738A687F
:103E8800134323F480634A68134323F400630A68E6
:103E9800134323F480530A69134323F400534A69F4
:103EA800134323F480430A6B134323F470238A6972
:103EB80043EA024323F08053CA6913430268134C50
:103EC800A24207D004F50064A24203D004F5E054EE
:103ED800A24210D123F470038C6A43EA045323F0FE
:103EE80080730C6A234323F000734C6A234323F046
:103EF8000053C96A0B435364002380F83C301846CA
:103F08005DF8044B70470220704700BF002C014049
:103F1800704770477047704770477047704702682E
:103F280052E8003F23F4907342E800310029F6D1AB
:103F3800026802F1080353E8003F23F0805323F09E
:103F48000103083242E800310029F1D1C36E012B88
:103F580006D02023C0F88C300023C366436770471F
:103F6800026852E8003F23F0100342E800310029BC
:103F7800F6D1EEE7704708B5026852E8003F23F033
:103F8800400342E800310029F6D12023C0F88830E8
:103F980000238367FFF7EEFF08BD704708B5806A06
:103FA800FFF7FBFF08BD704770B504460168CB6991
:103FB80008688D6840F60F021A4008D113F0200FE8
:103FC80005D010F0200F34D115F0805F31D12AB11F
:103FD800A04A2A4033D1A04E304230D1E26E012AA5
:103FE80000F0C68013F4801F03D015F4800F40F052
:103FF800738113F0800F07D010F0800F40F07381A9
:1040080015F4000F40F06F8113F0400F03D010F04B
:10401800400F40F06F8113F4000F03D010F0804F71
:1040280040F06C8113F0807F02D00028C0F26A81D2
:1040380070BD636F002BFBD020469847F8E713F05C
:10404800010F09D010F4807F06D001260E62D4F843
:1040580090103143C4F8901013F0020F0BD015F0F4
:10406800010F08D0216802260E62D4F8901041F0A2
:104078000401C4F8901013F0040F0BD015F0010FD1
:1040880008D0216804260E62D4F8901041F002018D
:10409800C4F8901013F0080F0BD010F0200F00D1C7
:1040A8003AB1226808211162D4F890200A43C4F872
:1040B800902013F4006F0CD010F0806F09D02268A4
:1040C8004FF400611162D4F8902042F02002C4F845
:1040D8009020D4F89020002AAAD013F0200F09D0FD
:1040E80010F0200F02D115F0805F03D0636F0BB181
:1040F80020469847D4F8902023689B6813F0400F17
:1041080002D112F0280F2CD02046FFF708FF2368B1
:104118009B6813F0400F20D0226802F1080353E88F
:10412800003F23F04003083242E800310029F3D170
:10413800D4F880306BB1494A9A63D4F88000FEF70E
:10414800F5FE00283FF474AFD4F88000836B9847DD
:104158006EE72046FFF721FF6AE72046FFF71DFFBD
:1041680066E72046FFF719FF0023C4F890305FE7A1
:1041780013F0100F3FF436AF10F0100F3FF432AFCA
:1041880010230B6223689B6813F0400F68D0D4F8A3
:1041980080100A6853689BB2002B4AD0B4F85C00C0
:1041A800984246D9A4F85E300B681B6813F0200FBC
:1041B80032D1226852E8003F23F4807342E800318C
:1041C8000029F6D1226802F1080353E8003F23F0E2
:1041D8000103083242E800310029F3D1226802F1D4
:1041E800080353E8003F23F04003083242E8003157
:1041F8000029F3D12023C4F88C300023E366226819
:1042080052E8003F23F0100342E800310029F6D1BC
:10421800D4F88000FEF750FE02232367B4F85C1040
:10422800B4F85E309BB2C91A89B22046FFF7BBFECC
:10423800FEE6B4F85C1099427FF4FAAE136813F006
:10424800200F3FF4F5AE022323672046FFF7ABFEAD
:10425800EEE600BF0100001020010004A53F0008A1
:10426800B4F85C10B4F85E309BB2C91A89B2B4F8DD
:104278005E309BB2002B3FF4DBAE00293FF4D8AE92
:10428800226852E8003F23F4907342E80030002887
:10429800F6D1226802F1080353E8003F23F0805367
:1042A80023F00103083242E800300028F1D120232E
:1042B800C4F88C300023E3666367226852E8003F45
:1042C80023F0100342E800300028F6D102232367C8
:1042D8002046FFF768FEABE64FF480130B622046DA
:1042E80000F033FFA4E6A36F002B3FF4A1AE2046F5
:1042F80098479DE62046FFF73EFE99E6204600F0E7
:1043080026FF95E6204600F021FF91E608B5B0F8B3
:104318006030D0F88C20222A05D00268936943F0D7
:104328000803936108BD0268516ADBB2826D0B40D5
:104338001370836D01338365B0F85E309BB2013B27
:104348009BB2A0F85E30B0F85E309BB2002BE9D18A
:10435800026852E8003F23F4907342E800310029D4
:10436800F6D1026802F1080353E8003F23F0010385
:10437800083242E800310029F3D12023C0F88C30FC
:104388000023436703670368164A93420CD05B68AF
:1043980013F4000F08D0026852E8003F23F080634E
:1043A80042E800310029F6D1C36E012B16D1002353
:1043B800C366026852E8003F23F0100342E8003168
:1043C8000029F6D10368DA6912F0100F01D0102223
:1043D8001A62B0F85C10FFF7E6FDA3E7FCF7A4FB50
:1043E800A0E700BF0080004008B5B0F86020D0F812
:1043F8008C30222B05D00268936943F0080393613F
:1044080008BD03685B6A816D13400B80836D0233BE
:104418008365B0F85E309BB2013B9BB2A0F85E307A
:10442800B0F85E309BB2002BEAD1026852E8003F38
:1044380023F4907342E800310029F6D1026802F1B2
:10444800080353E8003F23F00103083242E8003133
:104458000029F3D12023C0F88C3000234367036779
:104468000368164A93420CD05B6813F4000F08D017
:10447800026852E8003F23F0806342E800310029D7
:10448800F6D1C36E012B16D10023C366026852E829
:10449800003F23F0100342E800310029F6D10368F9
:1044A800DA6912F0100F01D010221A62B0F85C100D
:1044B800FFF779FDA4E7FCF737FBA1E70080004090
:1044C8002DE9F843B0F860500368D3F81C90D3F88E
:1044D80000809F68D0F88C20222A05D09A6942F083
:1044E80008029A61BDE8F8830446B0F8686008E0FD
:1044F800D4F89030002B4DD1B4F85E309BB2002B2D
:104508004FD0002E00F0958019F0200F00F0918018
:104518002368596AEBB2A26D0B401370A36D013387
:10452800A365B4F85E309BB2013B9BB2A4F85E3041
:104538002368D3F81C9019F0070FDDD019F0010F8C
:1045480009D018F4807F06D001221A62D4F890307E
:104558001343C4F8903019F0020F0BD017F0010F75
:1045680008D0236802221A62D4F8903043F004037A
:10457800C4F8903019F0040FBAD017F0010FB7D073
:10458800236804221A62D4F8903043F00203C4F876
:104598009030ADE72046FFF700FD0023C4F89030C7
:1045A800AAE7226852E8003F23F4807342E800310A
:1045B8000029F6D1226802F1080353E8003F23F0EE
:1045C800805323F00103083242E800310029F1D179
:1045D8002023C4F88C300023636723672368284AA4
:1045E80093420CD05B6813F4000F08D0226852E89D
:1045F800003F23F0806342E800310029F6D1E36EE2
:10460800012B39D10023E366226852E8003F23F0EA
:10461800100342E800310029F6D12368DA6912F064
:10462800100F01D010221A62B4F85C102046FFF770
:10463800BAFCB4F85E309BB2002B3FF453AFB4F829
:1046480068209A427FF64EAF226802F1080353E8C9
:10465800003F23F08053083242E800310029F3D1AB
:10466800084B6367226852E8003F43F0200342E8A2
:1046780000310029F6D135E72046FCF755FAD8E78E
:1046880000800040154300082DE9F843B0F8605059
:104698000368D3F81C90D3F800809F68D0F88C206A
:1046A800222A05D09A6942F008029A61BDE8F88387
:1046B8000446B0F8686008E0D4F89030002B4CD17C
:1046C800B4F85E309BB2002B4ED0002E00F09480E0
:1046D80019F0200F00F0908023685B6AA26D2B40D0
:1046E8001380A36D0233A365B4F85E309BB2013B1F
:1046F8009BB2A4F85E302368D3F81C9019F0070F1A
:10470800DED019F0010F09D018F4807F06D00122FD
:104718001A62D4F890301343C4F8903019F0020F9D
:104728000BD017F0010F08D0236802221A62D4F8C0
:10473800903043F00403C4F8903019F0040FBBD054
:1047480017F0010FB8D0236804221A62D4F8903009
:1047580043F00203C4F89030AEE72046FFF71DFC93
:104768000023C4F89030ABE7226852E8003F23F4F6
:10477800807342E800310029F6D1226802F108036B
:1047880053E8003F23F0805323F00103083242E846
:1047980000310029F1D12023C4F88C30002363674D
:1047A80023672368284A93420CD05B6813F4000FF0
:1047B80008D0226852E8003F23F0806342E80031C5
:1047C8000029F6D1E36E012B39D10023E366226874
:1047D80052E8003F23F0100342E800310029F6D1E7
:1047E8002368DA6912F0100F01D010221A62B4F8A7
:1047F8005C102046FFF7D7FBB4F85E309BB2002B65
:104808003FF454AFB4F868209A427FF64FAF22685D
:1048180002F1080353E8003F23F08053083242E8CE
:1048280000310029F3D1094B6367226852E8003F41
:1048380043F0200342E800310029F6D136E720464C
:10484800FCF772F9D8E700BF00800040F143000888
:1048580070B50446016883680269134342691343CB
:10486800C26913430868964A024013430B602268E2
:10487800536823F44053E1680B435360A1692268ED
:10488800904B9A4201D0236A1943936823F06E43F0
:1048980023F430630B4393602268D36A23F00F0339
:1048A800616A0B43D3622368874A934210D0874AD0
:1048B800934221D0864A934237D0864A93425CD0AD
:1048C800854A93426BD07F4A93427DD010223AE0CA
:1048D80002F55842D2F8882002F00302032A09D8C8
:1048E800DFE802F00204870601222CE004222AE015
:1048F800082228E0102226E002F5E632D2F88820C5
:1049080002F00C020C2A0ED8DFE802F0070D0D0D9C
:10491800090D0D0D750D0D0D0B00002213E004227D
:1049280011E008220FE010220DE002F5E432D2F87F
:10493800882002F03002202A5FD01AD8002A5ED0E0
:10494800102A5ED104225F498B4276D0E069B0F527
:10495800004F00F0C980082A00F23481DFE812F025
:10496800F7001901F50032011C0132013201320150
:104978001F01302A47D10822E5E702F5E232D2F8D2
:10498800882002F0C002802A3FD004D8FAB3402A17
:104998003FD10422D7E7C02A3DD10822D3E702F548
:1049A800E032D2F8882002F44072B2F5007F34D0A9
:1049B80005D8A2B3B2F5807F33D10422C3E7B2F59C
:1049C800407F30D10822BEE702F5C832D2F88820ED
:1049D80002F44062B2F5006F27D005D83AB3B2F5B9
:1049E800806F26D10422AEE7B2F5406F23D10822AA
:1049F800A9E70222A7E70222A5E70222A3E70022ED
:104A0800A1E710229FE710229DE702229BE70022E0
:104A180099E7102297E7102295E7022293E70022F0
:104A280091E710228FE710228DE702228BE7002200
:104A380089E7102287E7102285E7082A00F2B2806A
:104A4800DFE802F008B03BB038B0B0B005004FF472
:104A5800004004E0FDF754FF002800F0A580626ADA
:104A68001E4B33F81220B0FBF2F3656805EB4501E5
:104A7800994200F29B80B3EB053F00F29980002633
:104A880033463146FBF75EFC090241EA1061000239
:104A98006B08C0182A46334641F10001FBF752FC67
:104AA800A0F540720E4B9A4200F284802368D860C9
:104AB800304665E0FDF7E0FDCEE70A48CFE700BFE6
:104AC800F369FFCF008000400038014000440040F7
:104AD80000480040004C0040005000404455000889
:104AE800FFFC0F000024F400082A65D8DFE802F074
:104AF800072705642A6464640B00354803E0FDF762
:104B0800FFFE00285AD0626A324B33F81230B0FBED
:104B1800F3F06268530803EB4000B0FBF2F0A0F139
:104B280010024FF6EF739A424AD883B223F00F036C
:104B3800C0F3420018432368D860002020E0FDF746
:104B4800F1FEDEE7FDF798FDDBE7214803E0FDF71E
:104B5800D7FE002838D0626A1E4B33F81230B0FBFB
:104B6800F3F0636800EB5300B0FBF3F0A0F1100220
:104B78004FF6EF739A4229D8236880B2D860002094
:104B88000123A4F86A30A4F8683000236367A36798
:104B980070BDFDF7C7FEDCE7FDF76EFDD9E74FF402
:104BA8000040D8E70120EBE70020E9E70120E7E72C
:104BB8000120E5E70120E3E70120E1E70020DFE746
:104BC8000120DDE70120DBE70020D9E70120D7E756
:104BD8000024F40044550008836A13F0080F06D037
:104BE8000268536823F40043816B0B435360836A64
:104BF80013F0010F06D00268536823F40033C16A2A
:104C08000B435360836A13F0020F06D0026853689F
:104C180023F48033016B0B435360836A13F0040F52
:104C280006D00268536823F48023416B0B4353601A
:104C3800836A13F0100F06D00268936823F4805338
:104C4800C16B0B439360836A13F0200F06D0026890
:104C5800936823F40053016C0B439360836A13F049
:104C6800400F0AD00268536823F48013416C0B4349
:104C78005360436CB3F5801F0BD0836A13F0800F29
:104C880006D00268536823F40023C16C0B435360B9
:104C980070470268536823F4C003816C0B43536068
:104CA800EBE72DE9F84305460E4617469946DDF829
:104CB80020802C68E46936EA04030CBF4FF0010C2D
:104CC8004FF0000CBC4536D1B8F1FF3FF1D0FDF7ED
:104CD8001FFAA0EB0900404530D8B8F1000F2FD0DB
:104CE8002B681A6812F0040FE3D0802EE1D0402E12
:104CF800DFD0DA6912F0080F11D1DA6912F4006F07
:104D0800D7D04FF400621A622846FFF708F920232B
:104D1800C5F89030002385F8843003200CE008247F
:104D28001C622846FFF7FBF8C5F89040002385F879
:104D38008430012000E00020BDE8F8830320FBE771
:104D48000320F9E72DE9F04182B01E46D0F88830FB
:104D5800202B60D104460D46904600295FD00AB941
:104D6800012059E00023C0F890302123C0F8883092
:104D7800FDF7CEF90746A4F85480A4F85680A36836
:104D8800B3F5805F02D04FF000081CE0236973B3CD
:104D98004FF0000817E02023C4F8883003203BE0D8
:104DA80038F8023B2268C3F308039362D4F88830CA
:104DB80003F02103212B34D1B4F8562092B2013AE2
:104DC80092B2A4F85620B4F856309BB293B100962C
:104DD8003B46002280212046FFF763FF0028DAD1F6
:104DE800002DDDD015F8012B23689A62DEE7A8466E
:104DF8000025E8E700963B46002240212046FFF7C1
:104E080050FF18B92023C4F8883005E02023C4F8DF
:104E18008830032000E0022002B0BDE8F0810120C4
:104E2800FAE70120F8E730B583B004460023C0F85C
:104E38009030FDF76DF905462268126812F0080FE8
:104E480010D123681B6813F0040F28D12023C4F85D
:104E58008830C4F88C300020E066206784F884002D
:104E680003B030BD6FF07E430093034600224FF439
:104E780000112046FFF715FF0028E2D0226852E80B
:104E8800003F23F0800342E800310029F6D12023B7
:104E9800C4F88830002384F884300320E0E76FF0FA
:104EA8007E4300932B4600224FF480012046FFF7F3
:104EB800F8FE0028CAD0226852E8003F23F4907315
:104EC80042E800310029F6D1226802F1080353E8CC
:104ED800003F23F00103083242E800310029F3D1F2
:104EE8002023C4F88C30002384F884300320B7E7EB
:104EF80010B48165A0F85C20A0F85E200023436709
:104F08008368B3F5805F06D0A3B9036973B9FF233B
:104F1800A0F8603014E0036923B940F2FF13A0F849
:104F280060300DE0FF23A0F8603009E07F23A0F88F
:104F3800603005E0B3F1805F2ED00023A0F8603028
:104F48000023C0F890302223C0F88C30016801F1AA
:104F5800080353E8003F43F00103083141E80034F7
:104F6800002CF3D1436EB3F1005F1FD08368B3F513
:104F7800805F43D0294B43670369002B44D0026804
:104F880052E8003F43F4907342E800310029F6D11B
:104F980000205DF8044B704703691BB97F23A0F814
:104FA8006030CDE73F23A0F86030C9E7B0F868303B
:104FB8009342DBD88368B3F5805F19D0184B4367F9
:104FC800036943B1026852E8003F43F4807342E842
:104FD80000310029F6D1026802F1080353E8003FC6
:104FE80043F08053083242E800310029F3D1CFE77B
:104FF8000369002BE2D10B4B4367E1E70369002B00
:10500800B8D1094B4367B7E7026852E8003F43F05D
:10501800200342E800310029F6D1B9E7154300081A
:10502800C944000891460008F143000838B5D0F893
:105038008C30202B17D1C1B1CAB10023C3660368D5
:105048000C4CA3420CD05B6813F4000F08D0046822
:1050580054E8003F43F0806344E80035002DF6D162
:10506800FFF746FF00E0022038BD0120FCE70120E1
:10507800FAE700BF00800040436E2BB90123A0F877
:105088006A30A0F86830704730B403689A68C2F391
:1050980042629968490F094D6B5CDB00084C615C02
:1050A80093FBF1F3A0F86A30AB5CDB00A25C93FBE6
:1050B800F2F3A0F8683030BC704700BF64550008B0
:1050C8005C55000800283ED0F8B50F4616461D4628
:1050D8000446D0F888306BB32423C4F8883022689B
:1050E800136823F001031360A36A43BB2046FFF74C
:1050F800AFFB01281DD02268936843F48043936076
:105108002368996821F400410F439F602D0445EA04
:10511800465523681A6822F07F7222F440322A43E7
:105128001A602268136843F0010313602046FFF7F2
:105138007AFEF8BD80F88430FCF7DCF8CCE720462E
:10514800FFF74AFDD2E70120704770477047704764
:1051580090F88430012B18D0012380F88430242360
:10516800C0F8883003681A68196821F001011960CD
:1051780022F000520023436601680A602022C0F82A
:10518800882080F88430184670470220704738B568
:1051980090F88430012B1DD00446012380F8843018
:1051A8002423C0F8883003681D681A6822F00102B9
:1051B8001A600268936823F0604319439160FFF70F
:1051C8005BFF23681D602023C4F88830002084F822
:1051D800840038BD0220FCE738B590F88430012BF4
:1051E8001DD00446012380F884302423C0F8883079
:1051F80003681D681A6822F001021A600268936841
:1052080023F0606319439160FFF736FF23681D6040
:105218002023C4F88830002084F8840038BD022098
:10522800FCE7002856D010B5044690F891323BB1FF
:10523800032384F89132206800F064F8002315E015
:1052480080F89032FCF7A0F8F2E703EB830204EB56
:10525800C2020121517413740021D1741162516288
:10526800013303EB8302D200A150DBB220799842CC
:10527800EBD8002316E003EB830204EBC202002103
:1052880082F8511182F8503182F85311C2F8601136
:10529800C2F8641103EB830204EBC202C2F868117E
:1052A8000133DBB29842E6D8234653F8040B93E85F
:1052B800060000F031F800232373012384F89132AB
:1052C800A37A012B01D0002010BD204600F004F87D
:1052D8000020F9E701207047034602680121C0F861
:1052E800D012002083F8C802B2F854309BB20B43A6
:1052F800A2F85430B2F854309BB243F00203A2F83B
:1053080054307047B0F8403023F47E535B045B0C94
:10531800A0F840300020704782B0034602A800E998
:1053280006000122A3F840200020A3F84000A3F8BB
:105338004400A3F8500002B070470000034AD2F8B6
:10534800883043F47003C2F88830704700ED00E0FD
:105358000D488546FFF7F2FF0C480D490D4A00231A
:1053680002E0D458C4500433C4188C42F9D30A4A12
:105378000A4C002301E013600432A242FBD3FAF77F
:105388006BFFFBF7A3FDFEE70000022000000020F2
:105398000C000020945500080C0000209005002007
:1053A800FEE70000F8B500BFF8BC08BC9E46704791
:0C53B800F8B500BFF8BC08BC9E4670476A
:1053C4000000000002F2853D9CA8053EACC5473EA6
:1053D400ED83843EA793A43E07EFC33EB473E23E3D
:1053E4000000003FD6390E3FC3D71B3FE6CA283F13
:1053F400F704353F9678403F2F194B3F38DB543F35
:10540400D0B35D3F7899653F66836C3F016A723F14
:10541400ED46773FBA147B3F57CF7D3FB0737F3F54
:105424000000803FB0737F3F57CF7D3FBA147B3F6E
:10543400ED46773F016A723F66836C3F7899653F1A
:10544400D0B35D3F38DB543F2F194B3F9678403F34
:10545400F704353FE6CA283FC3D71B3FD6390E3F72
:105464000000003FB473E23E07EFC33EA793A43E9F
:10547400ED83843EACC5473E9CA8053E02F2853DC3
:105484000000000002F285BD9CA805BEACC547BE65
:10549400ED8384BEA793A4BE07EFC3BEB473E2BE7C
:1054A400000000BFD6390EBFC3D71BBFE6CA28BF52
:1054B400F70435BF967840BF2F194BBF38DB54BF74
:1054C400D0B35DBF789965BF66836CBF016A72BF54
:1054D400ED4677BFBA147BBF57CF7DBFB0737FBF94
:1054E400000080BFB0737FBF57CF7DBFBA147BBFAE
:1054F400ED4677BF016A72BF66836CBF789965BF5A
:10550400D0B35DBF38DB54BF2F194BBF967840BF73
:10551400F70435BFE6CA28BFC3D71BBFD6390EBFB1
:10552400000000BFB473E2BE07EFC3BEA793A4BEDE
:10553400ED8384BEACC547BE9CA805BE02F285BD02
:10554400010002000400060008000A000C0010001C
:105554002000400080000001080402040801010149
:105564000101010307010000000000000000000029
:1055740001020304060708090000000001020304F5
:08558400F8ADFF7F01000000FB
:04558C0041020008D0
:0455900019020008F4
:0C55940001000000100000000024F400E2
:040000050800535943
:00000001FF
