:020000040800F2
:1000000000000220713E0008F50A0008F70A000807
:10001000F90A0008FB0A0008FD0A000800000000B9
:10002000000000000000000000000000FF0A0008BF
:10003000010B000800000000030B0008050B00087E
:10004000C13E0008C13E0008C13E0008C13E000894
:10005000C13E0008C13E0008C13E0008C13E000884
:10006000C13E0008C13E0008C13E0008C13E000874
:10007000C13E0008C13E0008C13E0008C13E000864
:10008000C13E0008C13E00080D0B0008C13E00083B
:10009000C13E0008C13E0008C13E0008C13E000844
:1000A000C13E0008C13E0008C13E0008C13E000834
:1000B000C13E0008C13E0008C13E0008C13E000824
:1000C000C13E0008C13E0008C13E0008C13E000814
:1000D000C13E0008C13E0008C13E0008C13E000804
:1000E000C13E0008C13E0008C13E0008C13E0008F4
:1000F000C13E0008C13E0008C13E0008C13E0008E4
:10010000C13E0008C13E0008C13E0008C13E0008D3
:10011000C13E0008C13E0008C13E0008C13E0008C3
:10012000C13E0008C13E0008C13E0008C13E0008B3
:10013000C13E0008C13E0008C13E0008C13E0008A3
:10014000C13E0008C13E0008C13E0008C13E000893
:10015000C13E0008C13E0008C13E0008C13E000883
:10016000C13E0008C13E0008C13E0008C13E000873
:10017000C13E0008C13E0008C13E0008C13E000863
:10018000C13E0008C13E0008C13E0008C13E000853
:10019000C13E000800000000C13E0008C13E00084A
:1001A000C13E0008C13E0008C13E0008C13E000833
:1001B000C13E0008C13E0008C13E0008C13E000823
:1001C000C13E0008C13E0008C13E0008C13E000813
:0801D000C13E0008C13E000819
:1001D8000348044B834202D0034B03B118477047CE
:1001E8000C0000200C000020000000000548064913
:1001F8000B1AD90F01EBA301491002D0034B03B12D
:10020800184770470C0000200C0000200000000078
:1002180010B5064C237843B9FFF7DAFF044B13B146
:100228000448AFF300800123237010BD0C000020A8
:1002380000000000C43E000808B5044B1BB1044987
:100248000448AFF30080BDE80840CFE70000000095
:1002580010000020C43E000870B50D4E0D4D761BF1
:10026800B61006D0002455F8043B01349847A6423E
:10027800F9D1094E094D761B03F020FEB61006D0C1
:10028800002455F8043B01349847A642F9D170BDC3
:10029800243F0008243F0008283F0008243F0008A6
:1002A800830730B548D0541E002A3FD0CAB203464F
:1002B80001E0013C3AD303F8012B9D07F9D1032C47
:1002C8002DD9CDB245EA05250F2C45EA054536D985
:1002D800A4F1100222F00F0C03F1200EE6444FEABD
:1002E800121C03F1100242E9045542E9025510328A
:1002F8007245F8D10CF1010214F00C0F03EB021255
:1003080004F00F0C13D0ACF1040323F003030433FF
:10031800134442F8045B9342FBD10CF003042CB164
:10032800CAB21C4403F8012B9C42FBD130BD644681
:100338001346002CF4D1F9E703461446BFE71A46E2
:10034800A446E0E753B94AB9002908BF00281CBFF2
:100358004FF0FF314FF0FF3000F074B9ADF1080CE9
:100368006DE904CE00F006F8DDF804E0DDE90223CB
:1003780004B070472DE9F047089D04468E46002BCF
:100388004DD18A42944669D9B2FA82F252B101FA41
:1003980002F3C2F1200120FA01F10CFA02FC41EA51
:1003A800030E94404FEA1C48210CBEFBF8F61FFAD6
:1003B8008CF708FB16E341EA034306FB07F1994271
:1003C8000AD91CEB030306F1FF3080F01F81994224
:1003D80040F21C81023E63445B1AA4B2B3FBF8F0FE
:1003E80008FB103344EA034400FB07F7A7420AD985
:1003F8001CEB040400F1FF3380F00A81A74240F2AD
:1004080007816444023840EA0640E41B00261DB117
:10041800D4400023C5E900433146BDE8F0878B424C
:1004280009D9002D00F0EF800026C5E9000130460B
:100438003146BDE8F087B3FA83F6002E4AD18B42E5
:1004480002D3824200F2F980841A61EB030301208F
:100458009E46002DE0D0C5E9004EDDE702B9FFDE7B
:10046800B2FA82F2002A40F09280A1EB0C014FEA26
:100478001C471FFA8CFE0126200CB1FBF7F307FB83
:10048800131140EA01410EFB03F0884208D91CEB26
:10049800010103F1FF3802D2884200F2CB804346C3
:1004A800091AA4B2B1FBF7F007FB101144EA0144A2
:1004B8000EFB00FEA64508D91CEB040400F1FF3131
:1004C80002D2A64500F2BB800846A4EB0E0440EA1F
:1004D80003409CE7C6F12007B34022FA07FC4CEA28
:1004E800030C20FA07F401FA06F31C43F9404FEA1B
:1004F8001C4900FA06F3B1FBF9F8200C1FFA8CFE30
:1005080009FB181140EA014108FB0EF0884202FA83
:1005180006F20BD91CEB010108F1FF3A80F0888044
:10052800884240F28580A8F102086144091AA4B201
:10053800B1FBF9F009FB101144EA014100FB0EFE82
:100548008E4508D91CEB010100F1FF346CD28E45B1
:100558006AD90238614440EA0840A0FB0294A1EB42
:100568000E01A142C846A64656D353D05DB1B3EB9F
:10057800080261EB0E0101FA07F722FA06F3F140CF
:100588001F43C5E9007100263146BDE8F087C2F176
:100598002003D8400CFA02FC21FA03F391400143EE
:1005A8004FEA1C471FFA8CFEB3FBF7F007FB103627
:1005B8000B0C43EA064300FB0EF69E4204FA02F4D3
:1005C80008D91CEB030300F1FF382FD29E422DD926
:1005D800023863449B1B89B2B3FBF7F607FB16335B
:1005E80041EA034106FB0EF38B4208D91CEB0101DB
:1005F80006F1FF3816D28B4214D9023E6144C91A5B
:1006080046EA004638E72E46284605E70646E3E66A
:100618001846F8E64B45A9D2B9EB020864EB0C0E74
:100628000138A3E74646EAE7204694E74046D1E783
:10063800D0467BE7023B614432E7304609E7644431
:10064800023842E7704700BFF0B58BB0002405942C
:100658000694079408940994374BDA6C42F0040224
:10066800DA64DA6C02F004020192019ADA6C42F060
:100678002002DA64DA6C02F020020292029ADA6C42
:1006880042F00102DA64DA6C02F001020392039A82
:10069800DA6C42F00202DA64DB6C03F002030493C2
:1006A800049B264F22464FF40051384602F005F9C4
:1006B800224648F210014FF0904002F0FEF8204D1B
:1006C80022464FF40771284602F0F7F84FF400531A
:1006D8000593012606960794089405A9384601F063
:1006E800F5FF48F21003059306960794089405A9A8
:1006F8004FF0904001F0EAFF4FF407730593069618
:100708000794089405A9284601F0E0FF4FF4806398
:1007180005934FF488130693079405A9284601F01A
:10072800D5FF202305930694079405A9284601F0D0
:10073800CDFF0BB0F0BD00BF00100240000800481C
:100748000004004872B6FEE710B58CB00024099486
:100758000A940B942022214601A8FFF7A1FD1E4808
:100768004FF0A04303604FF4003343608460C460DB
:10077800046144610423836104774477012303629D
:1007880080F82440C462046380F83840C46380F869
:10079800404000F03BFBC8B90023099309A90E4863
:1007A80001F0A0F8A0B90D4B019306230293002392
:1007B80003937F2204920422059206930DEB020113
:1007C800054800F0E7FD28B90CB010BDFFF7BAFFE7
:1007D800FFF7B8FFFFF7B6FF28000020020030043B
:1007E80010B598B000241594169417940E940F948D
:1007F800109411941294139414943422214601A84D
:10080800FFF74EFD2F48304B036044602023836080
:100818004FF4C873C36004614461846102F0A0FBB3
:10082800002842D12023159300231693179315A966
:10083800244802F00BFE002839D160230E930022D1
:100848000F92109211921292139214920EA91D48AF
:1008580002F006FC00282CD104220EA9194802F047
:10086800FFFB40BB08220EA9164802F0F9FB20BB8B
:1008780000230193029303930522049205934FF4F6
:10088800005206920793089309934FF000720A9258
:100898000B930C930D9301A90A4802F02DFE70B931
:1008A800084800F0F9F918B010BDFFF74BFFFFF743
:1008B80049FFFFF747FFFFF745FFFFF743FFFFF744
:1008C80041FF00BFD4030020002C014008B50948AF
:1008D800094B03600823037102234371C37100238A
:1008E800037243728372C37203F027FA00B908BD1A
:1008F800FFF728FF94000020005C004008B5154869
:10090800154B03604FF4E133436000238360C360F9
:1009180003610C2242618361C361036243628362A3
:1009280003F049F970B900210A4803F0BCF958B935
:100938000021084803F0DCF940B9064803F094F9AF
:1009480030B908BDFFF7FEFEFFF7FCFEFFF7FAFE21
:10095800FFF7F8FE200400200038014008B50F48D2
:100968000F4B03604FF482734360002383604FF49E
:100978004072C260036143614FF400728261C361D7
:100988000362436283620722C262036308234363EC
:1009980002F092F800B908BDFFF7D4FE70030020FA
:1009A8000030014000B595B03822002106A8FFF7B5
:1009B80077FC0023019302930393049305934FF468
:1009C800007001F07FFF022306934FF480720992B2
:1009D80040220A920D930E9301220F920C2210923C
:1009E800119304221292139306A801F0D9F870B952
:1009F8000F23019301230293002103910491059190
:100A080001A801F081FB20B915B05DF804FBFFF7E0
:100A180099FEFFF797FE000000B587B001F074F863
:100A2800FFF7C0FFFFF710FEFFF78EFEFFF7D8FEB7
:100A3800FFF74CFFFFF762FFFFF790FF294C0122F9
:100A48001146204601F039FF0025019502950395CE
:100A58000495059501260196029601A9204601F004
:100A680035FE32461021204601F027FF1E4C236830
:100A780050225A639A63DA632946204602F09CFBA7
:100A88002946204602F060FC0421204602F094FB2F
:100A98000421204602F058FC0821204602F08CFB75
:100AA8000821204602F050FC0AE00E4C01220421E5
:100AB800204601F002FF00220821204601F0FDFE39
:100AC8002021084801F0F2FE0128EED0054C002252
:100AD8000421204601F0F1FE01220821204601F000
:100AE800ECFEEDE700040048D4030020FEE7FEE733
:100AF800FEE7FEE7FEE770477047704708B501F06C
:100B080013F808BD08B5024800F0D2FA08BD00BFC6
:100B18002800002000B583B00B4B1A6E42F001028A
:100B28001A661A6E02F001020092009A9A6D42F05B
:100B380080529A659B6D03F080530193019B01F0ED
:100B480047FF03B05DF804FB0010024030B59FB0CA
:100B58000446002119911A911B911C911D91542250
:100B680004A8FFF79DFB2368B3F1A04F01D01FB085
:100B780030BD4FF4004304934FF00053159304A87D
:100B880001F0E8FB002838D11D4BDA6C42F4005222
:100B9800DA64DA6C02F400520192019ADA6C42F0DB
:100BA8000102DA64DA6C02F001020292029ADA6C4B
:100BB80042F00202DA64DB6C03F002030393039B46
:100BC8000F23199303251A9500241B9419A94FF094
:100BD800904001F07BFD41F6030319931A951B948D
:100BE80019A9084801F072FD22462146122001F099
:100BF80009FF122001F03EFFB9E7FFF7A3FDC3E7A5
:100C0800001002400004004800B589B00023039397
:100C180004930593069307930268134B9A4202D0F4
:100C280009B05DF804FB03F560431A6E42F4805284
:100C38001A661A6E02F480520192019ADA6C42F036
:100C48000102DA64DB6C03F001030293029BE023E8
:100C58000393022304930523079303A94FF09040BD
:100C680001F034FDDCE700BF003001400268094BA9
:100C78009A4200D0704782B003F564431A6E42F47A
:100C880000621A661B6E03F400630193019B02B0B5
:100C9800704700BF002C0140F0B589B000230393D2
:100CA800049305930693079302681F4B9A4201D059
:100CB80009B0F0BD03F56443DA6C42F00202DA646D
:100CC800DA6C02F002020192019ADA6C42F0010237
:100CD800DA64DB6C03F001030293029B4FF4C04318
:100CE80003930225049506260796104F03A9384654
:100CF80001F0ECFC4FF400430393049500240594A1
:100D080006940423079303A9384601F0DFFC4FF447
:100D1800E0630393049505940694079603A94FF09E
:100D2800904001F0D3FCC3E7002C014000040048C8
:100D380010B59CB0044600211791189119911A9189
:100D48001B91542202A8FFF7ABFA2268174B9A426C
:100D580001D01CB010BD0123029302A801F0FAFAD9
:100D680000BB134B1A6E42F480421A661A6E02F4E4
:100D780080420092009ADA6C42F00202DA64DB6C7C
:100D880003F002030193019BC023179302231893D6
:100D9800002319931A9307231B9317A9054801F0F9
:100DA80095FCD6E7FFF7CEFCDBE700BF0038014033
:100DB800001002400004004810B596B004465422C2
:100DC800002101A8FFF76CFA22680E4B9A4201D065
:100DD80016B010BD4FF4005301934FF00063109309
:100DE80001A801F0B7FA50B9074B9A6D42F4000216
:100DF8009A659B6D03F400030093009BE8E7FFF7F7
:100E0800A1FCF1E7005C00400010024030B583B05F
:100E180000230193002800F032810446C36D13B308
:100E280023689A6812F0005F05D09A6822F0204281
:100E380022F03F029A602268936813F0805F1FD106
:100E4800936823F0104323F03F0343F080539360EB
:100E58008C4B1B689B098C4AA2FB03239B0901331B
:100E68005B00019309E0FFF771FE0023236684F815
:100E78005830D5E7019B013B0193019B002BF9D129
:100E88002268936813F0805F3DD1E36D43F010034F
:100E9800E365236E43F0010323660120936813F092
:100EA800040300D00123E16D11F0100F40F0E08041
:100EB800002B40F0DD80E36D23F4817343F00203DF
:100EC800E365936813F0010F3ED1B2F1A04F1CD037
:100ED8006E4B9A4219D06E4B996811F0010100D0FF
:100EE80001216C4B9B6813F0010300D001230B43D5
:100EF8006949896811F0010100D001210B430CBF39
:100F08000123002312E00020C8E74FF0A0439B68AC
:100F180013F0010300D001235C49896811F0010135
:100F280000D001210B430CBF0123002363B1B2F1B0
:100F3800A04F6CD0554B9A4267D0584963688A686D
:100F480022F47C1213438B60627FE36B43EA4233E3
:100F5800E2681343A268134394F8242043EA024347
:100F6800012A56D0E26A22B102F47872216B0A4350
:100F780013432168CD684A4A2A401343CB6022684C
:100F8800136923F04063616B0B4313612268936814
:100F980013F0080300D0012343BB217F94F83830B5
:100FA8005B0043EA8131D36823F4804323F00203D2
:100FB8000B43D3602369002B30D02268136943F4B4
:100FC800803313612268D2F8C03023F47F5323F0B2
:100FD8003F0321690B43C2F8C03094F84030012B1D
:100FE8002BD02268136923F0010313616369012B75
:100FF80035D02268136B23F00F031363E36D23F0DE
:10100800030343F00103E36537E0264996E72549E2
:1010180094E7A26A013A43EA4243A3E722681369C4
:1010280023F4803313612268D2F8C03023F47F534D
:1010380023F03F03C2F8C030CFE721680B6923F4DF
:10104800FF6323F00403626CA56C2A43E56C2A4312
:10105800256D2A43134343F001030B61C6E721685A
:101068000B6B23F00F03226A013A13430B63C5E7A6
:10107800E36D43F01003E365012003B030BD0120A8
:10108800FBE700BF08000020632D3E05000100506B
:1010980000040050000500500006005000070050F2
:1010A8000740F0FF0003005070477047704700008A
:1010B800F8B5044603681E685F68B3F1A04F46D0D0
:1010C800974A934241D0974B9D6805F01F0516F04B
:1010D800020F10D017F0020F0DD0E36D13F0100FB0
:1010E80003D1E36D43F40063E365204600F0F8FBA9
:1010F800236802221A6016F0040F02D017F0040FBA
:1011080005D116F0080F55D017F0080F52D0E36D2F
:1011180013F0100F03D1E36D43F40073E365236804
:10112800DA6812F4406F3FD17D4A934214D002F539
:10113800806293420DD01A46934210D07DB1052D9E
:101148000DD0092D0BD0D2680AE0774BBCE7764B5F
:10115800BAE7A2F58072EFE74FF0A042ECE7DA6851
:1011680012F4005F20D11A6812F0080F1CD09A6898
:1011780012F0040F10D15A6822F00C025A60E36D85
:1011880023F48073E365E36D13F4805F0CD1E36DA2
:1011980043F00103E36507E0E36D43F01003E36503
:1011A800236E43F0010323662046FFF77DFF236883
:1011B8000C221A6016F0200F02D017F0200F05D16C
:1011C80016F0400F63D017F0400F60D0E36D13F0B6
:1011D800100F03D1E36D43F40053E3652368DA6C21
:1011E80012F4C07F16D10121DA6812F4406F13D1CE
:1011F80001204B4A934214D002F5806293420DD0ED
:101208001A46934210D07DB1062D0DD0072D0BD074
:10121800D2680AE00021E7E70020EAE7A2F5807239
:10122800EFE74FF0A042ECE7DA6851B312F0007F25
:1012380003D030B312F4005F23D1196811F0400FC6
:101248001FD012F4001F1CD19A6812F0080F10D199
:101258005A6822F060025A60E36D23F48053E36514
:10126800E36D13F4807F0CD1E36D43F00103E36574
:1012780007E0E36D43F01003E365236E43F00103D9
:101288002366204600F028FB236860221A6016F0C7
:10129800800F02D017F0800F36D116F4807F02D06D
:1012A80017F4807F42D116F4007F02D017F4007F34
:1012B80048D116F0100F20D017F0100F1DD0E36B97
:1012C8006BB1002D4ED02368B3F1A04F48D0144A1B
:1012D800934243D0134B9B6813F4604F0AD0E36DDD
:1012E80043F48063E365236E43F0020323662046DC
:1012F800FFF7DCFE236810221A6016F4806F02D014
:1013080017F4806F34D1F8BDE36D43F48033E3659F
:101318002046FFF7CAFE236880221A60BDE700BF97
:10132800000100500007005000030050E36D43F433
:101338000033E365204600F0D1FA23684FF4807249
:101348001A60B0E7E36D43F48023E365204600F0BC
:10135800C6FA23684FF400721A60AAE70C4BBAE782
:101368000B4BB8E72368DB6813F0010FC2D0B6E770
:10137800E36D43F48043E365236E43F0080323667B
:1013880023684FF480621A60204600F0A6FABAE794
:1013980000030050F0B583B00022019290F8582065
:1013A800012A00F08A820346012280F85820056845
:1013B800A86810F0040F09D0DA6D42F02002DA654F
:1013C8000120002283F8582003B0F0BD4C68303566
:1013D800220A920002F00C02A85804F01F0E1F24E3
:1013E80004FA0EF420EA04000C68C4F3846C0CFAC6
:1013F8000EFC40EA0C00A8501868826812F004023B
:1014080000D00122846814F0080400D00124002AC6
:1014180050D1002C4ED18F68B7F1004F00F08B806F
:101428000E681430720E920002F004028558C6F35A
:10143800045E4FF0070C0CFA0EFC25EA0C0C07FAB8
:101448000EF54CEA050585501868426922F00042FD
:1014580042614D691868C268C2F3C102520005FAB8
:1014680002F20E69042E7ED0603050F82670AD4D21
:101478003D400F6807F0F8473A43154345F00045EB
:1014880040F826501A680E698869603252F826506A
:1014980025F08075284342F826001A680D69087FF0
:1014A80001285DD0603252F8250020F00070044316
:1014B80042F825401868826812F0010F17D10A68AF
:1014C800CD68D0F8B040C2F3120C24EA0C0405F041
:1014D800180C954D25FA0CF52A40C2F31202224346
:1014E800C0F8B020C868914A904200F0A4800A6809
:1014F8008F490A4200F0D7811968B1F1A04F00F076
:101508006E818C48814200F067818B48806800F0CA
:10151800E0748A4DAA4200F06481894DAA4200F025
:101528006081884DAA4200F08F81874DAA4200F061
:10153800A581002045E70D6814306A0E920002F07C
:1015480004028658C5F30455072707FA05F526EA65
:10155800050585501868426942F00042426178E703
:101568004FF000749EE7026E046EC4F384640A6848
:10157800C2F3120585BBC2F38462944234D01C685E
:10158800626E606EC0F384600A68C2F3120585BBA0
:10159800C2F38462904234D01C68A26EA06EC0F37D
:1015A80084600A68C2F3120585BBC2F38462904264
:1015B80034D01C68E26EE06EC0F384600A68C2F33F
:1015C800120585BBC2F3846290427FF473AFE26E6A
:1015D80022F00042E2666DE792FAA2F212B1B2FA84
:1015E80082F2CAE72022C8E7026E22F000420266B1
:1015F800C5E792FAA2F212B1B2FA82F2CAE7202241
:10160800C8E7626E22F000426266C5E792FAA2F26B
:1016180012B1B2FA82F2CAE72022C8E7A26E22F01B
:101628000042A266C5E792FAA2F212B1B2FA82F2B9
:10163800CAE72022C8E71C680A68C2F31205002D11
:1016480038D1900E013000F01F0009288CBF00200F
:10165800012000287AD0002D3BD1900E0130800661
:1016680000F0F840002D40D1960E013606F01F0715
:101678000126BE403043002D45D1920E013202F0C2
:101688001F0202EB420212050243886804F11406A5
:10169800550EAD0005F004057459C2F304524FF01D
:1016A800070C0CFA02FC24EA0C0C90404CEA0000EF
:1016B80070511CE792FAA2F048B1B0FA80F00130FC
:1016C80000F01F0009288CBF00200120C1E720205E
:1016D800F5E792FAA2F030B1B0FA80F00130800656
:1016E80000F0F840BEE72020F8E792FAA2F646B1EB
:1016F800B6FA86F6013606F01F06012707FA06F63F
:10170800B8E72026F6E792FAA2F242B1B2FA82F2DC
:10171800013202F01F0202EB42021205B4E7202256
:10172800F6E700BF00F0FF03FFFF070000007F405F
:10173800000008800001005000070050000021C38D
:101748001000C090000052C7000084CBCDB9900EA5
:101758000130800600F0F840FDB9960E013606F01B
:101768001F070126BE4030432DBB920E013202F006
:101778001F0202EB42021E3A120542F000720243B7
:1017880083E792FAA2F030B1B0FA80F00130800617
:1017980000F0F840E0E72020F8E792FAA2F646B118
:1017A800B6FA86F6013606F01F06012707FA06F68E
:1017B800D9E72026F6E792FAA2F25AB1B2FA82F2F3
:1017C800013202F01F0202EB42021E3A120542F0F9
:1017D8000072D4E72022F3E700F5007096E6384857
:1017E80094E610F4000F7FF49CAEB1F1A04F04D042
:1017F800344A914201D00020E3E5B1F1A04F19D05D
:10180800314A914214D0314944F400048A6822F0E4
:10181800E07214438C602E4A126892092D49A1FB8C
:1018280002129209013202EB42029200019206E092
:101838002349E9E72249E7E7019A013A0192019A27
:10184800002AF9D10020BCE510F0807F7FF46DAE4E
:101858001D4A914229D002F58062914227D0B1F108
:10186800A04F09D0194844F08072816821F0E071D6
:101878000A4382600020A4E51148F4E710F4800FC1
:1018880017D1114A914216D0B1F1A04F09D00F4893
:1018980044F48002816821F0E0710A4382600020EC
:1018A8008FE50748F4E700208BE5002089E5002054
:1018B80087E5002085E5002083E5022084E500BF58
:1018C80000030050000600500001005000070050BF
:1018D80008000020632D3E05704770477047704729
:1018E8007047000090F85820012A00F0D68010B404
:1018F8009DB00346012280F85820002218921992C0
:101908000068B0F1A04F47D0654A904247D0002206
:101918000192019A002A46D0926812F0040200D07F
:101928000122846814F0040F40F0A780002A40F0D8
:10193800A480B0F1A04F42D05A4A90423CD05A4AB3
:10194800086800285CD0906820F460404C6893F8E0
:1019580038C044EA4C34204390601868B0F1A04F76
:101968002FD0504CA0422CD04D48846814F001046C
:1019780000D001244D48806810F0010000D00120FB
:1019880020434B4CA46814F0010400D001242043E8
:101998000CBF0120002025E0424A0192B9E702F578
:1019A80080720192B5E7DA6D42F02002DA65002212
:1019B80083F85820012068E002F50072C0E73D4A2C
:1019C800BEE74FF0A040806810F0010000D0012071
:1019D800344CA46814F0010400D0012420430CBF47
:1019E80001200020002854D0906820F4716020F075
:1019F8000F000C688968214308439060002041E08B
:101A0800916821F4604191601968B1F1A04F1AD032
:101A18002448814217D02249886810F0010000D07C
:101A280001202249896811F0010100D001210143F8
:101A38001F48806810F0010000D0012001430CBF4E
:101A48000121002110E04FF0A041896811F0010147
:101A580000D001211348806810F0010000D0012057
:101A680001430CBF01210021A9B1916821F47161E2
:101A780021F00F019160002004E0DA6D42F02002AD
:101A8800DA650120002283F858201DB05DF8044B68
:101A980070470020F6E70020F4E70220704700BFF7
:101AA80000040050000100500007005000050050DD
:101AB8000006005000030050104B1B680BB90120B2
:101AC800704710B504464FF47A70B0FBF3F30C4A34
:101AD8001068B0FBF3F000F0DBFF68B90F2C01D9F8
:101AE80001200AE0002221464FF0FF3000F08AFF73
:101AF800044B1C60002000E0012010BD0000002005
:101B0800080000200400002010B5032000F068FF42
:101B18000F20FFF7D1FF10B10124204610BD044665
:101B2800FEF7F8FFF9E70000034A1368034909685C
:101B38000B441360704700BFB4040020000000206D
:101B4800014B1868704700BFB4040020124BDA68D4
:101B580002F00302D868C0F30310431C032A11D013
:101B68000E48B0FBF3F00C4BDB68C3F3062303FB12
:101B780000F0094BDB68C3F3416301335B00B0FB42
:101B8800F3F070470548B0FBF3F0034BDB68C3F391
:101B9800062303FB00F0ECE7001002400024F400E9
:101BA800002800F04F8270B582B00446036813F035
:101BB800010F37D0A44A936803F00C03D26802F0EF
:101BC80003020C2B23D0082B23D06368B3F5803F86
:101BD8004ED0B3F5A02F51D09B4B1A6822F4803217
:101BE8001A601A6822F480221A606368002B52D0A7
:101BF800FFF7A6FF0546944B1B6813F4003F11D16D
:101C0800FFF79EFF401B6428F5D9032023E2032A2F
:101C1800D9D18D4B1B6813F4003F03D06368002BA8
:101C280000F01282236813F0020F5DD0864A936891
:101C380003F00C03D26802F003020C2B3AD0042BF9
:101C48003AD0E368002B75D07F4A136843F4807359
:101C58001360FFF775FF05467B4B1B6813F4806F15
:101C68005FD1FFF76DFF401B0228F5D90320F2E191
:101C7800754A136843F480331360B6E703F1804371
:101C8800A3F53C331A6842F480221A601A6842F4B9
:101C980080321A60A9E7FFF753FF05466A4B1B68B5
:101CA80013F4003FBED0FFF74BFF401B6428F5D963
:101CB8000320D0E1022AC2D1634B1B6813F4806F62
:101CC80003D0E368002B00F0C1815F4A536823F01A
:101CD800FE43216943EA016353605C4B1868FFF7D0
:101CE800EBFE002840F0B481236813F0080F4CD0B5
:101CF80063699BB3544AD2F8943043F00103C2F8A5
:101D08009430FFF71DFF05464F4BD3F8943013F07E
:101D1800020F3AD1FFF714FF401B0228F4D9032021
:101D280099E1494A536823F0FE43216943EA016374
:101D38005360D9E7444A136823F480731360FFF7AC
:101D4800FFFE0546404B1B6813F4806FCCD0FFF7AD
:101D5800F7FE401B0228F5D903207CE13A4AD2F865
:101D6800943023F00103C2F89430FFF7E9FE0546EA
:101D7800354BD3F8943013F0020F06D0FFF7E0FE8E
:101D8800401B0228F4D9032065E1236813F0040FEF
:101D980000F081802C4B9B6D13F0805F36D12A4B6D
:101DA8009A6D42F080529A659B6D03F080530193BF
:101DB800019B0125264B1B6813F4807F28D0A3685C
:101DC800012B39D0052B45D01F4BD3F8902022F09A
:101DD8000102C3F89020D3F8902022F00402C3F83F
:101DE8009020A368002B43D0FFF7AAFE0646164BA7
:101DF800D3F8903013F0020F4CD1FFF7A1FE801BEF
:101E080041F288339842F2D9032024E10025D1E732
:101E18000F4A136843F480731360FFF791FE064678
:101E28000B4B1B6813F4807FC9D1FFF789FE801B19
:101E38000228F5D903200EE1034AD2F8903043F086
:101E48000103C2F89030CCE70010024004000020E3
:101E580000700040884BD3F8902042F00402C3F889
:101E68009020D3F8902042F00102C3F89020B8E700
:101E7800FFF766FE0646804BD3F8903013F0020F4A
:101E880008D0FFF75DFE801B41F288339842F2D9F3
:101E98000320E0E0E5B9236813F0200F35D0A369EB
:101EA800E3B1754AD2F8983043F00103C2F898308C
:101EB800FFF746FE0546704BD3F8983013F0020F33
:101EC80023D1FFF73DFE401B0228F4D90320C2E0CE
:101ED800694A936D23F080539365DCE7664AD2F82C
:101EE800983023F00103C2F89830FFF729FE054621
:101EF800614BD3F8983013F0020F06D0FFF720FE9D
:101F0800401B0228F4D90320A5E0E369002B00F068
:101F1800A180594A926802F00C020C2A64D0022B64
:101F280013D0554A136823F080731360FFF708FE37
:101F38000446514B1B6813F0007F4ED0FFF700FE9C
:101F4800001B0228F5D9032085E04B4A136823F0CB
:101F580080731360FFF7F4FD0546474B1B6813F0C9
:101F6800007F06D0FFF7ECFD401B0228F5D90320BF
:101F780071E0414AD36841491940236A606A0138CF
:101F880043EA0013A06A43EA0023206B40080138A3
:101F980043EA4053606B4008013843EA4063E06A13
:101FA80043EAC0630B43D360136843F08073136044
:101FB800D36843F08073D360FFF7C2FD04462E4B0D
:101FC8001B6813F0007F06D1FFF7BAFD001B02283B
:101FD800F5D903203FE000203DE0274AD168284B8F
:101FE8000B40D360002036E0012B36D0224BDB6853
:101FF80003F00301226A914231D103F0F002616AD1
:102008000139B2EB011F2CD103F4FE42A16AB2EBF5
:10201800012F28D103F07842E16AB2EBC16F24D1D5
:1020280003F4C001226B5208013AB1EB425F1ED1A2
:1020380003F0C063626B5208013AB3EB426F18D1E8
:10204800002008E001207047012004E0012002E0A0
:10205800012000E0002002B070BD0120FBE7012054
:10206800F9E70120F7E70120F5E70120F3E7012070
:10207800F1E70120EFE700BF001002400C809F014C
:10208800FCFFEEFE1E4B9B6803F00C03042B33D0C1
:102098001B4B9B6803F00C03082B2FD0184B9B6835
:1020A80003F00C030C2B01D000207047144BDA68A6
:1020B80002F00302D868C0F30310431C032A11D0AE
:1020C8001048B0FBF3F00E4BDB68C3F3062303FBA9
:1020D80000F00B4BDB68C3F3416301335B00B0FBDB
:1020E800F3F070470748B0FBF3F0054BDB68C3F328
:1020F800062303FB00F0ECE70248704701487047ED
:10210800001002400024F400002800F0E680F8B532
:102118000C460546744B1B6803F00F038B420BD229
:10212800714A136823F00F030B431360136803F01D
:102138000F038B4240F0D3802E6816F001065FD063
:102148006B68032B2FD0022B4DD0684B1B6813F400
:10215800806F00F0C680FFF795FF654B98424DD918
:10216800624A936823F0F00343F08003936080266B
:102178005E4A936823F0030369680B439360FFF793
:10218800DFFC0746594B9B6803F00C036A68B3EB06
:10219800820F35D0FFF7D4FCC01B41F28833984238
:1021A800F0D9032078E0514B1B6813F0007F01D170
:1021B800012071E0FFF7CAFC4D4B98421AD94B4BEE
:1021C8009B6813F0F00F05D02E6816F00206CFD0EA
:1021D800AB688BB9454A936823F0F00343F080035A
:1021E80093608026C4E7414B1B6813F4003FB2D1CB
:1021F800012051E00026BBE70026B9E70026B7E733
:102208002B6813F0020F48D013F0040F04D0374A9C
:10221800936843F4E06393602B6813F0080F06D0CB
:10222800324A936823F47C5343F4E06393602F4A63
:10223800936823F0F003A9680B4393602A4B1B684B
:1022480003F00F03A34230D82B6813F0040F06D015
:10225800264A936823F4E063E9680B4393602B688C
:1022680013F0080F07D0214A936823F460532969B3
:1022780043EAC1039360FFF705FF1C4B9B68C3F358
:1022880003131C4AD35C03F01F03D8401A4B186091
:102298001A4B1868FFF710FCF8BD802ECED1134AF0
:1022A800936823F0F0039360C8E70F4A136823F09C
:1022B8000F0323431360FFF743FC06460A4B1B68D2
:1022C80003F00F03A342BFD0FFF73AFC801B41F293
:1022D80088339842F2D90320DEE7012070470120B5
:1022E800DAE70120D8E700BF0020024000100240D2
:1022F80000B4C404043F00080800002004000020C3
:10230800014B1868704700BF0800002008B5FFF7A8
:10231800F7FF054B9B68C3F30223044AD35C03F021
:102328001F03D84008BD00BF00100240143F00083A
:1023380008B5FFF7E5FF054B9B68C3F3C223044AC2
:10234800D35C03F01F03D84008BD00BF0010024053
:10235800143F0008F0B583B00446036813F4002F57
:102368006ED0354B9B6D13F0805F1ED1324B9A6D4A
:1023780042F080529A659B6D03F080530193019B54
:1023880001262E4A136843F480731360FFF7D8FBC5
:1023980005462A4B1B6813F4807F08D1FFF7D0FB52
:1023A800401B0228F5D9032502E00026E9E70025AD
:1023B80045BB214BD3F8903013F4407315D0226DF0
:1023C8009A4212D01C4AD2F8903023F44073D2F8C3
:1023D800901041F48031C2F89010D2F8901021F496
:1023E8008031C2F89010C2F8903013F0010F10D16C
:1023F80045B9114AD2F8903023F44073216D0B434C
:10240800C2F89030EEB10C4A936D23F08053936577
:1024180017E0FFF795FB0746074BD3F8903013F00A
:10242800020FE5D1FFF78CFBC01B41F288339842BD
:10243800F2D90325DCE700BF00100240007000401D
:102448000025236813F0010F08D09F4AD2F888307E
:1024580023F0030361680B43C2F88830236813F044
:10246800020F08D0984AD2F8883023F00C03A168EC
:102478000B43C2F88830236813F0040F08D0924A3F
:10248800D2F8883023F03003E1680B43C2F8883073
:10249800236813F0080F08D08B4AD2F8883023F04D
:1024A800C00321690B43C2F88830236813F0100F6A
:1024B80008D0854AD2F8883023F4407361690B4309
:1024C800C2F88830236813F0200F08D07E4AD2F86B
:1024D800883023F44063A1690B43C2F8883023682D
:1024E80013F0400F08D0784AD2F8883023F44053CC
:1024F800E1690B43C2F88830236813F0800F08D0D5
:10250800714AD2F8883023F44043216A0B43C2F859
:102518008830236813F4807F08D06B4AD2F888305B
:1025280023F44033616A0B43C2F88830236813F4FC
:10253800003F08D0644AD2F89C3023F00303A16A14
:102548000B43C2F89C30236813F4007F08D05E4A1E
:10255800D2F8883023F44023E16A0B43C2F888306C
:10256800236813F4806F0CD0574AD2F8883023F4CC
:102578004013216B0B43C2F88830236BB3F5801FDF
:1025880079D0236813F4006F0CD04F4AD2F8883002
:1025980023F44003616B0B43C2F88830636BB3F5D7
:1025A800800F6DD0236813F4805F0CD0464AD2F8B0
:1025B800883023F04073A16B0B43C2F88830A36BBB
:1025C800B3F1807F61D0236813F4005F0CD03E4ADA
:1025D800D2F8883023F04063E16B0B43C2F88830AF
:1025E800E36BB3F1006F55D0236813F4804F0CD020
:1025F800354AD2F8883023F04063216C0B43C2F887
:102608008830236CB3F1006F49D0236813F4004F6E
:102618000CD02D4AD2F8883023F04053616C0B431C
:10262800C2F88830636CB3F1805F3DD0236813F43F
:10263800803F0CD0244AD2F8883023F04043A16C64
:102648000B43C2F88830A36CB3F1804F31D02368B4
:1026580013F4802F0CD01C4AD2F89C3023F440137A
:10266800E16C0B43C2F89C30E36CB3F5001F25D036
:10267800284603B0F0BDD36843F48013D36080E7E5
:10268800D36843F48013D3608CE7D36843F4801392
:10269800D36098E7D36843F48013D360A4E7D36882
:1026A80043F48013D360B0E7D36843F48033D36036
:1026B800BCE7D36843F48033D360C8E7D36843F4F6
:1026C8008013D360D4E700BF00100240F0B583B098
:1026D800002366E085685E000324B44025EA04050B
:1026E800CC68B4402C438460446824EA0C0C4C68E1
:1026F800C4F300149C4044EA0C04446062E08C6813
:10270800012C64D172E0DD08083550F8256003F02B
:1027180007044FEA840C0F2404FA0CF426EA040E8A
:102728000C6904FA0CF444EA0E0440F8254062E00F
:10273800052400E0002404FA0EF42C430CF1020CEA
:10274800564D45F82C40564CA568D44325EA020658
:102758004F6817F4801F01D042EA0506504DAE605D
:10276800ED6804EA05064F6817F4001F01D042EA35
:1027780005064B4DEE606D6804EA05064F6817F4D0
:10278800003F01D042EA0506454D6E602D682C4099
:102798004E6816F4803F01D042EA0504404A1460AE
:1027A80001330A6832FA03F476D04FF0010C0CFAC0
:1027B80003FC1CEA0202F3D04C6804F00304013C59
:1027C800012C87D94C6804F00304032C97D0C46803
:1027D8004FEA430E4FF0030C0CFA0EFC24EA0C0CE3
:1027E8008C6804FA0EF444EA0C04C4604C6804F0E3
:1027F8000304022C87D004684FEA430E4FF0030C01
:102808000CFA0EFC24EA0C0C4C6804F0030404FADD
:102818000EF444EA0C0404604C6814F4403FBFD042
:10282800204C256E45F001052566246E04F0010450
:102838000194019C4FEA930C0CF10205174C54F8D3
:10284800255003F003044FEA840E0F2404FA0EF413
:1028580025EA0405B0F1904F3FF46CAF124CA0424A
:1028680012D004F58064A04210D004F58064A04220
:102878000ED004F58064A0420CD004F58064A04218
:102888003FF456AF062456E7012454E7022452E7E2
:10289800032450E704244EE703B0F0BD00000140D4
:1028A8000004014000100240000400480369194276
:1028B80001D001207047002070470AB1816170473C
:1028C80081627047002836D13E4B1B6803F4C06311
:1028D800B3F5806F08D03B4AD2F8803023F4807378
:1028E800C2F8803000207047364AD2F8803023F48E
:1028F8008073C2F88030136823F4C06343F4007314
:102908001360314B1B68322202FB03F32F4AA2FBF0
:1029180003239B0C013300E0013B2A4A526912F45D
:10292800806F01D0002BF7D1264B5B6913F4806FC1
:1029380044D100207047B0F5007F08D0214A1368C1
:1029480023F4C06343F480631360002070471D4B79
:102958001B6803F4C063B3F5806F08D0194AD2F836
:10296800803043F48073C2F8803000207047154AE5
:10297800D2F8803043F48073C2F88030136823F4AF
:10298800C06343F4007313600F4B1B68322202FBD1
:1029980003F30E4AA2FB03239B0C013300E0013B27
:1029A800084A526912F4806F01D0002BF7D1054B09
:1029B8005B6913F4806F03D10020704703207047D0
:1029C80003207047007000400800002083DE1B438E
:1029D800024A936843F48043936070470070004054
:1029E800074AD36823F4E0631B041B0C000200F4BD
:1029F800E060034343F0BF6343F40033D3607047A0
:102A080000ED00E000B5194BDB68C3F30223C3F106
:102A1800070CBCF1040F28BF4FF0040C03F1040E9F
:102A2800BEF1060F18D9033B4FF0FF3E0EFA0CFC1F
:102A380021EA0C0199400EFA03F322EA0303194331
:102A480000280BDB0901C9B200F1604000F56140C4
:102A580080F800135DF804FB0023E5E700F00F00A1
:102A68000901C9B2024B1954F4E700BF00ED00E0B8
:102A780014ED00E0002807DB00F01F0240090123E5
:102A88009340024A42F82030704700BF00E100E05E
:102A98000138B0F1807F0BD24FF0E0235861054A2E
:102AA800F02182F823100020986107221A617047EC
:102AB8000120704700ED00E000286FD010B50446F3
:102AC800436A33B94368B3F5827F05D00023C361F5
:102AD80002E00023036143610023A36294F85D30A0
:102AE800002B52D0022384F85D302268136823F04B
:102AF80040031360E368B3F5E06F4CD90022B3F5E7
:102B0800706F04D0B3F5E06F01D00023A36263684F
:102B180003F48273A16801F404410B43216901F0B5
:102B280002010B43616901F001010B43A16901F442
:102B380000710B43E16901F038010B43216A01F090
:102B480080010B43A16A01F4005120680B43036024
:102B5800638B03F00403616A01F010010B43616B9E
:102B680001F008010B43E16801F470610B4321682F
:102B780013434B602268D36923F40063D3610020B8
:102B88002066012384F85D3010BD84F85C3020464F
:102B9800FEF73AF8A6E74FF48052B0E701207047F5
:102BA80030B4036A026A22F001020262456882694F
:102BB80022F4803222F073020C68224323F00203CD
:102BC8008C682343224CA04213D004F50064A04231
:102BD8000FD004F54064A0420BD004F58064A042F5
:102BE80007D004F58064A04203D004F50064A04235
:102BF80007D1046A24F00404046223F00803CC68B3
:102C08002343134CA04213D004F50064A0420FD014
:102C180004F54064A0420BD004F58064A04207D0BC
:102C280004F58064A04203D004F50064A04207D1F3
:102C380025F4407C4C6944EA0C0C8D6945EA0C0586
:102C4800456082614A684263036230BC704700BFD6
:102C5800002C014030B4036A026A22F480720262D6
:102C68004468C26922F4803222F073020D682A4354
:102C780023F400738D6843EA05231D4DA84207D04D
:102C880005F50065A84203D005F5E055A84208D12E
:102C9800056A25F48065056223F40063CD6843EA7C
:102CA8000523134DA84213D005F50065A8420FD09F
:102CB80005F54065A8420BD005F58065A84207D008
:102CC80005F58065A84203D005F50065A84207D13F
:102CD80024F440544D6944EA05148D6944EA051406
:102CE8004460C2614A68C263036230BC704700BF77
:102CF800002C014030B4036A026A22F48052026256
:102D08004468C26922F0807222F4E6420D6842EA01
:102D1800052223F400538D6843EA05331C4DA8426D
:102D280007D005F50065A84203D005F5E055A8428F
:102D380008D1056A25F48045056223F40043CD686F
:102D480043EA0533124DA84213D005F50065A842A1
:102D58000FD005F54065A8420BD005F58065A8425F
:102D680007D005F58065A84203D005F50065A8429F
:102D780007D124F440444D6944EA85148D6944EA36
:102D880085144460C2614A680264036230BC7047BB
:102D9800002C014030B4036A026A22F480320262D5
:102DA8004468026D22F4803222F070020D682A43D2
:102DB80023F400338D6843EA0543114DA84213D02C
:102DC80005F50065A8420FD005F54065A8420BD06F
:102DD80005F58065A84207D005F58065A84203D0AF
:102DE80005F50065A84204D124F480344D6944EA0D
:102DF8000524446002654A688264036230BC7047F7
:102E0800002C014030B4036A026A22F48012026284
:102E18004468026D22F0807222F4E0420D6842EAB2
:102E2800052223F400138D6843EA0553114DA84287
:102E380013D005F50065A8420FD005F54065A842F6
:102E48000BD005F58065A84207D005F58065A84236
:102E580003D005F50065A84204D124F480244D6907
:102E680044EA8524446002654A68C264036230BC4F
:102E7800704700BF002C01400368384A904216D0C2
:102E8800B0F1804F13D0A2F5943290420FD002F5E2
:102E9800806290420BD002F58062904207D002F522
:102EA8009432904203D002F5E052904203D123F0CD
:102EB80070034A681343294A904222D0B0F1804FE8
:102EC8001FD0A2F5943290421BD002F58062904246
:102ED80017D002F58062904213D002F594329042E6
:102EE8000FD002F5406290420BD002F5806290420A
:102EF80007D002F58062904203D002F5006290424A
:102F080003D123F44073CA68134323F080034A694A
:102F180013438A68C2620A688262104A904213D0D8
:102F280002F5006290420FD002F5406290420BD049
:102F380002F58062904207D002F58062904203D089
:102F480002F50062904201D10A690263026842F008
:102F5800040202600122426103607047002C0140B4
:102F680060B310B5044690F83D3013B3022384F8DB
:102F78003D30214651F8040BFFF77EFF012384F80A
:102F8800483084F83E3084F83F3084F8403084F884
:102F9800413084F8423084F8433084F8443084F86F
:102FA800453084F8463084F8473084F83D300020B6
:102FB80010BD80F83C30FDF759FED7E70120704777
:102FC80030B4036A026A22F010020262446882691D
:102FD80022F0807222F4E6420D6842EA052223F0CC
:102FE80020038D6843EA05131C4DA84207D005F558
:102FF8000065A84203D005F5E055A84208D1056A46
:1030080025F04005056223F08003CD6843EA0513E7
:10301800124DA84213D005F50065A8420FD005F55A
:103028004065A8420BD005F58065A84207D005F594
:103038008065A84203D005F50065A84207D124F4AD
:1030480040644D6944EA85048D6944EA8504446016
:1030580082614A688263036230BC7047002C014079
:1030680038B590F83C30012B00F0958004460D46A9
:10307800012380F83C30142A00F28880DFE802F04F
:103088000B8686861F86868634868686488686864A
:103098005D86868671000068FFF782FD2268936965
:1030A80043F0080393612268936923F00403936152
:1030B8002268936929690B439361002067E00068DF
:1030C800FFF77EFF2268936943F4006393612268E7
:1030D800936923F48063936122689369296943EAB9
:1030E80001239361002052E00068FFF7B3FD2268D6
:1030F800D36943F00803D3612268D36923F004033A
:10310800D3612268D36929690B43D36100203EE06B
:103118000068FFF7EFFD2268D36943F40063D361C9
:103128002268D36923F48063D3612268D36929694B
:1031380043EA0123D361002029E00068FFF72AFE53
:103148002268136D43F0080313652268136D23F09A
:10315800040313652268136D29690B431365002066
:1031680015E00068FFF74EFE2268136D43F4006314
:1031780013652268136D23F4806313652268136D49
:10318800296943EA01231365002000E00120002398
:1031980084F83C3038BD0220FCE701F01F01012310
:1031A80003FA01FC036A23EA0C030362036A02FAC6
:1031B80001F10B430362704710B504460846002925
:1031C80053D194F83E30DBB2013B18BF0123002BEA
:1031D80040F0A080002873D1022384F83E300122F9
:1031E80001462068FFF7D9FF23684D4A934213D060
:1031F80002F5006293420FD002F5406293420BD071
:1032080002F58062934207D002F58062934203D0B0
:1032180002F50062934203D15A6C42F400425A64A8
:1032280023683F4A934267D0B3F1804F64D0A2F538
:103238009432934260D002F5806293425CD002F5EA
:103248008062934258D002F59432934254D002F5EA
:103258004062934250D002F5805293424CD01A6893
:1032680042F001021A60002055E004290CD0082918
:1032780011D00C2916D010291BD094F84330DBB29A
:10328800013B18BF0123A2E794F83F30DBB2013BB2
:1032980018BF01239BE794F84030DBB2013B18BF0D
:1032A800012394E794F84130DBB2013B18BF0123B6
:1032B8008DE794F84230DBB2013B18BF012386E763
:1032C800042809D008280BD00C280DD010280FD0BE
:1032D800022384F8433082E7022384F83F307EE7F4
:1032E800022384F840307AE7022384F8413076E7F5
:1032F800022384F8423072E799680A4A0A40062A8B
:103308000AD0B2F5803F09D01A6842F001021A606B
:10331800002000E0012010BD0020FCE70020FAE7B3
:10332800002C01400700010001F00F01042303FAFB
:1033380001FC036A23EA0C030362036A02FA01F13F
:103348000B4303627047000010B504460846002985
:103358003BD194F84430DBB2013B18BF0123002B6A
:103368006AD100284AD1022384F844300422014655
:103378002068FFF7D9FF2268536C43F40043536475
:103388002368304A934249D0B3F1804F46D0A2F522
:103398009432934242D002F5806293423ED002F5C5
:1033A800806293423AD002F59432934236D002F5C5
:1033B8004062934232D002F5805293422ED01A686E
:1033C80042F001021A60002037E0042908D00829D9
:1033D8000DD094F84730DBB2013B18BF0123BEE79C
:1033E80094F84530DBB2013B18BF0123B7E794F8E6
:1033F8004630DBB2013B18BF0123B0E7042805D0F3
:10340800082807D0022384F84730AFE7022384F85E
:103418004530ABE7022384F84630A7E799680A4AA3
:103428000A40062A0AD0B2F5803F09D01A6842F04D
:1034380001021A60002000E0012010BD0020FCE716
:103448000020FAE7002C01400700010090F83C300A
:10345800012B4CD030B4012380F83C30022380F893
:103468003D30026853689468224DAA4207D005F59A
:103478000065AA4203D005F5E055AA4203D123F41A
:1034880070034D682B4323F0007323F070030D681D
:103498002B4353600368174A93421AD0B3F1804F05
:1034A80017D0A2F59432934213D002F5806293426A
:1034B8000FD002F5806293420BD002F5943293420A
:1034C80007D002F54062934203D002F5805293423E
:1034D80004D124F080048A6814439C60012380F896
:1034E8003D30002380F83C30184630BC704702203D
:1034F800704700BF002C014090F83C30012B4AD0A7
:1035080010B4012380F83C30CB6823F440738A68F8
:10351800134323F480634A68134323F400630A685F
:10352800134323F480530A69134323F400534A696D
:10353800134323F480430A6B134323F470238A69EB
:1035480043EA024323F08053CA6913430268134CC9
:10355800A24207D004F50064A24203D004F5E05467
:10356800A24210D123F470038C6A43EA045323F077
:1035780080730C6A234323F000734C6A234323F0BF
:103588000053C96A0B435364002380F83C30184643
:103598005DF8044B70470220704700BF002C0140C3
:1035A800026852E8003F23F4907342E80031002992
:1035B800F6D1026802F1080353E8003F23F0805374
:1035C80023F00103083242E800310029F1D1C36E2B
:1035D800012B06D02023C0F88C300023C366436734
:1035E8007047026852E8003F23F0100342E80031B8
:1035F8000029F6D1EEE7000070B50446016883683B
:103608000269134342691343C26913430868964A1F
:10361800024013430B602268536823F44053E16867
:103628000B435360A1692268904B9A4201D0236AE8
:103638001943936823F06E4323F430630B4393607C
:103648002268D36A23F00F03616A0B43D3622368AD
:10365800874A934210D0874A934221D0864A9342A0
:1036680037D0864A93425CD0854A93426BD07F4AD2
:1036780093427DD010223AE002F55842D2F88820D1
:1036880002F00302032A09D8DFE802F002048706E1
:1036980001222CE004222AE0082228E0102226E059
:1036A80002F5E632D2F8882002F00C020C2A0ED875
:1036B800DFE802F0070D0D0D090D0D0D750D0D0D4F
:1036C8000B00002213E0042211E008220FE0102270
:1036D8000DE002F5E432D2F8882002F03002202A08
:1036E8005FD01AD8002A5ED0102A5ED104225F4922
:1036F8008B4276D0E069B0F5004F00F0C980082A07
:1037080000F23481DFE812F0F7001901F500320108
:103718001C013201320132011F01302A47D108222F
:10372800E5E702F5E232D2F8882002F0C002802AEA
:103738003FD004D8FAB3402A3FD10422D7E7C02AA1
:103748003DD10822D3E702F5E032D2F8882002F40E
:103758004072B2F5007F34D005D8A2B3B2F5807FAD
:1037680033D10422C3E7B2F5407F30D10822BEE747
:1037780002F5C832D2F8882002F44062B2F5006F30
:1037880027D005D83AB3B2F5806F26D10422AEE728
:10379800B2F5406F23D10822A9E70222A7E7022247
:1037A800A5E70222A3E70022A1E710229FE7102243
:1037B8009DE702229BE7002299E7102297E7102253
:1037C80095E7022293E7002291E710228FE7102263
:1037D8008DE702228BE7002289E7102287E7102273
:1037E80085E7082A00F2B280DFE802F008B03BB0B3
:1037F80038B0B0B005004FF4004004E0FEF786FD95
:10380800002800F0A580626A1E4B33F81220B0FB36
:10381800F2F3656805EB4501994200F29B80B3EB32
:10382800053F00F29980002633463146FCF78AFDB1
:10383800090241EA106100026B08C0182A463346A3
:1038480041F10001FCF77EFDA0F540720E4B9A4253
:1038580000F284802368D860304665E0FEF712FCE9
:10386800CEE70A48CFE700BFF369FFCF00800040EA
:10387800003801400044004000480040004C00402F
:1038880000500040DC3E0008FFFC0F000024F4005C
:10389800082A65D8DFE802F0072705642A6464640B
:1038A8000B00354803E0FEF731FD00285AD0626A64
:1038B800324B33F81230B0FBF3F06268530803EB75
:1038C8004000B0FBF2F0A0F110024FF6EF739A42FD
:1038D8004AD883B223F00F03C0F342001843236889
:1038E800D860002020E0FEF723FDDEE7FEF7CAFBE4
:1038F800DBE7214803E0FEF709FD002838D0626ABB
:103908001E4B33F81230B0FBF3F0636800EB530042
:10391800B0FBF3F0A0F110024FF6EF739A4229D8EA
:10392800236880B2D86000200123A4F86A30A4F884
:10393800683000236367A36770BDFEF7F9FCDCE716
:10394800FEF7A0FBD9E74FF40040D8E70120EBE7EA
:103958000020E9E70120E7E70120E5E70120E3E7A8
:103968000120E1E70020DFE70120DDE70120DBE7B8
:103978000020D9E70120D7E70024F400DC3E000846
:10398800836A13F0080F06D00268536823F40043D3
:10399800816B0B435360836A13F0010F06D00268F2
:1039A800536823F40033C16A0B435360836A13F0EE
:1039B800020F06D00268536823F48033016B0B436F
:1039C8005360836A13F0040F06D00268536823F427
:1039D8008023416B0B435360836A13F0100F06D0AA
:1039E8000268936823F48053C16B0B439360836A26
:1039F80013F0200F06D00268936823F40053016C7B
:103A08000B439360836A13F0400F0AD0026853682F
:103A180023F48013416C0B435360436CB3F5801F50
:103A28000BD0836A13F0800F06D00268536823F422
:103A38000023C16C0B43536070470268536823F43A
:103A4800C003816C0B435360EBE72DE9F84305464F
:103A58000E4617469946DDF820802C68E46936EA58
:103A680004030CBF4FF0010C4FF0000CBC4536D1DD
:103A7800B8F1FF3FF1D0FEF763F8A0EB090040452D
:103A880030D8B8F1000F2FD02B681A6812F0040F45
:103A9800E3D0802EE1D0402EDFD0DA6912F0080F93
:103AA80011D1DA6912F4006FD7D04FF400621A62AC
:103AB8002846FFF775FD2023C5F89030002385F8C8
:103AC800843003200CE008241C622846FFF768FDB8
:103AD800C5F89040002385F88430012000E00020DC
:103AE800BDE8F8830320FBE70320F9E730B583B08E
:103AF80004460023C0F89030FEF722F805462268F5
:103B0800126812F0080F10D123681B6813F0040F15
:103B180028D12023C4F88830C4F88C300020E0660F
:103B2800206784F8840003B030BD6FF07E430093B3
:103B3800034600224FF400112046FFF786FF0028B5
:103B4800E2D0226852E8003F23F0800342E80031C7
:103B58000029F6D12023C4F88830002384F8843063
:103B68000320E0E76FF07E4300932B4600224FF4DA
:103B780080012046FFF769FF0028CAD0226852E872
:103B8800003F23F4907342E800310029F6D12268FF
:103B980002F1080353E8003F23F00103083242E82A
:103BA80000310029F3D12023C4F88C30002384F895
:103BB80084300320B7E778B310B50446D0F88830CE
:103BC8000BB32423C4F888302268136823F0010358
:103BD8001360A36AE3B92046FFF70EFD012811D050
:103BE8002268536823F4904353602268936823F053
:103BF8002A0393602268136843F001031360204688
:103C0800FFF774FF10BD80F88430FDF791F8D8E70E
:103C18002046FFF7B5FEDEE701207047436E2BB95B
:103C28000123A0F86A30A0F86830704730B4036800
:103C38009A68C2F342629968490F094D6B5CDB00D0
:103C4800084C615C93FBF1F3A0F86A30AB5CDB00D5
:103C5800A25C93FBF2F3A0F8683030BC704700BF59
:103C6800FC3E0008F43E000890F88430012B18D080
:103C7800012380F884302423C0F8883003681A6848
:103C8800196821F00101196022F0005200234366EF
:103C980001680A602022C0F8882080F8843018461D
:103CA80070470220704738B590F88430012B1DD03A
:103CB8000446012380F884302423C0F88830036840
:103CC8001D681A6822F001021A600268936823F0DE
:103CD800604319439160FFF7A1FF23681D6020230B
:103CE800C4F88830002084F8840038BD0220FCE73E
:103CF80038B590F88430012B1DD00446012380F894
:103D080084302423C0F8883003681D681A6822F0BC
:103D180001021A600268936823F060631943916096
:103D2800FFF77CFF23681D602023C4F8883000203B
:103D380084F8840038BD0220FCE7002856D010B56E
:103D4800044690F891323BB1032384F891322068FD
:103D580000F064F8002315E080F89032FDF72CF8A5
:103D6800F2E703EB830204EBC202012151741374DE
:103D78000021D17411625162013303EB8302D20036
:103D8800A150DBB220799842EBD8002316E003EB70
:103D9800830204EBC202002182F8511182F85031EB
:103DA80082F85311C2F86011C2F8641103EB830260
:103DB80004EBC202C2F868110133DBB29842E6D8BC
:103DC800234653F8040B93E8060000F031F800236B
:103DD8002373012384F89132A37A012B01D00020A8
:103DE80010BD204600F004F80020F9E701207047D4
:103DF800034602680121C0F8D012002083F8C802E7
:103E0800B2F854309BB20B43A2F85430B2F8543095
:103E18009BB243F00203A2F854307047B0F8403028
:103E280023F47E535B045B0CA0F8403000207047FD
:103E380082B0034602A800E906000122A3F8402048
:103E48000020A3F84000A3F84400A3F8500002B0F3
:103E580070470000034AD2F8883043F47003C2F870
:103E68008830704700ED00E00D488546FFF7F2FF07
:103E78000C480D490D4A002302E0D458C4500433BD
:103E8800C4188C42F9D30A4A0A4C002301E0136093
:103E98000432A242FBD3FCF7DFF9FCF7BDFDFEE7D5
:103EA80000000220000000200C0000202C3F000829
:103EB8000C000020B8040020FEE70000F8B500BFA1
:103EC800F8BC08BC9E467047F8B500BFF8BC08BCF3
:043ED8009E4670474B
:103EDC00010002000400060008000A000C0010009B
:103EEC0020004000800000010804020408010101C8
:103EFC0001010103070100000000000000000000A8
:103F0C000102030406070809000000000102030473
:083F1C0060C4FF7F01000000FA
:043F2400410200084E
:043F28001902000872
:0C3F2C0001000000100000000024F40060
:0400000508003E7140
:00000001FF
