:020000040800F2
:1000000000000220A543000881160008831600089E
:1000100085160008871600088916000800000000F1
:100020000000000000000000000000008B16000827
:100030008D160008000000008F16000891160008B9
:10004000F5430008F5430008F5430008F5430008B0
:10005000F5430008F5430008F5430008F5430008A0
:10006000F5430008F5430008F5430008F543000890
:10007000F5430008F5430008F5430008F543000880
:10008000F5430008F543000899160008F5430008F9
:10009000F5430008F5430008F5430008F543000860
:1000A000F5430008F5430008F5430008F543000850
:1000B000F5430008F5430008F5430008F543000840
:1000C000F5430008F5430008F5430008F543000830
:1000D000F5430008F5430008F5430008F543000820
:1000E000F5430008F5430008F5430008F543000810
:1000F000F5430008F5430008F5430008F543000800
:10010000F5430008F5430008F5430008F5430008EF
:10011000F5430008F5430008F5430008F5430008DF
:10012000F5430008F5430008F5430008F5430008CF
:10013000F5430008F5430008F5430008F5430008BF
:10014000F5430008F5430008F5430008F5430008AF
:10015000F5430008F5430008F5430008F54300089F
:10016000F5430008F5430008F5430008F54300088F
:10017000F5430008F5430008F5430008F54300087F
:10018000F5430008F5430008F5430008F54300086F
:10019000F543000800000000F5430008F54300089F
:1001A000F5430008F5430008F5430008F54300084F
:1001B000F5430008F5430008F5430008F54300083F
:1001C000F5430008F5430008F5430008F54300082F
:0801D000F5430008F5430008A7
:1001E0000348044B834202D0034B03B118477047C6
:1001F0007000002070000020000000000548064943
:100200000B1AD90F01EBA301491002D0034B03B124
:1002100018477047700000207000002000000000A8
:1002200010B5064C237843B9FFF7DAFF044B13B13E
:100230000448AFF300800123237010BD700000203C
:1002400000000000F843000808B5044B1BB1044946
:100250000448AFF30080BDE80840CFE7000000008D
:1002600074000020F8430008014B1868704700BF75
:100270000000002070B50D4E0D4D761BB61006D057
:10028000002455F8043B01349847A642F9D1094EA1
:10029000094D761B04F0B0F8B61006D0002455F8CE
:1002A000043B01349847A642F9D170BDE0440008F0
:1002B000E0440008E4440008E0440008830730B547
:1002C00048D0541E002A3FD0CAB2034601E0013C88
:1002D0003AD303F8012B9D07F9D1032C2DD9CDB2C8
:1002E00045EA05250F2C45EA054536D9A4F110024B
:1002F00022F00F0C03F1200EE6444FEA121C03F12A
:10030000100242E9045542E9025510327245F8D113
:100310000CF1010214F00C0F03EB021204F00F0CAD
:1003200013D0ACF1040323F003030433134442F865
:10033000045B9342FBD10CF003042CB1CAB21C4401
:1003400003F8012B9C42FBD130BD64461346002CC0
:10035000F4D1F9E703461446BFE71A46A446E0E79E
:1003600008B410B5002A9DB0044633DB4FF4027385
:10037000ADF814300291069120AB17D0013A4FF638
:10038000FF7104920792ADF816101F9A019302A90B
:1003900000F048F9421C01DA8B232360029B002203
:1003A0001A701DB0BDE8104001B070474FF6FF71E4
:1003B00004920792ADF816101F9A019302A900F05B
:1003C00031F9431C01DA8B2323601DB0BDE81040D6
:1003D00001B070478B2303604FF0FF30F5E700BF9B
:1003E0000CB410B51F4B00291C689CB035DB4FF4D2
:1003F0000273ADF81430029006901FAB18D001398B
:100400004FF6FF7204910791ADF8162002A91E9ACB
:100410000193204600F006F9421C01DA8B23236089
:10042000029B00221A701CB0BDE8104002B0704759
:100430004FF6FF7204910791ADF8162002A91E9A9B
:100440000193204600F0EEF8431C01DA8B23236071
:100450001CB0BDE8104002B070478B2323604FF002
:10046000FF30F5E7000000202DE9F0478F689F423C
:100470000C461D46164638D88246888910F4906F7F
:100480000ED108683D462A46314600F0C3FCA268FA
:100490002368D21B2B44A26023600020BDE8F087B4
:1004A0004B69096903EB4308236808EBD878A3EB91
:1004B00001096B1C4FEA68084B444345424684BF20
:1004C00098464246430513D51146504600F080FD3C
:1004D000074608B321694A4600F002FCA38923F4C9
:1004E000906343F08003A38107E008681F46CAE7D2
:1004F000504600F0C7FD074650B107EB0900A8EBD6
:1005000009032761C4F81480A36020602F46BAE76E
:100510002169504600F0FAFC0C23CAF80030A38988
:1005200043F040034FF0FF30A381B7E72DE9F04FD0
:10053000936883B09146002B6ED017688D68804613
:100540000C460868083744E0A38913F4906F2ED056
:10055000D4E90415A0EB010A05EB450505EBD575BB
:100560000AEB06006D100130A8422A4684BF0546FA
:100570002A465B0537D51146404600F029FD002884
:100580003BD052462169019000F0AAFBA289019B51
:1005900022F4906242F08002A281A5EB0A0203EBF2
:1005A0000A006561A260236120603546B246594663
:1005B000524600F02FFCA068D9F808102368451BAC
:1005C0008E1B03EB0A00A5602060C9F808601EB30B
:1005D000083757E902B6002EFAD0B542AA46B3D979
:1005E0003546B246E3E7404600F04CFD034600289E
:1005F000D3D12169404600F089FC0C23C8F80030B3
:10060000A389002243F040034FF0FF30A381C9E9E2
:10061000012203B0BDE8F08F0020C9F8040003B048
:10062000BDE8F08F2DE9F04F92468A8915069DB0FE
:10063000884681461C4603D50A69002A00F0EF80EF
:10064000002209929AF800307E4D039420228DF802
:10065000292030228DF82A200126002B72D0544602
:1006600003E014F8013F002B76D0252BF9D1B4EB31
:100670000A0B74D12278002A64D000234FF0FF3295
:10068000CDE90523049307938DF853301A93013471
:1006900004E0049A06FA03F313430493A2460522E6
:1006A00014F8011B284600F0CBFA431B0028F0D1B8
:1006B000049BD80644BF20228DF8532019079AF8CE
:1006C000001044BF2B228DF853202A2954D1039ABD
:1006D00011680432002903927CDB07919AF801101B
:1006E0000AF1010A2E2959D0574C0322204600F066
:1006F000A7FA40B1049B001B402404FA00F0034316
:1007000004930AF1010A1AF8011B50488DF82810C9
:10071000062200F095FA002862D04D4B002B52D0F3
:1007200003AA00924B4B424604A94846AFF300800F
:1007300007467A1C06D0099B3B4409939AF800307F
:10074000002B8CD1B8F80C305B0654BF09984FF0E1
:10075000FF301DB0BDE8F08FB4EB0A0BF2D05B4662
:10076000524641464846FFF77FFE0130EAD0099BDA
:1007700022785B4409937EE7A1F13002092AB1D8BF
:10078000079B1AF8011F03EB830302EB4303A1F15C
:100790003002092AF5D92E290793A5D19AF801101C
:1007A0002A2927D1039B9AF802101A68059204336C
:1007B000002A0AF102000393B8BF4FF0FF338246CC
:1007C000B8BF059390E7039B073323F00703083373
:1007D0000393B0E7494243F00203079104937DE796
:1007E00003AA00921B4B424604A9484600F0CAF8EF
:1007F00007469EE7A1F130020023092A05930AF17A
:10080000010A3FF671AF1AF8011F03EB830302EBF5
:100810004303A1F13002092AF5D9059364E7402189
:1008200000F0D6FBC8F80000C8F8100018B140224C
:10083000C8F8142004E70C23C9F800304FF0FF304B
:1008400087E700BF9C440008A4440008A8440008AF
:1008500000000000690400082DE9F84F92461F4689
:100860000A698B68DDF828909A42B8BF1A46CAF820
:10087000002091F843300C46064613B10132CAF805
:100880000020226891065DD5DAF800300233CAF8FC
:100890000030226812F0060F11461ED1E168CB1A13
:1008A000002BD8BF114618DD04F1190B4FF00008DA
:1008B00005E0E568DAF80030ED1A45450CDD012366
:1008C0005A4639463046C847013008F10108F0D190
:1008D0004FF0FF30BDE8F88F216894F84330003BBB
:1008E00018BF01238A060AD5E1185A1C302081F866
:1008F0004300224494F8451082F84310023304F177
:10090000430239463046C8470130E1D0236803F03E
:100910000603042B1DD0A3682269934225DD4FF006
:1009200000089B1A98441A34002501E045451CDA5A
:100930000123224639463046C847013005F10105FA
:10094000F4D1C5E712F0060F12D0003B18BF012307
:10095000D5E7DAF80030E1682269C91AA368934242
:1009600021EAE178DDDC0029DDDC0020BDE8F88F3C
:10097000E168DAF80030CB1A002BD8BF114693DCBF
:10098000ABE700BF2DE9F0470C4684B09046227ECD
:100990000C990746994604F14300002A33D0A2F18E
:1009A0005803DDB2202D67D8202B65D8DFE813F07F
:1009B000DE0064006400640064006400640064009D
:1009C000640064006400A3006E00640064006400BE
:1009D00064006E00640064006400640021007F0015
:1009E000C00064006400AE0064007F006400640026
:1009F000E50023681A0640F104810B6862691D1D39
:100A00000D601B681A60002382462361CDF80090B8
:100A1000434603AA21463846FFF71EFF013020D087
:100A20002369524641463846C847013019D02368E9
:100A3000E068039E9B0719D5831B002B16DD04F18C
:100A4000190A002504E0E068039E831BAB420DDD1C
:100A50000123524641463846C847013005F1010599
:100A6000F1D14FF0FF3004B0BDE8F087B042B8BF1D
:100A7000304604B0BDE8F087012384F842202361AA
:100A800004F1420A002384F84330BFE723681A06C2
:100A900002D45E0600F1C1800D682A6804350D603D
:100AA0001546002A6BDBDFF884C10A2610E02368B4
:100AB0001D0640F19C800B681D1D0D601D68DFF850
:100AC0006CC16F2A0CBF08260A26002384F8433025
:100AD0006268A260002A7FDB236823F0040323609E
:100AE000002D5BD1002A79D18246082E65D0A0EB7B
:100AF0000A0020618AE70B680122186804330B6042
:100B000004F1420A84F842002261BBE70B68626884
:100B1000181D0860D3F800A00021504600F090F89E
:100B2000002800F08180A0EB0A0060602061A9E746
:100B3000236843F0200323607822DFF8F4C084F8B0
:100B400045200A68151D0D601D0643D4590641D580
:100B50001588DE0744BF43F020032360002D44D1F5
:100B6000236823F0200323601026AEE7582384F87F
:100B70004530DFF8B8C02368E3E72368DCE7626844
:100B8000A2602D21002AC5F1000584F8431002DB84
:100B900023F004032360DFF894C00A268246B5FBE5
:100BA000F6F306FB13512A461CF801100AF8011D42
:100BB000B2421D46F3D2082E99D12368D90796D5A3
:100BC000626823699A4292DC30230AF8013C0AF1F8
:100BD000FF3A8CE71568BCE7002DDFD19CF80030A8
:100BE00084F8423004F1420A7FE710266DE713F0E3
:100BF000400F0B6803F104050D600CBF1D681D88D4
:100C00005DE713F0400F0B68626903F104050D60A6
:100C10001B6814BF1A801A60F5E60A68B2F9005022
:100C200004320A602A463CE760687FE7B044000867
:100C3000C4440008000000000000000000000000A4
:100C400001F0FF01102A2BDB10F0070F08D010F87D
:100C5000013B013A8B422DD010F0070F42B3F6D181
:100C6000F0B441EA012141EA014122F007047FF09A
:100C700000070023F0E80256083C85EA010586EAF1
:100C8000010685FA47F5A3FA87F586FA47F6A5FA2D
:100C900087F68EB9EED1F0BC01F0FF0102F0070239
:100CA00032B110F8013B013A83EA010313B1F8D1E4
:100CB0000020704701387047002D06BF35460338C5
:100CC000073815F0010F07D1013015F4807F02BFFE
:100CD000013015F4C03F0130F0BC0138704700BF4F
:100CE000844641EA000313F003036DD1403A41D337
:100CF00051F8043B40F8043B51F8043B40F8043BF6
:100D000051F8043B40F8043B51F8043B40F8043BE5
:100D100051F8043B40F8043B51F8043B40F8043BD5
:100D200051F8043B40F8043B51F8043B40F8043BC5
:100D300051F8043B40F8043B51F8043B40F8043BB5
:100D400051F8043B40F8043B51F8043B40F8043BA5
:100D500051F8043B40F8043B51F8043B40F8043B95
:100D600051F8043B40F8043B51F8043B40F8043B85
:100D7000403ABDD2303211D351F8043B40F8043B25
:100D800051F8043B40F8043B51F8043B40F8043B65
:100D900051F8043B40F8043B103AEDD20C3205D335
:100DA00051F8043B40F8043B043AF9D2043208D02D
:100DB000D2071CBF11F8013B00F8013B01D30B889F
:100DC00003806046704700BF082A13D38B078DD07D
:100DD00010F003038AD0C3F10403D21ADB071CBF4F
:100DE00011F8013B00F8013B80D331F8023B20F8B9
:100DF000023B7BE7043AD9D3013A11F8013B00F8F2
:100E0000013BF9D20B7803704B7843708B78837079
:100E10006046704788420DD98B1883420AD900EB8F
:100E2000020CBAB1624613F801CD02F801CD994225
:100E3000F9D170470F2A0ED8034602F1FF3C4AB1A0
:100E40000CF1010C013B8C4411F8012B03F8012F2C
:100E50006145F9D1704740EA01039B0750D1A2F1E7
:100E6000100370B501F1200C23F00F0501F1100EF5
:100E700000F11004AC441B095EF8105C44F8105CEF
:100E80005EF80C5C44F80C5C5EF8085C44F8085CA6
:100E90005EF8045C44F8045C0EF1100EE64504F1C3
:100EA0001004E9D1013312F00C0F01EB031102F031
:100EB0000F0400EB031327D0043C24F003064FEA91
:100EC000940C1E441C1F8E465EF8045B44F8045FBD
:100ED000B442F9D10CF1010402F0030203EB8403E4
:100EE00001EB840102F1FF3C4AB10CF1010C013B22
:100EF0008C4411F8012B03F8012F6145F9D170BD25
:100F000002F1FF3C03469BE72246EBE7002958D05D
:100F100030B551F8043C83B0002BA1F10404B8BFF4
:100F2000E418019000F0E8F8284A0198136833B1FA
:100F3000A3420DD9216804EB010C63452FD06360F7
:100F4000146003B0BDE8304000F0D8B8A34210D818
:100F50001A465B68002BF9D1116802EB010C64455D
:100F600019D02FD36360546003B0BDE8304000F067
:100F7000C5B8116802EB010CA44516D022D821682F
:100F800004EB010C6345EDD11D685B682944C4E99D
:100F900000135460D5E7236819441160D1E71D6838
:100FA0005B682944C4E90013CAE724682144541843
:100FB000A3421160C5D1D3E900432144C2E9001323
:100FC000BFE770470C230360BBE700BF8C00002025
:100FD000F8B5CD1C25F0030508350C2D38BF0C25C0
:100FE000002D064623DBA94221D8254F00F084F8C6
:100FF0003A6822B3144603E063682246FBB11C46FC
:1010000023685B1BF8D40B2B15D8636894420CBF84
:101010003B605360304600F071F804F10B00231D73
:1010200020F00700C21A01D01B1AA350F8BD0C23F0
:1010300033600020F8BD23601C442560EAE779682E
:10104000C9B12946304600F045F8431C0CD0C41CF9
:1010500024F00304A04205D0211A304600F03AF8EB
:10106000013001D02560D5E70C233046336000F015
:1010700045F80020F8BD304600F02CF87860E0E735
:101080008C000020F8B51446F9B1CAB106460D46E9
:1010900000F036F8A04202D32F463846F8BD21466C
:1010A0003046FFF795FF07460028F6D0224629462E
:1010B000FFF716FE30462946FFF728FF3846F8BDF1
:1010C0002746FFF723FF3846F8BDBDE8F840114634
:1010D000FFF77EBF38B5074D0022044608462A6058
:1010E00003F03CF9431C00D038BD2B68002BFBD02B
:1010F000236038BD94000020704700BF704700BFD8
:1011000051F8040C0028A0F10400BCBF0B58C01813
:10111000704700BF53B94AB9002908BF00281CBF57
:101120004FF0FF314FF0FF3000F074B9ADF1080C13
:101130006DE904CE00F006F8DDF804E0DDE90223F5
:1011400004B070472DE9F047089D04468E46002BF9
:101150004DD18A42944669D9B2FA82F252B101FA6B
:1011600002F3C2F1200120FA01F10CFA02FC41EA7B
:10117000030E94404FEA1C48210CBEFBF8F61FFA00
:101180008CF708FB16E341EA034306FB07F199429B
:101190000AD91CEB030306F1FF3080F01F8199424E
:1011A00040F21C81023E63445B1AA4B2B3FBF8F028
:1011B00008FB103344EA034400FB07F7A7420AD9AF
:1011C0001CEB040400F1FF3380F00A81A74240F2D7
:1011D00007816444023840EA0640E41B00261DB142
:1011E000D4400023C5E900433146BDE8F0878B4277
:1011F00009D9002D00F0EF800026C5E90001304636
:101200003146BDE8F087B3FA83F6002E4AD18B420F
:1012100002D3824200F2F980841A61EB03030120B9
:101220009E46002DE0D0C5E9004EDDE702B9FFDEA5
:10123000B2FA82F2002A40F09280A1EB0C014FEA50
:101240001C471FFA8CFE0126200CB1FBF7F307FBAD
:10125000131140EA01410EFB03F0884208D91CEB50
:10126000010103F1FF3802D2884200F2CB804346ED
:10127000091AA4B2B1FBF7F007FB101144EA0144CC
:101280000EFB00FEA64508D91CEB040400F1FF315B
:1012900002D2A64500F2BB800846A4EB0E0440EA49
:1012A00003409CE7C6F12007B34022FA07FC4CEA52
:1012B000030C20FA07F401FA06F31C43F9404FEA45
:1012C0001C4900FA06F3B1FBF9F8200C1FFA8CFE5A
:1012D00009FB181140EA014108FB0EF0884202FAAE
:1012E00006F20BD91CEB010108F1FF3A80F088806F
:1012F000884240F28580A8F102086144091AA4B22C
:10130000B1FBF9F009FB101144EA014100FB0EFEAC
:101310008E4508D91CEB010100F1FF346CD28E45DB
:101320006AD90238614440EA0840A0FB0294A1EB6C
:101330000E01A142C846A64656D353D05DB1B3EBC9
:10134000080261EB0E0101FA07F722FA06F3F140F9
:101350001F43C5E9007100263146BDE8F087C2F1A0
:101360002003D8400CFA02FC21FA03F39140014318
:101370004FEA1C471FFA8CFEB3FBF7F007FB103651
:101380000B0C43EA064300FB0EF69E4204FA02F4FD
:1013900008D91CEB030300F1FF382FD29E422DD950
:1013A000023863449B1B89B2B3FBF7F607FB163385
:1013B00041EA034106FB0EF38B4208D91CEB010105
:1013C00006F1FF3816D28B4214D9023E6144C91A85
:1013D00046EA004638E72E46284605E70646E3E695
:1013E0001846F8E64B45A9D2B9EB020864EB0C0E9F
:1013F0000138A3E74646EAE7204694E74046D1E7AE
:10140000D0467BE7023B614432E7304609E764445B
:10141000023842E7704700BF82B00A4BDA6C42F0F4
:101420000102DA64DA6C02F001020092009ADA6CCE
:1014300042F00202DA64DB6C03F002030193019BC9
:1014400002B070470010024010B50A4C204601F06F
:10145000F3F80A21204600F033FB28B100240548A8
:1014600001F0CAF9204610BD204600F0CFFB04462B
:10147000F5E700BF9800002072B6FEE710B58CB00B
:10148000002409940A940B942022214601A8FEF717
:1014900015FF1E484FF0A04303604FF40033436034
:1014A0008460C460046144610423836104774477E9
:1014B0000123036280F82440C462046380F838404A
:1014C000C46380F8404000F0ADF9C8B90023099327
:1014D00009A90E4801F006FAA0B90D4B01930623A5
:1014E0000293002303937F22049204220592069321
:1014F0000DEB0201054800F001FD28B90CB010BD4C
:10150000FFF7BAFFFFF7B8FFFFF7B6FF980000201C
:101510000200300408B51548154B03604FF4E13361
:10152000436000238360C36003610C2242618361D6
:10153000C36103624362836202F042FE70B900211C
:101540000A4802F0B6FE58B90021084802F0D6FE5B
:1015500040B9064802F08EFE30B908BDFFF78CFF97
:10156000FFF78AFFFFF788FFFFF786FF04010020DF
:101570000038014000B595B03822002106A8FEF7DA
:101580009DFE0023019302930393049305934FF46C
:10159000007002F09FF9022306934FF480720992C3
:1015A00040220A920D930E9301220F920C22109268
:1015B000119304221292139306A801F005FB70B94F
:1015C0000F230193012302930021039104910591BC
:1015D00001A801F0ADFD20B915B05DF804FBFFF7DF
:1015E0004BFFFFF749FF000000B599B001F08CFAFE
:1015F000FFF7C0FFFFF710FFFFF740FFFFF78AFF7D
:101600007F21194801F01AF94FF0FF331D221749C5
:10161000174802F0FFFCFFF717FF40F6E44300FB1A
:1016200003F3144AA2FB03129B1A02EB5302D20AE1
:10163000114BA3FB02139B09029201904FF47A71A4
:1016400001FB132200920D4A502104A8FEF7C8FEA8
:101650004FF0FF3382B204A9054802F0DBFCC8203A
:1016600001F074FAD7E700BF98000020104400088A
:101670000401002001011000D34D62103044000825
:10168000FEE7FEE7FEE7FEE7FEE7704770477047BC
:1016900008B501F049FA08BD08B5024800F0BCFAE7
:1016A00008BD00BF9800002000B583B00B4B1A6E38
:1016B00042F001021A661A6E02F001020092009ACC
:1016C0009A6D42F080529A659B6D03F080530193AE
:1016D000019B02F085F903B05DF804FB00100240A5
:1016E00030B59FB00446002119911A911B911C91AD
:1016F0001D91542204A8FEF7E1FD2368B3F1A04F29
:1017000001D01FB030BD4FF4004304934FF000539D
:10171000159304A801F032FE002838D11D4BDA6C75
:1017200042F40052DA64DA6C02F400520192019A37
:10173000DA6C42F00102DA64DA6C02F00102029221
:10174000029ADA6C42F00202DA64DB6C03F0020304
:101750000393039B0F23199303251A9500241B94CD
:1017600019A94FF0904001F0C5FF41F6030319930A
:101770001A951B9419A9084801F0BCFF224621467E
:10178000122002F047F9122002F07CF9B9E7FFF7C6
:1017900073FEC3E7001002400004004810B59CB07F
:1017A000044600211791189119911A911B91542206
:1017B00002A8FEF783FD2268174B9A4201D01CB0A5
:1017C00010BD0123029302A801F0D8FD00BB134B0A
:1017D0001A6E42F480421A661A6E02F48042009237
:1017E000009ADA6C42F00202DA64DB6C03F0020366
:1017F0000193019BC023179302231893002319938D
:101800001A9307231B9317A9054801F073FFD6E726
:10181000FFF732FEDBE700BF003801400010024056
:101820000004004830B583B000230193002800F085
:1018300032810446C36D13B323689A6812F0005FC7
:1018400005D09A6822F0204222F03F029A60226876
:10185000936813F0805F1FD1936823F0104323F047
:101860003F0343F0805393608C4B1B689B098C4A69
:10187000A2FB03239B0901335B00019309E0FFF7FF
:101880002FFF0023236684F85830D5E7019B013BE6
:101890000193019B002BF9D12268936813F0805FBC
:1018A0003DD1E36D43F01003E365236E43F0010384
:1018B00023660120936813F0040300D00123E16D37
:1018C00011F0100F40F0E080002B40F0DD80E36D60
:1018D00023F4817343F00203E365936813F0010F6F
:1018E0003ED1B2F1A04F1CD06E4B9A4219D06E4B34
:1018F000996811F0010100D001216C4B9B6813F035
:10190000010300D001230B436949896811F00101EB
:1019100000D001210B430CBF0123002312E0002063
:10192000C8E74FF0A0439B6813F0010300D00123E8
:101930005C49896811F0010100D001210B430CBF03
:101940000123002363B1B2F1A04F6CD0554B9A42F2
:1019500067D0584963688A6822F47C1213438B600D
:10196000627FE36B43EA4233E2681343A2681343A6
:1019700094F8242043EA0243012A56D0E26A22B1B5
:1019800002F47872216B0A4313432168CD684A4AF6
:101990002A401343CB602268136923F04063616BD4
:1019A0000B4313612268936813F0080300D00123EE
:1019B00043BB217F94F838305B0043EA8131D36820
:1019C00023F4804323F002030B43D3602369002BED
:1019D00030D02268136943F4803313612268D2F84F
:1019E000C03023F47F5323F03F0321690B43C2F837
:1019F000C03094F84030012B2BD02268136923F0BB
:101A0000010313616369012B35D02268136B23F046
:101A10000F031363E36D23F0030343F00103E36556
:101A200037E0264996E7254994E7A26A013A43EA56
:101A30004243A3E72268136923F4803313612268C9
:101A4000D2F8C03023F47F5323F03F03C2F8C030F4
:101A5000CFE721680B6923F4FF6323F00403626C72
:101A6000A56C2A43E56C2A43256D2A43134343F0B2
:101A700001030B61C6E721680B6B23F00F03226A99
:101A8000013A13430B63C5E7E36D43F01003E365CD
:101A9000012003B030BD0120FBE700BF6C00002037
:101AA000632D3E0500010050000400500005005069
:101AB00000060050000700500740F0FF00030050F0
:101AC0002DE9F04104460E460368B3F1A04F1ED045
:101AD0004B4A934218D04B4A976807F01F07A569F5
:101AE000082D1BD0AFB1052F13D0092F11D0B3F1A2
:101AF000A04F3AD0424A934235D0424B9B6813F4F0
:101B0000604F34D1042509E002F50072E4E73E4A53
:101B1000E2E7DB6813F0010F1FD1042501F010F894
:101B2000804623681A682A4227D1B6F1FF3FF8D0D1
:101B300001F006F8A0EB0800B04201D8002EF0D169
:101B400023681B682B42ECD1E36D43F00403E3658B
:101B5000002384F8583003204DE0E36D43F0200368
:101B6000E365012047E0284BC8E7274BC6E7E36D54
:101B700043F02003E36501203DE0E26D42F4007292
:101B8000E265DA6812F4406F11D1627F7AB91A689F
:101B900012F0080F0BD0E26D22F48072E265E26D64
:101BA00012F4805F03D1E26D42F00102E265144A53
:101BB000934210D002F58062934209D01A469342B4
:101BC0000CD05FB1052F09D0092F07D0D26806E0ED
:101BD000A2F58072F3E74FF0A042F0E7DA68082D33
:101BE00006D012F4804F08D10C221A60002002E0C7
:101BF00008221A600020BDE8F0810020FBE700BF4A
:101C00000001005000070050000300500368186CEA
:101C10007047704770477047F8B5044603681E6800
:101C20005F68B3F1A04F46D0974A934241D0974B9B
:101C30009D6805F01F0516F0020F10D017F0020F77
:101C40000DD0E36D13F0100F03D1E36D43F4006387
:101C5000E365204600F044FE236802221A6016F075
:101C6000040F02D017F0040F05D116F0080F55D05D
:101C700017F0080F52D0E36D13F0100F03D1E36D8E
:101C800043F40073E3652368DA6812F4406F3FD1D0
:101C90007D4A934214D002F5806293420DD01A46D9
:101CA000934210D07DB1052D0DD0092D0BD0D268F7
:101CB0000AE0774BBCE7764BBAE7A2F58072EFE714
:101CC0004FF0A042ECE7DA6812F4005F20D11A6806
:101CD00012F0080F1CD09A6812F0040F10D15A6845
:101CE00022F00C025A60E36D23F48073E365E36D28
:101CF00013F4805F0CD1E36D43F00103E36507E06B
:101D0000E36D43F01003E365236E43F001032366A4
:101D10002046FFF77EFF23680C221A6016F0200F82
:101D200002D017F0200F05D116F0400F63D017F046
:101D3000400F60D0E36D13F0100F03D1E36D43F457
:101D40000053E3652368DA6C12F4C07F16D10121D9
:101D5000DA6812F4406F13D101204B4A934214D039
:101D600002F5806293420DD01A46934210D07DB1A5
:101D7000062D0DD0072D0BD0D2680AE00021E7E731
:101D80000020EAE7A2F58072EFE74FF0A042ECE70F
:101D9000DA6851B312F0007F03D030B312F4005F61
:101DA00023D1196811F0400F1FD012F4001F1CD16D
:101DB0009A6812F0080F10D15A6822F060025A6037
:101DC000E36D23F48053E365E36D13F4807F0CD15E
:101DD000E36D43F00103E36507E0E36D43F01003B7
:101DE000E365236E43F001032366204600F074FD93
:101DF000236860221A6016F0800F02D017F0800F5F
:101E000036D116F4807F02D017F4807F42D116F4C9
:101E1000007F02D017F4007F48D116F0100F20D0B9
:101E200017F0100F1DD0E36B6BB1002D4ED023685F
:101E3000B3F1A04F48D0144A934243D0134B9B6850
:101E400013F4604F0AD0E36D43F48063E365236EBF
:101E500043F0020323662046FFF7DDFE23681022CD
:101E60001A6016F4806F02D017F4806F34D1F8BD79
:101E7000E36D43F48033E3652046FFF7CBFE236830
:101E800080221A60BDE700BF00010050000700502B
:101E900000030050E36D43F40033E365204600F097
:101EA0001DFD23684FF480721A60B0E7E36D43F4C0
:101EB0008023E365204600F012FD23684FF4007292
:101EC0001A60AAE70C4BBAE70B4BB8E72368DB684C
:101ED00013F0010FC2D0B6E7E36D43F48043E3652E
:101EE000236E43F00803236623684FF480621A6070
:101EF000204600F0F2FCBAE700030050F0B583B0D2
:101F00000022019290F85820012A00F08A820346AC
:101F1000012280F858200568A86810F0040F09D045
:101F2000DA6D42F02002DA650120002283F85820A1
:101F300003B0F0BD4C683035220A920002F00C026A
:101F4000A85804F01F0E1F2404FA0EF420EA04001F
:101F50000C68C4F3846C0CFA0EFC40EA0C00A85028
:101F60001868826812F0040200D00122846814F01C
:101F7000080400D00124002A50D1002C4ED18F68D3
:101F8000B7F1004F00F08B800E681430720E920093
:101F900002F004028558C6F3045E4FF0070C0CFAF9
:101FA0000EFC25EA0C0C07FA0EF54CEA05058550E7
:101FB0001868426922F0004242614D691868C2689F
:101FC000C2F3C102520005FA02F20E69042E7ED05D
:101FD000603050F82670AD4D3D400F6807F0F8476F
:101FE0003A43154345F0004540F826501A680E69FB
:101FF0008869603252F8265025F08075284342F8EF
:1020000026001A680D69087F01285DD0603252F8F9
:10201000250020F00070044342F8254018688268CB
:1020200012F0010F17D10A68CD68D0F8B040C2F3A2
:10203000120C24EA0C0405F0180C954D25FA0CF549
:102040002A40C2F312022243C0F8B020C868914A65
:10205000904200F0A4800A688F490A4200F0D781BC
:102060001968B1F1A04F00F06E818C48814200F0F8
:1020700067818B48806800F0E0748A4DAA4200F0C6
:102080006481894DAA4200F06081884DAA4200F027
:102090008F81874DAA4200F0A581002045E70D6899
:1020A00014306A0E920002F004028658C5F30455FB
:1020B000072707FA05F526EA0505855018684269DD
:1020C00042F00042426178E74FF000749EE7026EF2
:1020D000046EC4F384640A68C2F3120585BBC2F3BC
:1020E0008462944234D01C68626E606EC0F3846077
:1020F0000A68C2F3120585BBC2F38462904234D0F1
:102100001C68A26EA06EC0F384600A68C2F3120558
:1021100085BBC2F38462904234D01C68E26EE06EEC
:10212000C0F384600A68C2F3120585BBC2F38462FF
:1021300090427FF473AFE26E22F00042E2666DE7F8
:1021400092FAA2F212B1B2FA82F2CAE72022C8E7EA
:10215000026E22F000420266C5E792FAA2F212B1C4
:10216000B2FA82F2CAE72022C8E7626E22F0004289
:102170006266C5E792FAA2F212B1B2FA82F2CAE737
:102180002022C8E7A26E22F00042A266C5E792FABA
:10219000A2F212B1B2FA82F2CAE72022C8E71C68A2
:1021A0000A68C2F31205002D38D1900E013000F0FC
:1021B0001F0009288CBF0020012000287AD0002DA4
:1021C0003BD1900E0130800600F0F840002D40D148
:1021D000960E013606F01F070126BE403043002D43
:1021E00045D1920E013202F01F0202EB42021205AB
:1021F0000243886804F11406550EAD0005F004058D
:102200007459C2F304524FF0070C0CFA02FC24EA92
:102210000C0C90404CEA000070511CE792FAA2F0BE
:1022200048B1B0FA80F0013000F01F0009288CBFDF
:1022300000200120C1E72020F5E792FAA2F030B19A
:10224000B0FA80F00130800600F0F840BEE72020B0
:10225000F8E792FAA2F646B1B6FA86F6013606F02B
:102260001F06012707FA06F6B8E72026F6E792FAD6
:10227000A2F242B1B2FA82F2013202F01F0202EB84
:1022800042021205B4E72022F6E700BF00F0FF0388
:10229000FFFF070000007F400000088000010050A1
:1022A00000070050000021C31000C090000052C77A
:1022B000000084CBCDB9900E0130800600F0F840CC
:1022C000FDB9960E013606F01F070126BE403043C9
:1022D0002DBB920E013202F01F0202EB42021E3AA7
:1022E000120542F00072024383E792FAA2F030B185
:1022F000B0FA80F00130800600F0F840E0E72020DE
:10230000F8E792FAA2F646B1B6FA86F6013606F07A
:102310001F06012707FA06F6D9E72026F6E792FA04
:10232000A2F25AB1B2FA82F2013202F01F0202EBBB
:1023300042021E3A120542F00072D4E72022F3E76F
:1023400000F5007096E6384894E610F4000F7FF42C
:102350009CAEB1F1A04F04D0344A914201D000208C
:10236000E3E5B1F1A04F19D0314A914214D031497F
:1023700044F400048A6822F0E07214438C602E4A10
:10238000126892092D49A1FB02129209013202EB57
:1023900042029200019206E02349E9E72249E7E779
:1023A000019A013A0192019A002AF9D10020BCE574
:1023B00010F0807F7FF46DAE1D4A914229D002F566
:1023C0008062914227D0B1F1A04F09D0194844F062
:1023D0008072816821F0E0710A4382600020A4E5E8
:1023E0001148F4E710F4800F17D1114A914216D02A
:1023F000B1F1A04F09D00F4844F48002816821F068
:10240000E0710A43826000208FE50748F4E700206E
:102410008BE5002089E5002087E5002085E5002088
:1024200083E5022084E500BF000300500006005051
:1024300000010050000700506C000020632D3E0595
:1024400070B5044603689A6812F0040200D00122B5
:10245000986810F0080000D001200AB900286BD05D
:10246000DA6812F0007F04D0A08B40F20112904293
:102470004ED0022910D023689A6812F0040F0BD0B6
:102480009A6812F0020F07D19A6822F0004222F0F7
:102490003F0242F010029A60012910D023689A6826
:1024A00012F0080F0BD09A6812F0020F07D19A6849
:1024B00022F0004222F03F0242F020029A600229FC
:1024C00034D0032934D10C2500F03AFB06462368AA
:1024D0009B682B422ED000F033FB801B0528F6D9D9
:1024E00023689B682B42F2D0E36D43F01003E36551
:1024F000236E43F00103236601201CE0E36D43F0EB
:102500001003E365236E43F001032366012012E00C
:102510000022196811F0400F04D108498A42EDD811
:102520000132F6E740221A600121A4E70825CBE733
:102530000425C9E7002070BD0020FCE7FFFF3FA392
:1025400030B583B00023019303689A6812F0010F3D
:1025500063D104469968324A114220D19A6822F028
:10256000004222F03F0242F001029A600368B3F198
:10257000A04F20D02B4A93421BD02B4B9B6813F4C7
:10258000000F20D0294B1B689B09294AA2FB03237B
:102590009B09013303EB43039B00019310E0C36DE0
:1025A00043F01003C365036E43F00103036601208B
:1025B00034E0204BE2E71F4BE0E7019B013B019336
:1025C000019B002BF9D100F0BBFA054623681A687D
:1025D00012F0010F1FD19A6812F0010F07D19A680B
:1025E00022F0004222F03F0242F001029A6000F025
:1025F000A7FA431B022BE9D923681B6813F0010FCC
:10260000E4D1E36D43F01003E365236E43F001036F
:102610002366012002E0002000E0002003B030BD6E
:102620003F00008000010050000700506C000020B7
:10263000632D3E050003005038B504460368B3F12E
:10264000A04F5DD0444A934257D0444A956805F064
:102650001F059B6813F0040F7AD194F85830012BB2
:1026600078D0012384F858302046FFF769FF00280E
:102670006AD1E36D23F4706323F0010343F48073A4
:10268000E3652368344A93423FD002F58062934267
:1026900038D01A46934200D01DB9E26D22F4801260
:1026A000E265E26D12F4805F32D0226E22F0060203
:1026B00022661C221A60002384F858302268264BB8
:1026C0009A422BD003F580639A4224D013469A4253
:1026D00027D035B3052D24D0092D22D0E26D42F448
:1026E0008012E265DB6813F0007F32D0E36D23F4E3
:1026F000405343F48053E3652BE002F50072A5E7F5
:10270000174AA3E7A2F58072C4E74FF0A042C1E7E1
:1027100000222266CDE7A3F58073D8E74FF0A043EF
:10272000D5E7D36813F0007F05D0E36D23F4405361
:1027300043F48053E365936823F0004323F03F03A1
:1027400043F00403936004E0002384F8583000E071
:10275000022038BD0220FCE70001005000070050B5
:102760000003005038B504460268936813F0020372
:1027700000D00123916811F0010F39D0002B39D11D
:10278000936803F00D03012B09D0E36D43F01003B0
:10279000E365236E43F001032366012029E093687B
:1027A00023F0004323F03F0343F0020393602368C8
:1027B00003221A6000F0C4F9054623689B6813F0F1
:1027C000010F13D000F0BCF9401B0228F5D9236893
:1027D0009B6813F0010FF0D0E36D43F01003E36545
:1027E000236E43F001032366012002E0002000E095
:1027F000002038BD0020FCE790F85830012B1AD09B
:1028000010B50446012380F858300321FFF718FE65
:1028100018B1002384F8583010BD2046FFF7A2FFFE
:102820000028F6D1E36D23F4885323F0010343F02D
:102830000103E365EDE702207047000030B583B087
:102840000023019390F85830012B41D004460D46E7
:10285000012380F85830FFF785FF80BBE36D23F438
:10286000885323F0020343F00203E3652268936870
:1028700023F0404323F03F0305F080452B4343F012
:102880000043936023689B68002B06DBE36D23F015
:10289000030343F00103E36515E0019B013301935A
:1028A000019A0C4B9A42EDD9E36D23F0120343F0E9
:1028B0001003E365002384F85830012006E0E36D3F
:1028C00043F01003E365002384F8583003B030BDB3
:1028D0000220FBE701DE0400704770477047704735
:1028E0007047000090F85820012A00F0D68010B4FC
:1028F0009DB00346012280F85820002218921992B8
:102900000068B0F1A04F47D0654A904247D00022FE
:102910000192019A002A46D0926812F0040200D077
:102920000122846814F0040F40F0A780002A40F0D0
:10293000A480B0F1A04F42D05A4A90423CD05A4AAB
:10294000086800285CD0906820F460404C6893F8D8
:1029500038C044EA4C34204390601868B0F1A04F6E
:102960002FD0504CA0422CD04D48846814F0010464
:1029700000D001244D48806810F0010000D00120F3
:1029800020434B4CA46814F0010400D001242043E0
:102990000CBF0120002025E0424A0192B9E702F570
:1029A00080720192B5E7DA6D42F02002DA6500220A
:1029B00083F85820012068E002F50072C0E73D4A24
:1029C000BEE74FF0A040806810F0010000D0012069
:1029D000344CA46814F0010400D0012420430CBF3F
:1029E00001200020002854D0906820F4716020F06D
:1029F0000F000C688968214308439060002041E083
:102A0000916821F4604191601968B1F1A04F1AD02A
:102A10002448814217D02249886810F0010000D074
:102A200001202249896811F0010100D001210143F0
:102A30001F48806810F0010000D0012001430CBF46
:102A40000121002110E04FF0A041896811F001013F
:102A500000D001211348806810F0010000D001204F
:102A600001430CBF01210021A9B1916821F47161DA
:102A700021F00F019160002004E0DA6D42F02002A5
:102A8000DA650120002283F858201DB05DF8044B60
:102A900070470020F6E70020F4E70220704700BFEF
:102AA00000040050000100500007005000050050D5
:102AB0000006005000030050104B1B680BB90120AA
:102AC000704710B504464FF47A70B0FBF3F30C4A2C
:102AD0001068B0FBF3F000F0E3FF68B90F2C01D9E8
:102AE00001200AE0002221464FF0FF3000F092FF63
:102AF000044B1C60002000E0012010BD6400002099
:102B00006C0000206800002010B5032000F070FF6A
:102B10000F20FFF7D1FF10B10124204610BD04465D
:102B2000FEF7C2FDF9E70000034A1368034909688C
:102B30000B441360704700BF980100206400002020
:102B4000014B1868704700BF9801002038B5044653
:102B5000FFF7F6FF0546B4F1FF3F02D0044B1B68B8
:102B60001C44FFF7EDFF401BA042FAD338BD00BF65
:102B700064000020124BDA6802F00302D868C0F348
:102B80000310431C032A11D00E48B0FBF3F00C4B8A
:102B9000DB68C3F3062303FB00F0094BDB68C3F3D8
:102BA000416301335B00B0FBF3F070470548B0FBB5
:102BB000F3F0034BDB68C3F3062303FB00F0ECE701
:102BC000001002400024F400002800F04F8270B58D
:102BD00082B00446036813F0010F37D0A44A93680B
:102BE00003F00C03D26802F003020C2B23D0082B55
:102BF00023D06368B3F5803F4ED0B3F5A02F51D0FA
:102C00009B4B1A6822F480321A601A6822F48022E0
:102C10001A606368002B52D0FFF792FF0546944B71
:102C20001B6813F4003F11D1FFF78AFF401B642893
:102C3000F5D9032023E2032AD9D18D4B1B6813F465
:102C4000003F03D06368002B00F01282236813F06A
:102C5000020F5DD0864A936803F00C03D26802F03D
:102C600003020C2B3AD0042B3AD0E368002B75D02A
:102C70007F4A136843F480731360FFF761FF0546D2
:102C80007B4B1B6813F4806F5FD1FFF759FF401B2C
:102C90000228F5D90320F2E1754A136843F4803322
:102CA0001360B6E703F18043A3F53C331A6842F49E
:102CB00080221A601A6842F480321A60A9E7FFF78E
:102CC0003FFF05466A4B1B6813F4003FBED0FFF779
:102CD00037FF401B6428F5D90320D0E1022AC2D176
:102CE000634B1B6813F4806F03D0E368002B00F084
:102CF000C1815F4A536823F0FE43216943EA0163BF
:102D000053605C4B1868FFF7D7FE002840F0B48191
:102D1000236813F0080F4CD063699BB3544AD2F870
:102D2000943043F00103C2F89430FFF709FF0546E1
:102D30004F4BD3F8943013F0020F3AD1FFF700FF56
:102D4000401B0228F4D9032099E1494A536823F033
:102D5000FE43216943EA01635360D9E7444A13689B
:102D600023F480731360FFF7EBFE0546404B1B68AE
:102D700013F4806FCCD0FFF7E3FE401B0228F5D997
:102D800003207CE13A4AD2F8943023F00103C2F8E0
:102D90009430FFF7D5FE0546354BD3F8943013F049
:102DA000020F06D0FFF7CCFE401B0228F4D9032007
:102DB00065E1236813F0040F00F081802C4B9B6DBC
:102DC00013F0805F36D12A4B9A6D42F080529A659B
:102DD0009B6D03F080530193019B0125264B1B68DB
:102DE00013F4807F28D0A368012B39D0052B45D060
:102DF0001F4BD3F8902022F00102C3F89020D3F8A3
:102E0000902022F00402C3F89020A368002B43D046
:102E1000FFF796FE0646164BD3F8903013F0020FDC
:102E20004CD1FFF78DFE801B41F288339842F2D9D6
:102E3000032024E10025D1E70F4A136843F480738F
:102E40001360FFF77DFE06460B4B1B6813F4807F73
:102E5000C9D1FFF775FE801B0228F5D903200EE1CA
:102E6000034AD2F8903043F00103C2F89030CCE727
:102E7000001002406800002000700040884BD3F82A
:102E8000902042F00402C3F89020D3F8902042F042
:102E90000102C3F89020B8E7FFF752FE0646804BC8
:102EA000D3F8903013F0020F08D0FFF749FE801BD3
:102EB00041F288339842F2D90320E0E0E5B9236873
:102EC00013F0200F35D0A369E3B1754AD2F89830DA
:102ED00043F00103C2F89830FFF732FE0546704B0D
:102EE000D3F8983013F0020F23D1FFF729FE401BCF
:102EF0000228F4D90320C2E0694A936D23F080537D
:102F00009365DCE7664AD2F8983023F00103C2F8F3
:102F10009830FFF715FE0546614BD3F8983013F053
:102F2000020F06D0FFF70CFE401B0228F4D9032045
:102F3000A5E0E369002B00F0A180594A926802F0F5
:102F40000C020C2A64D0022B13D0554A136823F0CC
:102F500080731360FFF7F4FD0446514B1B6813F0B8
:102F6000007F4ED0FFF7ECFD001B0228F5D90320AF
:102F700085E04B4A136823F080731360FFF7E0FD90
:102F80000546474B1B6813F0007F06D0FFF7D8FDBE
:102F9000401B0228F5D9032071E0414AD36841491A
:102FA0001940236A606A013843EA0013A06A43EAC1
:102FB0000023206B4008013843EA4053606B40080F
:102FC000013843EA4063E06A43EAC0630B43D360DD
:102FD000136843F080731360D36843F08073D36049
:102FE000FFF7AEFD04462E4B1B6813F0007F06D1A1
:102FF000FFF7A6FD001B0228F5D903203FE00020C3
:103000003DE0274AD168284B0B40D360002036E0D2
:10301000012B36D0224BDB6803F00301226A914278
:1030200031D103F0F002616A0139B2EB011F2CD1FA
:1030300003F4FE42A16AB2EB012F28D103F07842DB
:10304000E16AB2EBC16F24D103F4C001226B5208D4
:10305000013AB1EB425F1ED103F0C063626B5208CC
:10306000013AB3EB426F18D1002008E0012070470D
:10307000012004E0012002E0012000E0002002B075
:1030800070BD0120FBE70120F9E70120F7E70120EF
:10309000F5E70120F3E70120F1E70120EFE700BFAA
:1030A000001002400C809F01FCFFEEFE1E4B9B684F
:1030B00003F00C03042B33D01B4B9B6803F00C0371
:1030C000082B2FD0184B9B6803F00C030C2B01D05E
:1030D00000207047144BDA6802F00302D868C0F38E
:1030E0000310431C032A11D01048B0FBF3F00E4B21
:1030F000DB68C3F3062303FB00F00B4BDB68C3F371
:10310000416301335B00B0FBF3F070470748B0FB4D
:10311000F3F0054BDB68C3F3062303FB00F0ECE799
:103120000248704701487047001002400024F40034
:10313000002800F0E680F8B50C460546744B1B6885
:1031400003F00F038B420BD2714A136823F00F0375
:103150000B431360136803F00F038B4240F0D380DE
:103160002E6816F001065FD06B68032B2FD0022B60
:103170004DD0684B1B6813F4806F00F0C680FFF7DA
:1031800095FF654B98424DD9624A936823F0F0034E
:1031900043F08003936080265E4A936823F0030324
:1031A00069680B439360FFF7CBFC0746594B9B685C
:1031B00003F00C036A68B3EB820F35D0FFF7C0FC55
:1031C000C01B41F288339842F0D9032078E0514B7C
:1031D0001B6813F0007F01D1012071E0FFF7CAFCEA
:1031E0004D4B98421AD94B4B9B6813F0F00F05D00A
:1031F0002E6816F00206CFD0AB688BB9454A9368AB
:1032000023F0F00343F0800393608026C4E7414B32
:103210001B6813F4003FB2D1012051E00026BBE748
:103220000026B9E70026B7E72B6813F0020F48D055
:1032300013F0040F04D0374A936843F4E0639360BB
:103240002B6813F0080F06D0324A936823F47C539E
:1032500043F4E06393602F4A936823F0F003A96876
:103260000B4393602A4B1B6803F00F03A34230D833
:103270002B6813F0040F06D0264A936823F4E0630A
:10328000E9680B4393602B6813F0080F07D0214ABD
:10329000936823F46053296943EAC1039360FFF7FD
:1032A00005FF1C4B9B68C3F303131C4AD35C03F05C
:1032B0001F03D8401A4B18601A4B1868FFF7FCFB25
:1032C000F8BD802ECED1134A936823F0F0039360AB
:1032D000C8E70F4A136823F00F0323431360FFF777
:1032E0002FFC06460A4B1B6803F00F03A342BFD016
:1032F000FFF726FC801B41F288339842F2D9032065
:10330000DEE7012070470120DAE70120D8E700BF9F
:10331000002002400010024000B4C40484440008AD
:103320006C00002068000020014B1868704700BF47
:103330006C00002008B5FFF7F7FF054B9B68C3F34F
:103340000223044AD35C03F01F03D84008BD00BF2A
:10335000001002409444000808B5FFF7E5FF054B54
:103360009B68C3F3C223044AD35C03F01F03D84015
:1033700008BD00BF0010024094440008F0B583B0BF
:103380000446036813F4002F6ED0354B9B6D13F089
:10339000805F1ED1324B9A6D42F080529A659B6DD0
:1033A00003F080530193019B01262E4A136843F4D6
:1033B00080731360FFF7C4FB05462A4B1B6813F4A8
:1033C000807F08D1FFF7BCFB401B0228F5D90325FD
:1033D00002E00026E9E7002545BB214BD3F89030F9
:1033E00013F4407315D0226D9A4212D01C4AD2F8C1
:1033F000903023F44073D2F8901041F48031C2F839
:103400009010D2F8901021F48031C2F89010C2F8D8
:10341000903013F0010F10D145B9114AD2F8903015
:1034200023F44073216D0B43C2F89030EEB10C4A87
:10343000936D23F08053936517E0FFF781FB0746F8
:10344000074BD3F8903013F0020FE5D1FFF778FB6C
:10345000C01B41F288339842F2D90325DCE700BF54
:1034600000100240007000400025236813F0010F97
:1034700008D09F4AD2F8883023F0030361680B43D9
:10348000C2F88830236813F0020F08D0984AD2F8A7
:10349000883023F00C03A1680B43C2F888302368FE
:1034A00013F0040F08D0924AD2F8883023F030038A
:1034B000E1680B43C2F88830236813F0080F08D086
:1034C0008B4AD2F8883023F0C00321690B43C2F83D
:1034D0008830236813F0100F08D0854AD2F888305E
:1034E00023F4407361690B43C2F88830236813F0FA
:1034F000200F08D07E4AD2F8883023F44063A169B7
:103500000B43C2F88830236813F0400F08D0784A84
:10351000D2F8883023F44053E1690B43C2F8883075
:10352000236813F0800F08D0714AD2F8883023F452
:103530004043216A0B43C2F88830236813F4807F2C
:1035400008D06B4AD2F8883023F44033616A0B43C9
:10355000C2F88830236813F4003F08D0644AD2F8D8
:103560009C3023F00303A16A0B43C2F89C3023680C
:1035700013F4007F08D05E4AD2F8883023F4402349
:10358000E16A0B43C2F88830236813F4806F0CD0D3
:10359000574AD2F8883023F44013216B0B43C2F80A
:1035A0008830236BB3F5801F79D0236813F4006F44
:1035B0000CD04F4AD2F8883023F44003616B0B43A0
:1035C000C2F88830636BB3F5800F6DD0236813F4B5
:1035D000805F0CD0464AD2F8883023F04073A16B4C
:1035E0000B43C2F88830A36BB3F1807F61D02368AE
:1035F00013F4005F0CD03E4AD2F8883023F04063C9
:10360000E16B0B43C2F88830E36BB3F1006F55D028
:10361000236813F4804F0CD0354AD2F8883023F059
:103620004063216C0B43C2F88830236CB3F1006F08
:1036300049D0236813F4004F0CD02D4AD2F88830BB
:1036400023F04053616C0B43C2F88830636CB3F1D4
:10365000805F3DD0236813F4803F0CD0244AD2F819
:10366000883023F04043A16C0B43C2F88830A36C30
:10367000B3F1804F31D0236813F4802F0CD01C4A53
:10368000D2F89C3023F44013E16C0B43C2F89C3019
:10369000E36CB3F5001F25D0284603B0F0BDD36816
:1036A00043F48013D36080E7D36843F48013D3607E
:1036B0008CE7D36843F48013D36098E7D36843F46E
:1036C0008013D360A4E7D36843F48013D360B0E7DA
:1036D000D36843F48033D360BCE7D36843F48033CA
:1036E000D360C8E7D36843F48013D360D4E700BF46
:1036F00000100240F0B583B0002366E085685E00EC
:103700000324B44025EA0405CC68B4402C4384600B
:10371000446824EA0C0C4C68C4F300149C4044EA4E
:103720000C04446062E08C68012C64D172E0DD0816
:10373000083550F8256003F007044FEA840C0F2485
:1037400004FA0CF426EA040E0C6904FA0CF444EAB8
:103750000E0440F8254062E0052400E0002404FA4D
:103760000EF42C430CF1020C564D45F82C40564CEF
:10377000A568D44325EA02064F6817F4801F01D0DC
:1037800042EA0506504DAE60ED6804EA05064F6852
:1037900017F4001F01D042EA05064B4DEE606D683C
:1037A00004EA05064F6817F4003F01D042EA050617
:1037B000454D6E602D682C404E6816F4803F01D058
:1037C00042EA0504404A146001330A6832FA03F4FD
:1037D00076D04FF0010C0CFA03FC1CEA0202F3D085
:1037E0004C6804F00304013C012C87D94C6804F0B8
:1037F0000304032C97D0C4684FEA430E4FF0030C28
:103800000CFA0EFC24EA0C0C8C6804FA0EF444EA60
:103810000C04C4604C6804F00304022C87D00468D4
:103820004FEA430E4FF0030C0CFA0EFC24EA0C0C8A
:103830004C6804F0030404FA0EF444EA0C04046037
:103840004C6814F4403FBFD0204C256E45F0010574
:103850002566246E04F001040194019C4FEA930C48
:103860000CF10205174C54F8255003F003044FEAFD
:10387000840E0F2404FA0EF425EA0405B0F1904FEB
:103880003FF46CAF124CA04212D004F58064A04209
:1038900010D004F58064A0420ED004F58064A042EC
:1038A0000CD004F58064A0423FF456AF062456E7DE
:1038B000012454E7022452E7032450E704244EE78E
:1038C00003B0F0BD000001400004014000100240C0
:1038D00000040048002836D13E4B1B6803F4C06347
:1038E000B3F5806F08D03B4AD2F8803023F4807360
:1038F000C2F8803000207047364AD2F8803023F476
:103900008073C2F88030136823F4C06343F40073FB
:103910001360314B1B68322202FB03F32F4AA2FBD8
:1039200003239B0C013300E0013B2A4A526912F445
:10393000806F01D0002BF7D1264B5B6913F4806FA9
:1039400044D100207047B0F5007F08D0214A1368A9
:1039500023F4C06343F480631360002070471D4B61
:103960001B6803F4C063B3F5806F08D0194AD2F81E
:10397000803043F48073C2F8803000207047154ACD
:10398000D2F8803043F48073C2F88030136823F497
:10399000C06343F4007313600F4B1B68322202FBB9
:1039A00003F30E4AA2FB03239B0C013300E0013B0F
:1039B000084A526912F4806F01D0002BF7D1054BF1
:1039C0005B6913F4806F03D10020704703207047B8
:1039D00003207047007000406C00002083DE1B4312
:1039E000024A936843F4804393607047007000403C
:1039F000074AD36823F4E0631B041B0C000200F4A5
:103A0000E060034343F0BF6343F40033D360704787
:103A100000ED00E000B5194BDB68C3F30223C3F1EE
:103A2000070CBCF1040F28BF4FF0040C03F1040E87
:103A3000BEF1060F18D9033B4FF0FF3E0EFA0CFC07
:103A400021EA0C0199400EFA03F322EA0303194319
:103A500000280BDB0901C9B200F1604000F56140AC
:103A600080F800135DF804FB0023E5E700F00F0089
:103A70000901C9B2024B1954F4E700BF00ED00E0A0
:103A800014ED00E0002807DB00F01F0240090123CD
:103A90009340024A42F82030704700BF00E100E046
:103AA0000138B0F1807F0BD24FF0E0235861054A16
:103AB000F02182F823100020986107221A617047D4
:103AC0000120704700ED00E0026852E8003F23F457
:103AD000907342E800310029F6D1026802F1080330
:103AE00053E8003F23F0805323F00103083242E8FB
:103AF00000310029F1D1C36E012B06D02023C0F87C
:103B00008C300023C36643677047026852E8003F69
:103B100023F0100342E800310029F6D1EEE700005F
:103B200070B5044601688368026913434269134310
:103B3000C26913430868964A024013430B60226827
:103B4000536823F44053E1680B435360A169226832
:103B5000904B9A4201D0236A1943936823F06E4335
:103B600023F430630B4393602268D36A23F00F037E
:103B7000616A0B43D3622368874A934210D0874A15
:103B8000934221D0864A934237D0864A93425CD0F2
:103B9000854A93426BD07F4A93427DD010223AE00F
:103BA00002F55842D2F8882002F00302032A09D80D
:103BB000DFE802F00204870601222CE004222AE05A
:103BC000082228E0102226E002F5E632D2F888200A
:103BD00002F00C020C2A0ED8DFE802F0070D0D0DE2
:103BE000090D0D0D750D0D0D0B00002213E00422C3
:103BF00011E008220FE010220DE002F5E432D2F8C5
:103C0000882002F03002202A5FD01AD8002A5ED025
:103C1000102A5ED104225F498B4276D0E069B0F56C
:103C2000004F00F0C980082A00F23481DFE812F06A
:103C3000F7001901F50032011C0132013201320195
:103C40001F01302A47D10822E5E702F5E232D2F817
:103C5000882002F0C002802A3FD004D8FAB3402A5C
:103C60003FD10422D7E7C02A3DD10822D3E702F58D
:103C7000E032D2F8882002F44072B2F5007F34D0EE
:103C800005D8A2B3B2F5807F33D10422C3E7B2F5E1
:103C9000407F30D10822BEE702F5C832D2F8882032
:103CA00002F44062B2F5006F27D005D83AB3B2F5FE
:103CB000806F26D10422AEE7B2F5406F23D10822EF
:103CC000A9E70222A7E70222A5E70222A3E7002232
:103CD000A1E710229FE710229DE702229BE7002226
:103CE00099E7102297E7102295E7022293E7002236
:103CF00091E710228FE710228DE702228BE7002246
:103D000089E7102287E7102285E7082A00F2B280AF
:103D1000DFE802F008B03BB038B0B0B005004FF4B7
:103D2000004004E0FFF706FB002800F0A580626A6F
:103D30001E4B33F81220B0FBF2F3656805EB45012A
:103D4000994200F29B80B3EB053F00F29980002678
:103D500033463146FDF7DEF9090241EA10610002FF
:103D60006B08C0182A46334641F10001FDF7D2F92D
:103D7000A0F540720E4B9A4200F284802368D8600E
:103D8000304665E0FFF792F9CEE70A48CFE700BF7B
:103D9000F369FFCF0080004000380140004400403C
:103DA00000480040004C0040005000405C440008C7
:103DB000FFFC0F000024F400082A65D8DFE802F0B9
:103DC000072705642A6464640B00354803E0FFF7A5
:103DD000B1FA00285AD0626A324B33F81230B0FB85
:103DE000F3F06268530803EB4000B0FBF2F0A0F17F
:103DF00010024FF6EF739A424AD883B223F00F03B2
:103E0000C0F3420018432368D860002020E0FFF789
:103E1000A3FADEE7FFF74AF9DBE7214803E0FFF703
:103E200089FA002838D0626A1E4B33F81230B0FB92
:103E3000F3F0636800EB5300B0FBF3F0A0F1100265
:103E40004FF6EF739A4229D8236880B2D8600020D9
:103E50000123A4F86A30A4F8683000236367A367DD
:103E600070BDFFF779FADCE7FFF720F9D9E74FF4E7
:103E70000040D8E70120EBE70020E9E70120E7E771
:103E80000120E5E70120E3E70120E1E70020DFE78B
:103E90000120DDE70120DBE70020D9E70120D7E79B
:103EA0000024F4005C440008836A13F0080F06D075
:103EB0000268536823F40043816B0B435360836AA9
:103EC00013F0010F06D00268536823F40033C16A6F
:103ED0000B435360836A13F0020F06D002685368E5
:103EE00023F48033016B0B435360836A13F0040F98
:103EF00006D00268536823F48023416B0B43536060
:103F0000836A13F0100F06D00268936823F480537D
:103F1000C16B0B439360836A13F0200F06D00268D5
:103F2000936823F40053016C0B439360836A13F08E
:103F3000400F0AD00268536823F48013416C0B438E
:103F40005360436CB3F5801F0BD0836A13F0800F6E
:103F500006D00268536823F40023C16C0B435360FE
:103F600070470268536823F4C003816C0B435360AD
:103F7000EBE72DE9F84305460E4617469946DDF86E
:103F800020802C68E46936EA04030CBF4FF0010C72
:103F90004FF0000CBC4536D1B8F1FF3FF1D0FEF731
:103FA000CFFDA0EB0900404530D8B8F1000F2FD06D
:103FB0002B681A6812F0040FE3D0802EE1D0402E57
:103FC000DFD0DA6912F0080F11D1DA6912F4006F4C
:103FD000D7D04FF400621A622846FFF775FD202300
:103FE000C5F89030002385F8843003200CE00824C5
:103FF0001C622846FFF768FDC5F89040002385F84D
:104000008430012000E00020BDE8F8830320FBE7B6
:104010000320F9E72DE9F04182B01E46D0F8883040
:10402000202B60D104460D46904600295FD00AB986
:10403000012059E00023C0F890302123C0F88830D7
:10404000FEF77EFD0746A4F85480A4F85680A368C6
:10405000B3F5805F02D04FF000081CE0236973B312
:104060004FF0000817E02023C4F8883003203BE01D
:1040700038F8023B2268C3F308039362D4F888300F
:1040800003F02103212B34D1B4F8562092B2013A27
:1040900092B2A4F85620B4F856309BB293B1009671
:1040A0003B46002280212046FFF763FF0028DAD13B
:1040B000002DDDD015F8012B23689A62DEE7A846B3
:1040C0000025E8E700963B46002240212046FFF706
:1040D00050FF18B92023C4F8883005E02023C4F825
:1040E0008830032000E0022002B0BDE8F08101200A
:1040F000FAE70120F8E730B583B004460023C0F8A2
:104100009030FEF71DFD05462268126812F0080F78
:1041100010D123681B6813F0040F28D12023C4F8A2
:104120008830C4F88C300020E066206784F8840072
:1041300003B030BD6FF07E430093034600224FF47E
:1041400000112046FFF715FF0028E2D0226852E850
:10415000003F23F0800342E800310029F6D12023FC
:10416000C4F88830002384F884300320E0E76FF03F
:104170007E4300932B4600224FF480012046FFF738
:10418000F8FE0028CAD0226852E8003F23F490735A
:1041900042E800310029F6D1226802F1080353E811
:1041A000003F23F00103083242E800310029F3D137
:1041B0002023C4F88C30002384F884300320B7E730
:1041C00078B310B50446D0F888300BB32423C4F874
:1041D00088302268136823F001031360A36AE3B9EF
:1041E0002046FFF79DFC012811D02268536823F474
:1041F000904353602268936823F02A0393602268F7
:10420000136843F0010313602046FFF774FF10BDED
:1042100080F88430FDF7C2FAD8E72046FFF744FE65
:10422000DEE7012070470000436E2BB90123A0F8A0
:104230006A30A0F86830704730B403689A68C2F3F7
:1042400042629968490F094D6B5CDB00084C615C68
:1042500093FBF1F3A0F86A30AB5CDB00A25C93FB4C
:10426000F2F3A0F8683030BC704700BF7C4400080F
:104270007444000890F88430012B18D0012380F892
:1042800084302423C0F8883003681A68196821F044
:104290000101196022F000520023436601680A60A0
:1042A0002022C0F8882080F8843018467047022009
:1042B000704738B590F88430012B1DD00446012397
:1042C00080F884302423C0F8883003681D681A6899
:1042D00022F001021A600268936823F060431943D8
:1042E0009160FFF7A1FF23681D602023C4F8883088
:1042F000002084F8840038BD0220FCE738B590F82F
:104300008430012B1DD00446012380F884302423FF
:10431000C0F8883003681D681A6822F001021A602C
:104320000268936823F0606319439160FFF77CFF94
:1043300023681D602023C4F88830002084F884009E
:1043400038BD0220FCE70000034AD2F8883043F46D
:104350007003C2F88830704700ED00E010B50346E6
:104360000C4A0D490D48006840B10C4800680344F0
:10437000521A934206D8094A136010BD0748084CE8
:104380000460F2E7FBF770FF0C2303604FF0FF308F
:10439000F3E700BF00000220000400009C010020A1
:1043A000A00100200D488546FFF7CEFF0C480D49BF
:1043B0000D4A002302E0D458C4500433C4188C4280
:1043C000F9D30A4A0A4C002301E013600432A242E6
:1043D000FBD3FBF74FFFFDF707F9FEE700000220D4
:1043E0000000002070000020E84400087000002059
:1043F000A0010020FEE70000F8B500BFF8BC08BC33
:104400009E467047F8B500BFF8BC08BC9E46704792
:104410005553422D4320766F6C74616765206D6F34
:104420006E69746F722072656164790D0A00000014
:10443000565553423D256C752E2530336C752056EC
:104440002020286164633D256C752C207670696E90
:104450003D256C75206D56290D0A000001000200F3
:104460000400060008000A000C00100020004000B4
:104470008000000108040204080101010101010398
:10448000070100000000000000000000010203041A
:10449000060708090000000001020304232D302B49
:1044A00020000000686C4C006566674546470000C8
:1044B000303132333435363738394142434445465A
:1044C000000000003031323334353637383961621C
:0844D000636465660000000052
:0844D8006CCCFF7F0100000025
:0444E0004902000885
:0444E40021020008A9
:1044E80004000020000000000000000000000000A0
:1044F80000000000000000000000000000000000B4
:1045080000000000000000000000000000000000A3
:104518000000000000000000000000000000000093
:104528000000000000000000000000000000000083
:104538000000000000000000000000000000000073
:104548000000000001000000100000000024F4003A
:04000005080043A507
:00000001FF
